:100000000C9462000C9400050C94D9040C948A00A2
:100010000C948A000C948A000C948A000C948A0038
:100020000C948A000C9427050C948A000C948A0086
:100030000C948A000C948A000C948A000C948A0018
:100040000C948F040C948A000C948A000C948A00FF
:100050000C948A000C948A000C948A000C948A00F8
:100060000C948A000C948A000000000023002600F3
:10007000290000000008000201000003040700003E
:1000800000000000000000000000250028002B00F8
:1000900000000000240027002A00040404040404D3
:1000A0000404020202020202030303030303010227
:1000B00004081020408001020408102001020408F6
:1000C0001020D10911241FBECFEFD8E0DEBFCDBF75
:1000D00011E0A0E0B1E0E4E8F4E102C005900D9287
:1000E000A430B107D9F721E0A4E0B1E001C01D922E
:1000F000A33CB207E1F710E0C2E6D0E004C02197CC
:10010000FE010E942D0AC136D107C9F70E94D00511
:100110000C94400A0C94000090E0FC01E255FF4F63
:10012000249186569F4FFC018491882399F090E09A
:10013000880F991FFC01E057FF4FA591B491FC0176
:10014000EA57FF4F859194918FB7F894EC91E22B89
:10015000EC938FBF089580E090E0892B11F00C9410
:1001600000000895833081F028F4813099F08230C6
:10017000A9F008958730A9F08830C9F08430B1F42F
:10018000809180008F7D03C0809180008F77809365
:100190008000089584B58F7784BD089584B58F7DE0
:1001A000FBCF8091B0008F778093B000089580914D
:1001B000B0008F7DF9CF1F93CF93DF93282F30E0CE
:1001C000F901EE58FF4F8491F901E255FF4FD491A8
:1001D000F901E656FF4FC491CC23A9F0162F8111E7
:1001E0000E94B200EC2FF0E0EE0FFF1FEA57FF4F26
:1001F000A591B4918FB7F894EC91111108C0D095E6
:10020000DE23DC938FBFDF91CF911F910895DE2B0A
:10021000F8CF2FB7F89460910C0170910D01809187
:100220000E0190910F012FBF08950F931F93CF934D
:10023000DF93EC01062F142F8091C2018830E0F487
:100240008F5F8093C20188830E940901688B798B3C
:100250008A8B9B8B088781E0898790E59A8794E653
:100260009B879AE59C879D838D871E878F87DF916B
:10027000CF911F910F9108951882E6CF08959FEFB7
:10028000980F9830F8F49B016136794014F020E61D
:1002900039E02C3192E0390714F42CE132E0285097
:1002A0003109A901440F452F441F550B90E0FC0173
:1002B000EE0FFF1FE80FF91FE05CFE4F4183220F96
:1002C0002095228308951F93CF93DF93EC01162F7F
:1002D00080910601811116C08EE380934101109236
:1002E000050110920401109270001092B00082E09B
:1002F0008093B1001092B20081E087BB80937000C0
:10030000809306018881882399F0812F0E948C00B8
:10031000E8818E2F90E0FC01EE0FFF1FE80FF91F20
:10032000E05CFE4F1F716081607E612B60626083C4
:100330008881DF91CF911F910895CF93C82F80E0DE
:1003400090E0892B51F0809128018C1731F081E0E9
:10035000C11101C080E00E940000C093280160E04C
:1003600070E0CB01C1110E940901609329017093D3
:100370002A0180932B0190932C0180E090E0892B3F
:1003800059F0809128018C1739F081E0C11101C02A
:1003900080E0CF910C940000CF9108951F93CF93EC
:1003A000DF93EC01162F80E090E0892B91F0C830AC
:1003B000D10579F4662319F10E94000080E090E0F5
:1003C000892BB9F0612FCE01DF91CF911F910C9451
:1003D000000080E090E0892BA9F781E0C11594E04E
:1003E000D90708F080E0111105C0DF91CF911F916E
:1003F000089581E027972297C0F780E0F6CF80E04C
:1004000090E0892BF9F681E0F0CF80E090E0892B35
:1004100029F080913F0183FD0C9400000895CF9353
:10042000C091C00190E080E00E94EF09C81729F058
:100430006C2F90E080E00E94F709C091C10181E03B
:1004400090E00E94EF09C81729F06C2F81E090E03E
:100450000E94F70980EC91E0CF910895413049F571
:100460002091AF01222341F01092AF019093C1017E
:100470008093C0010C940F022091C0013091C10102
:1004800082179307B0F0A9014C5F5F4F841795075F
:1004900080F4821B94E1989FF0011124E55AFE4FED
:1004A00066832785222329F0608570E0CF010C94B4
:1004B000630108951F93CF93DF93EC01162F8331CF
:1004C0009105C8F48131910528F48130910511F02E
:1004D000099731F48FEF9FEF90933D0180933C019A
:1004E00080E090E0892BA9F0612FCE01DF91CF91C0
:1004F0001F910C9400004D9799F7177F10933F01BF
:10050000809126018F73912F907C892B80932601F7
:10051000E1CFCE010E94EF091817C1F0612FCE0183
:100520000E94F70980E090E0892B21F0612FCE0135
:100530000E94000080E090E0892B41F0809126012C
:1005400084FD04C0612FCE010E940000CE01DF9126
:10055000CF911F910C94EF0920E030E0232B11F094
:100560000C9400000C94EF09BF92CF92DF92EF92AF
:10057000FF920F931F93CF93DF938B01B42E6901EA
:1005800082FF23C083FF17C061E0C8010E94CE0133
:100590008823D9F16B2DC8010E945A028B1135C0F6
:1005A000F601DF91CF911F910F91FF90EF90DF90B7
:1005B000CF90BF90099460E0C8010E94CE018823CB
:1005C00021F1C8010E94AC02E9CF842F8770C1E0FD
:1005D000D0E07E0101C0EE0C8A95EAF7D42FD870E6
:1005E000CB010E94AC02C82FB4FE1CC061E0C80160
:1005F0000E94CE01882349F0DD2389F0CE296C2F9B
:10060000C8010E945A028C1759F2DF91CF911F91B5
:100610000F91FF90EF90DF90CF90BF900895E094FE
:10062000CE21EDCF60E0C8010E94CE01882369F39E
:10063000CE21DD2319F0C111B3CFE7CFCC2309F4CC
:10064000AFCFE3CFCF93DF9320913C0130913D01B9
:100650002F3F320721F0C901DF91CF91089580919A
:100660003F0187FF2BC086FF0FC089E090E00E940A
:10067000AC02C82F81E090E00E94AC029C2F9093C6
:100680003D0180933C0115C089E090E00E94AC02DE
:10069000C82F81E090E00E94AC0290E4C99F9001D5
:1006A0001124207C31708F73282B30933D012093CF
:1006B0003C0180913C0190913D01CECF85FF0CC063
:1006C00081E190E00E94AC02C82F82E190E00E949C
:1006D000AC02C05CDD0BD2CF81E090E00E94AC02A6
:1006E00090E0CDCFCF92DF92EF92FF920F931F93C6
:1006F000CF93DF937C016B01C42F122FD42FD07EB8
:100700008091260187FF2CC0D03EC1F58091270142
:100710008823A1F190E00E94AC02D82F809127019C
:1007200090E001960E94AC02982F8D2FE816F906F2
:1007300029F56C2F70E0762F662766277370612B82
:100740006F5F7F4F25E032E0402F8C2FDF91CF91FC
:100750001F910F91FF90EF90DF90CF900C94B40217
:1007600080FD36C0D03609F46DC088F4D03209F46B
:100770004BC0D03409F466C0DD2399F1DF91CF91ED
:100780001F910F91FF90EF90DF90CF900895D03A96
:1007900009F490C0B0F4D03889F780E090E02C2FB5
:1007A0002F7141E050E0892B49F3B601C701DF9179
:1007B000CF911F910F91FF90EF90DF90CF900C940D
:1007C0000000D03C09F484C0D03E09F4B2CFD6CFAB
:1007D0000E9422038E159F0529F2E114F10411F203
:1007E000CDCF8C2F8E7051F680E090E0892B31F2C6
:1007F0008C2F8170DF91CF911F910F91FF90EF901F
:10080000DF90CF900C940000CF71CF3109F0B6CFBC
:1008100080E090E0892B09F4B1CF412F4F7771F040
:10082000413071F0111F1127111F212F30E00FE708
:1008300010E0B601C7010E940000A0CF41E0F2CF56
:1008400040E0F0CF80E090E0892BC1F02C2F30E029
:100850008C2F8F71813029F030F0803121F081317F
:10086000F9F440E001C041E025FB222720F90DE129
:1008700010E030E0B601C7010E94000080E090E087
:10088000892B09F47BCF4C2FB601C701DF91CF91A3
:100890001F910F91FF90EF90DF90CF900C9400008C
:1008A000C901880F991F8E71C4FB442740F9482B5A
:1008B0004250DACF80E090E0892B09F45FCF2C2FF3
:1008C0002F7043E050E0C4FF70CF42E050E06DCFA6
:1008D000CF71CE3161F0CF3109F050CF80E090E0A0
:1008E000212F45E050E0892B09F05FCF47CF80E012
:1008F00090E0212F44E050E0892B09F056CF3ECF05
:100900000E949D01E6E2F1E081E087831086EFE23C
:10091000F1E088E0DF011D928A95E9F708951F92C2
:100920000F920FB60F9211242F933F938F939F93A3
:10093000AF93BF9380910C0190910D01A0910E0196
:10094000B0910F0130910B0123E0230F2D3758F5A3
:100950000196A11DB11D20930B0180930C01909372
:100960000D01A0930E01B0930F01809107019091AA
:100970000801A0910901B0910A010196A11DB11DC4
:100980008093070190930801A0930901B0930A0195
:10099000BF91AF919F918F913F912F910F900FBE7B
:1009A0000F901F90189526E8230F0296A11DB11DE8
:1009B000D2CF1F920F920FB60F9211242F933F9315
:1009C0004F935F936F937F938F939F93AF93BF9357
:1009D000EF93FF93E0910201F09103010995FF91DC
:1009E000EF91BF91AF919F918F917F916F915F91A7
:1009F0004F913F912F910F900FBE0F901F90189520
:100A00001F920F920FB60F9211242F933F934F9383
:100A10005F936F937F938F939F93AF93BF93EF9366
:100A2000FF93E0910001F09101010995FF91EF9191
:100A3000BF91AF919F918F917F916F915F914F91F6
:100A40003F912F910F900FBE0F901F9018951F92FE
:100A50000F920FB60F9211242F933F934F935F93F2
:100A60006F937F938F939F93AF93BF93EF93FF9376
:100A7000809104018F5F80930401E0910501209132
:100A800004018E2F90E0FC01EE0FFF1FE80FF91F0D
:100A9000E05CFE4F8181E091050182131DC08E2F25
:100AA00090E0FC01EE0FFF1FE80FF91FE05CFE4F26
:100AB00082818093B200FF91EF91BF91AF919F919E
:100AC0008F917F916F915F914F913F912F910F90F7
:100AD0000FBE0F901F901895209104018E2F90E06B
:100AE000FC01EE0FFF1FE80FF91FE05CFE4F818154
:100AF000821708F7E09105018E2F90E0FC01EE0FC0
:100B0000FF1FE80FF91FE05CFE4F808185FF10C0DA
:100B1000E09105018E2F90E0FC01EE0FFF1FE80F22
:100B2000F91FE05CFE4F808160E08F710E94DB0066
:100B3000809105018F5F809305011092040110924E
:100B4000B20080910501882319F180910501893057
:100B5000F8F4E09105018E2F90E0FC01EE0FFF1FED
:100B6000E80FF91FE05CFE4F808185FFA4CFE09184
:100B700005018E2F90E0FC01EE0FFF1FE80FF91F1B
:100B8000E05CFE4F808161E08F710E94DB0093CFBB
:100B900080910501893008F48ECF109205018BCF2A
:100BA000789484B5826084BD84B5816084BD85B548
:100BB000826085BD85B5816085BD80916E00816054
:100BC00080936E00109281008091810082608093FA
:100BD00081008091810081608093810080918000FC
:100BE0008160809380008091B10084608093B10027
:100BF0008091B00081608093B00080917A00846021
:100C000080937A0080917A00826080937A0080914C
:100C10007A00816080937A0080917A008068809366
:100C20007A001092C10090E080E00E94EF0980936A
:100C3000C00181E090E00E94EF098093C1018091A2
:100C4000C0019091C101019641F481E090E0909340
:100C5000C1018093C0010E940F02CBE5D1E08885DD
:100C60008F3F51F06D8170E088810E943F0168855F
:100C700070E0CE010E9463018D85882319F08E8576
:100C80000E948C00649631E0CB3AD30741F740E0F4
:100C9000642E40E0742E50E0A52E50E0B52E60E0AA
:100CA000C62E60E0D62E70E0872E70E0972E8091E1
:100CB00028018823B1F00E940901009129011091B7
:100CC0002A0120912B0130912C01601B710B820BAA
:100CD000930B653171058105910518F080E00E9444
:100CE0008004809112018823A9F1F89488E0EEE154
:100CF000F1E0A8EBB1E001900D928A95E1F7109236
:100D0000120178948091B801E82FF0E0E654FE4F8C
:100D1000863018F411928F5FFBCF80E090E0892B32
:100D200021F088EB91E00E9400008091BA018111CE
:100D300013C19091BB0191110FC18114910411F065
:100D40000E94000080912801882309F401C181E0FC
:100D50000E949D010E9409010091B4011091B5010A
:100D60002091B6013091B7011B012C01201A310AE4
:100D7000420A530A9201810102331105210531050E
:100D800060F16093B4017093B5018093B6019093C4
:100D9000B70186E480937C0080917A008064809320
:100DA0007A0080917A0086FDFCCF80917800909146
:100DB00079002091B201843F914008F0DAC22111FC
:100DC0000AC08091B301882309F4D0C21092B30104
:100DD00082E08093B0011092B2018091B001833023
:100DE00019F491E09093B0019091B001923011F418
:100DF0001092B001823019F481E08093AF010E941B
:100E000009010091AB011091AC012091AD0130912D
:100E1000AE011B012C01201A310A420A530A920129
:100E20008101043F11402105310508F432C060936F
:100E3000AB017093AC018093AD019093AE018091B2
:100E4000AF0161E0882311F1E2E7F0E08491EEEA7E
:100E5000F0E0C491EAE9F0E0D49170E060E0DD23D5
:100E600099F081110E94B200ED2FF0E0EE0FFF1F0C
:100E7000E859FF4FA591B491EC91CE2391E080E029
:100E800009F490E0692F782FF1E06F2780E00E944D
:100E9000DB00CBE5D1E00E94090109811A812B8199
:100EA0003C81061717072807390708F043C00E943E
:100EB00009012985620F711D811D911D69837A8346
:100EC0008B839C839E818D81992309F464C29B85C9
:100ED000891710F48F5F8D834D818F81841751F1B5
:100EE0004F838B85481719F08A85481310C08F856A
:100EF000813069F4288130E0C901880F991F820F81
:100F0000931FFC01E05CFE4F80818F7D80838D8587
:100F1000882341F08C8560E0481708F061E08E85F9
:100F20000E94DB0088858F3F29F06D8170E0888109
:100F30000E943F01649621E0CB3AD20709F0ABCF83
:100F400080E090E0892B09F4B2CE0E9400009FCE91
:100F500081E00E948004FECE90912801992309F43B
:100F600087C08057803108F080C081E00E949D01D9
:100F7000C091B80180912F01C8130AC04C2F50E0D6
:100F800061E371E08AEB91E00E94330A892B61F002
:100F900010922E0188E0E8EBF1E0AFE2B1E00190C1
:100FA0000D928A95E1F7D6CE80912E018F5F8093C6
:100FB0002E01C33009F041C02091BA01822F877001
:100FC0001091BB01853049F410932D01C114D10457
:100FD00009F4C0CE0E940000BDCECDE1D0E0843047
:100FE00089F0C82FD0E0843060F480912D018823EF
:100FF00041F08150990B880F991F880F991FC80FD6
:10100000D91F219623FF0EC061E0CE010E94CE01C0
:10101000882309F49FCE612FCE010E945A02181333
:1010200099CED4CF60E0CE010E94CE01882309F48E
:1010300091CECE010E94AC02F2CFC43009F08ACE2C
:101040008091BA01682F70E0762F6627662773704B
:101050009091BB01692B6F5F7F4F2BEA30E040918D
:10106000BC018C700E94B40275CE80E00E948004A6
:10107000E091BA01EF3F59F48091BB0181116ACE32
:10108000A114B10409F466CE0E94000063CEE7FD0E
:101090000DC00091BD012091BC014091BB0170E0E9
:1010A00060E08E2F90E00E94720354CEE03C08F086
:1010B0004CC19091260197FF4DCE4091BB01242F4A
:1010C00030E0E901C095D095CC0FDD1FCC0FDD1FBE
:1010D000C07CD170EF73CE2B35952795E22FE3704E
:1010E0003E2E8091B801853031F54C784C3019F5A1
:1010F0000E9422038C179D0721F0CF3FD14009F0B9
:1011000029CEC091BB01D0E0DC2FCC27CC27D370F7
:101110008091BC01C80FD11D21961091BD0161E0E5
:10112000CE010E94CE01612F882309F413CECE0197
:101130000E945A020FCE7E0121E0E21AF108EE0C65
:10114000FF1CEE0CFF1CE32887010F5F1F4F8091EF
:101150003E018823F1F096FF42C0C80160E071E0D3
:101160000E94050A682F81E090E00E945A02C8019F
:1011700017FF02C081509F4F692F89E090E00E94C5
:101180005A026114710419F0C8010E940000109203
:101190003E018091260180FD3BC08091B8018430E2
:1011A00009F050C08091BB018978813009F0D2CD1F
:1011B000F0E04F2EF0E05F2E452829F06091BC0151
:1011C000C8010E94000020E030E0232B09F4C2CDCA
:1011D0004091BC01632DC8010E940000BBCDBE013F
:1011E0006F73772781E090E00E945A02BE01A6E06B
:1011F00075956795AA95E1F789E090E00E945A02FB
:1012000080E090E0892B19F2CE010E940000BFCF50
:1012100086FF0CC00E9422038017910709F4BDCFFE
:101220000D3F97E019070CF0B8CF94CD0E94220330
:101230008C179D0709F4B1CFCF3FE1E0DE0709F439
:10124000ACCF88CD833041F54091BB01342F317054
:10125000E32E43FBFF24F0F880E090E0892B31F08F
:1012600047702F2DBE01C8010E9400008091260109
:1012700086FF06C04F2D6E2DC8010E942E026ACD3A
:10128000E0E0F0E0EF2B09F465CD2F2D4E2D632D1E
:10129000CE010E9400005ECD863009F05BCD8091CA
:1012A000BB01982F9978913021F08F78803809F020
:1012B00051CD8091260186FF24C00E942203801711
:1012C0009107D9F48091BC0190E0D82FCC27CC278E
:1012D000D3702091BD01C20FD11D21961091BE0186
:1012E0009595879595958795837099278230910577
:1012F00089F0039709F413CF2DCD0D3F174014F754
:1013000029CD0E9422038C179D07E1F2CF3FD140E7
:10131000C9F220CD14FF1ECD61E0CE010E94CE01A6
:10132000882309F417CDCE010E94AC02912F97704B
:1013300061E070E001C0660F9A95EAF713FF02C002
:10134000682BF5CE60956823F2CEE83E08F002CD1A
:10135000E05CFF0B8091BB010091BE012091BD01BB
:101360004091BC0161E070E09E2F9DCE1092B001D3
:1013700032CD222351F08091B30181110AC081E066
:101380008093B30183E08093B00181E08093B20148
:1013900024CD81E0F8CF9A85981708F09DCD815033
:1013A0009ACDE0EBF1E0128213828FEF818347E068
:1013B00063E08BE591E00E94150148E064E08FE670
:1013C00091E00E94150149E065E083E891E00E9408
:1013D00015014AE066E087E991E00C941501F9995E
:1013E000FECF92BD81BDF89A992780B50895262F2A
:1013F000F999FECF1FBA92BD81BD20BD0FB6F894FA
:10140000FA9AF99A0FBE0196089597FB072E16F4E3
:10141000009407D077FD09D00E94190A07FC05D077
:101420003EF4909581959F4F0895709561957F4FFB
:101430000895AA1BBB1B51E107C0AA1FBB1FA6171B
:10144000B70710F0A61BB70B881F991F5A95A9F76D
:1014500080959095BC01CD010895EE0FFF1F05907A
:10146000F491E02D0994FB01DC0104C08D91019001
:10147000801921F441505040C8F7881B990B0895FA
:04148000F894FFCF0E
:041484003E013E01E6
:00000001FF
