:100000000C945D000C9482040C945B040C948500A9
:100010000C9485000C9485000C9485000C9485004C
:100020000C9485000C94A9040C9485000C94850014
:100030000C9485000C9485000C9485000C9485002C
:100040000C9411040C9485000C9485000C9485008C
:100050000C9485000C9485000C9485000C9485000C
:100060000C9485000C9485000000000025002800F9
:100070002B000000000023002600290004040404D3
:100080000404040402020202020203030303030342
:10009000010204081020408001020408102001021F
:1000A00004081020000000080002010000030407FB
:1000B0000000000000000000A50811241FBECFEFC3
:1000C000D8E0DEBFCDBF11E0A0E0B1E0E2E3F2E1B5
:1000D00002C005900D92A430B107D9F721E0A4E049
:1000E000B1E001C01D92AE36B207E1F710E0CDE5F8
:1000F000D0E004C02197FE010E940409CC35D1074D
:10010000C9F70E94E7040C9417090C94000080E0E2
:1001100090E0892B11F00C9400000895833081F059
:1001200028F4813099F08230A9F008958730A9F041
:100130008830C9F08430B1F4809180008F7D03C095
:10014000809180008F7780938000089584B58F77A9
:1001500084BD089584B58F7DFBCF8091B0008F77EB
:100160008093B00008958091B0008F7DF9CF1F93E8
:10017000CF93DF93282F30E0F901EC55FF4F8491A6
:10018000F901E057FF4FD491F901E458FF4FC491B2
:10019000CC23A9F0162F81110E948E00EC2FF0E0E5
:1001A000EE0FFF1FE859FF4FA591B4918FB7F89458
:1001B000EC91111108C0D095DE23DC938FBFDF9145
:1001C000CF911F910895DE2BF8CF08950F931F93C1
:1001D000CF93DF93EC011C811130A9F00D8110E069
:1001E000013091F000E061E088810E94B700602F4B
:1001F00089810E94B700612F8A81DF91CF911F9181
:100200000F910C94B70000E060E0EECFCF93C82FC1
:1002100080E090E0892B51F080913B018C1731F008
:1002200081E0C11101C080E00E940000C0933B0149
:10023000CC2331F12FB7F894809153019091540160
:10024000A0915501B09156012FBF482F392F2A2F69
:100250008B2F40933C0130933D0120933E018093CE
:100260003F0180E090E0892B81F080913B018C1769
:1002700061F081E0C11101C080E0CF910C940000D9
:1002800040E030E020E080E0E4CFCF9108951F937C
:10029000CF93DF93EC01162F80E090E0892B91F053
:1002A000C830D10579F4662319F10E94000080E07E
:1002B00090E0892BB9F0612FCE01DF91CF911F9192
:1002C0000C94000080E090E0892BA9F781E0C11533
:1002D00094E0D90708F080E0111105C0DF91CF91BB
:1002E0001F91089581E027972297C0F780E0F6CF0D
:1002F00080E090E0892BF9F681E0F0CF80E090E09B
:10030000892B29F08091520183FD0C9400000895FF
:10031000CF93C0916C0190E080E00E94C608C8179E
:1003200029F06C2F90E080E00E94CE08C0916D0112
:1003300081E090E00E94C608C81729F06C2F81E088
:1003400090E00E94CE088CE691E0CF910895413074
:1003500091F520915B01222341F010925B01909373
:100360006D0180936C010C94880120916C01309197
:100370006D0182179307F8F0A9014B5F5F4F841757
:100380009507C8F4982F921B892F869526E0829FA7
:10039000A0011124455F5E4F289F9001112490FF1A
:1003A00005C0FA016583CA010C94E600255F3E4F43
:1003B000F9016483F8CF08951F93CF93DF93EC0185
:1003C000162F83319105C8F48131910528F48130CD
:1003D000910511F0099731F48FEF9FEF9093500141
:1003E00080934F0180E090E0892BA9F0612FCE012E
:1003F000DF91CF911F910C9400004D9799F7177FD3
:1004000010935201809139018F73912F907C892B29
:1004100080933901E1CFCE010E94C6081817C1F0C0
:10042000612FCE010E94CE0880E090E0892B21F060
:10043000612FCE010E94000080E090E0892B41F006
:100440008091390184FD04C0612FCE010E9400001B
:10045000CE01DF91CF911F910C94C60820E030E0CF
:10046000232B11F00C9400000C94C608BF92CF927D
:10047000DF92EF92FF920F931F93CF93DF938B0145
:10048000B42E690182FF23C083FF17C061E0C80159
:100490000E9447018823D9F16B2DC8010E94DC011D
:1004A0008B1135C0F601DF91CF911F910F91FF9015
:1004B000EF90DF90CF90BF90099460E0C8010E9458
:1004C0004701882321F1C8010E942E02E9CF842F21
:1004D0008770C1E0D0E07E0101C0EE0C8A95EAF79A
:1004E000D42FD870CB010E942E02C82FB4FE1CC09E
:1004F00061E0C8010E944701882349F0DD2389F0AB
:10050000CE296C2FC8010E94DC018C1759F2DF91B3
:10051000CF911F910F91FF90EF90DF90CF90BF9000
:100520000895E094CE21EDCF60E0C8010E9447011C
:10053000882369F3CE21DD2319F0C111B3CFE7CFB2
:10054000CC2309F4AFCFE3CFCF93DF9320914F01BA
:10055000309150012F3F320721F0C901DF91CF9137
:1005600008958091520187FF2BC086FF0FC089E05C
:1005700090E00E942E02C82F81E090E00E942E029F
:100580009C2F9093500180934F0115C089E090E01B
:100590000E942E02C82F81E090E00E942E0290E47B
:1005A000C99F90011124207C31708F73282B3093C8
:1005B000500120934F0180914F0190915001CECF77
:1005C00085FF0CC081E190E00E942E02C82F82E1DD
:1005D00090E00E942E02C05CDD0BD2CF81E090E063
:1005E0000E942E0290E0CDCFCF92DF92EF92FF9249
:1005F0000F931F93CF93DF937C016B01C42F122FB6
:10060000D42FD07E8091390187FF2CC0D03EC1F518
:1006100080913A018823A1F190E00E942E02D82F08
:1006200080913A0190E001960E942E02982F8D2F22
:10063000E816F90629F56C2F70E0762F66276627F5
:100640007370612B6F5F7F4F2EE731E0402F8C2F4F
:10065000DF91CF911F910F91FF90EF90DF90CF909E
:100660000C94360280FD36C0D03609F46DC088F493
:10067000D03209F44BC0D03409F466C0DD2399F1BF
:10068000DF91CF911F910F91FF90EF90DF90CF906E
:100690000895D03A09F490C0B0F4D03889F780E0DA
:1006A00090E02C2F2F7141E050E0892B49F3B601E7
:1006B000C701DF91CF911F910F91FF90EF90DF90D5
:1006C000CF900C940000D03C09F484C0D03E09F4D3
:1006D000B2CFD6CF0E94A4028E159F0529F2E11455
:1006E000F10411F2CDCF8C2F8E7051F680E090E0A6
:1006F000892B31F28C2F8170DF91CF911F910F9157
:10070000FF90EF90DF90CF900C940000CF71CF312D
:1007100009F0B6CF80E090E0892B09F4B1CF412FEA
:100720004F7771F0413071F0111F1127111F212FE8
:1007300030E00FE710E0B601C7010E940000A0CF33
:1007400041E0F2CF40E0F0CF80E090E0892BC1F0B3
:100750002C2F30E08C2F8F71813029F030F08031D8
:1007600021F08131F9F440E001C041E025FB22276E
:1007700020F90DE110E030E0B601C7010E94000051
:1007800080E090E0892B09F47BCF4C2FB601C701A4
:10079000DF91CF911F910F91FF90EF90DF90CF905D
:1007A0000C940000C901880F991F8E71C4FB442767
:1007B00040F9482B4250DACF80E090E0892B09F4D1
:1007C0005FCF2C2F2F7043E050E0C4FF70CF42E08A
:1007D00050E06DCFCF71CE3161F0CF3109F050CF05
:1007E00080E090E0212F45E050E0892B09F05FCFB9
:1007F00047CF80E090E0212F44E050E0892B09F0C2
:1008000056CF3ECF0E940601E9E3F1E081E0878305
:100810001086E2E4F1E088E0DF011D928A95E9F7B5
:1008200008951F920F920FB60F9211242F933F93AA
:100830008F939F93AF93BF938091530190915401F5
:10084000A0915501B091560130910A0123E0230F88
:100850002D3758F50196A11DB11D20930A018093F3
:10086000530190935401A0935501B0935601809188
:10087000060190910701A0910801B091090101962C
:10088000A11DB11D8093060190930701A09308015B
:10089000B0930901BF91AF919F918F913F912F919B
:1008A0000F900FBE0F901F90189526E8230F029609
:1008B000A11DB11DD2CF1F920F920FB60F9211241E
:1008C0002F933F934F935F936F937F938F939F9358
:1008D000AF93BF93EF93FF93E0910201F091030177
:1008E0000995FF91EF91BF91AF919F918F917F916A
:1008F0006F915F914F913F912F910F900FBE0F908D
:100900001F9018951F920F920FB60F9211242F93DC
:100910003F934F935F936F937F938F939F93AF9387
:10092000BF93EF93FF93E0910001F09101010995CE
:10093000FF91EF91BF91AF919F918F917F916F91B7
:100940005F914F913F912F910F900FBE0F901F908D
:1009500018951F920F920FB60F9211248F938091CA
:1009600005018F5F8093050180910401809105014D
:1009700081110AC0809104011092B2008F910F90F2
:100980000FBE0F901F901895809104018091050172
:100990008823A1F380910401809104018F5F8093EB
:1009A0000401109205011092B20080910401882385
:1009B00039F080910401893018F480910401DECF70
:1009C000809104018930D0F210920401D7CF78943D
:1009D00084B5826084BD84B5816084BD85B5826044
:1009E00085BD85B5816085BD80916E0081608093F5
:1009F0006E0010928100809181008260809381005E
:100A0000809181008160809381008091800081606D
:100A1000809380008091B10084608093B1008091C8
:100A2000B00081608093B00080917A0084608093F0
:100A30007A0080917A00826080937A0080917A00B7
:100A4000816080937A0080917A00806880937A0038
:100A50001092C10090E080E00E94C60880936C0173
:100A600081E090E00E94C60880936D0180916C0146
:100A700090916D01019641F481E090E090936D01B9
:100A800080936C010E948801CBE0D1E003E211E089
:100A900061E088810E94B70061E089810E94B7000F
:100AA00061E08A810E94B70026960C171D0781F726
:100AB000412C55245394C0E06C2EC0E07C2ED0E035
:100AC000AD2ED0E0BD2E10E0C12E10E0D12E00E002
:100AD000802E00E0902E80913B018823F1F02FB70B
:100AE000F8948091530190915401A0915501B091D7
:100AF00056012FBF40913C0150913D0160913E0154
:100B000070913F01841B950BA60BB70B4597A10570
:100B1000B10518F080E00E9402048091250188232D
:100B2000A9F1F89488E0E1E3F1E0A4E6B1E00190F6
:100B30000D928A95E1F710922501789480916401D5
:100B4000E82FF0E0EA59FE4F863018F411928F5FDB
:100B5000FBCF20E030E0232B21F084E691E00E94DF
:100B60000000809166018111D1C0909167019111BF
:100B7000CDC08114910411F00E94000080913B01CE
:100B8000882309F4BFC081E00E9406012FB7F894C2
:100B90008091530190915401A0915501B09156015B
:100BA0002FBF40916001509161016091620170918D
:100BB00063018C019D01041B150B260B370BB9013A
:100BC000A801423351056105710578F180936001F8
:100BD00090936101A0936201B093630186E48093D6
:100BE0007C0080917A00806480937A0080917A0002
:100BF00086FDFCCF909178008091790020915E0174
:100C0000892798278927843F914008F08CC22111B9
:100C10000AC080915F01882309F482C210925F01AB
:100C200082E080935C0110925E0180915C018330D0
:100C300019F491E090935C0190915C01923011F471
:100C400010925C01823019F481E080935B012FB730
:100C5000F8948091530190915401A0915501B09165
:100C600056012FBF40915701509158016091590191
:100C700070915A018C019D01041B150B260B370B3B
:100C8000B901A801483E53406105710508F432C01E
:100C90008093570190935801A0935901B0935A0142
:100CA00080915B0161E0882311F1E4EAF0E0849136
:100CB000E0E9F0E0D491ECE7F0E0C49170E060E0AE
:100CC000CC2399F081110E948E00EC2FF0E0EE0F02
:100CD000FF1FEE58FF4FA591B491EC91DE2391E0F8
:100CE00080E009F490E0692F782FF1E06F2780E031
:100CF0000E94B70080E090E0892B09F4ECCE0E94BE
:100D00000000D6CE81E00E94020440CF90913B01CA
:100D1000992309F489C08057803108F082C081E0AE
:100D20000E940601C091640180914201C8130AC06B
:100D30004C2F50E064E471E086E691E00E940A09DD
:100D4000892B61F01092410188E0E4E6F1E0A2E431
:100D5000B1E001900D928A95E1F718CF80914101A1
:100D60008F5F80934101C33009F043C090916601C9
:100D7000892F877010916701853049F410934001E5
:100D8000C114D10409F402CF0E940000FFCECDE1CE
:100D9000D0E0843089F0282F30E08430E8F4C0912E
:100DA0004001CC23C9F0C150DD0BCC0FDD1FCC0FAF
:100DB000DD1FC20FD31F219693FF10C061E0CE014B
:100DC0000E944701882309F4E1CE612FCE010E94E1
:100DD000DC011813DBCED4CFE901EDCF60E0CE010A
:100DE0000E944701882309F4D1CECE010E942E0231
:100DF000F0CFC43009F0CACE80916601682F70E050
:100E0000762F66276627737090916701692B6F5F55
:100E10007F4F27E830E0409168018C700E943602D5
:100E2000B5CE80E00E940204E0916601EF3F59F4E4
:100E3000809167018111AACEA114B10409F4A6CE54
:100E40000E940000A3CEE7FD0DC000916901209132
:100E500068014091670170E060E08E2F90E00E9491
:100E6000F40294CEE03C08F04AC19091390197FF1A
:100E70008DCE80916701282F30E0E901C095D09593
:100E8000CC0FDD1FCC0FDD1FC07CD170EF73CE2BDC
:100E900035952795422F4370342E209164012530DB
:100EA00031F58C788C3019F50E94A4028C179D07BF
:100EB00021F0CF3FD14009F069CEC0916701D0E069
:100EC000DC2FCC27CC27D37080916801C80FD11DAF
:100ED00021961091690161E0CE010E944701612FC6
:100EE000882309F453CECE010E94DC014FCE7E014F
:100EF000E1E0EE1AF108EE0CFF1CEE0CFF1CE328FB
:100F000087010F5F1F4F809151018823E9F096FF01
:100F10003FC0C801B2010E94DC08682F81E090E068
:100F20000E94DC01C80117FF02C081509F4F692F4A
:100F300089E090E00E94DC016114710419F0C8019D
:100F40000E940000109251018091390180FD39C04A
:100F500080916401843009F04EC0809167018978E6
:100F6000813009F013CE80E090E0892B29F0609168
:100F70006801C8010E940000E0E0F0E0EF2B09F4F6
:100F800005CE40916801632DC8010E940000FECD8E
:100F9000BE016F73772781E090E00E94DC01BE0103
:100FA00046E0759567954A95E1F789E090E00E94E3
:100FB000DC0120E030E0232B29F2CE010E9400006A
:100FC000C1CF86FF0CC00E94A4028017910709F4CC
:100FD000BFCF0D3F37E013070CF0BACFD7CD0E943B
:100FE000A4028C179D0709F4B3CFCF3F41E0D4078B
:100FF00009F4AECFCBCD833041F540916701F42F9A
:10100000F170EF2E43FBFF24F0F820E030E0232BBB
:1010100031F047702F2DBE01C8010E940000809161
:10102000390186FF06C04F2D6E2DC8010E94A70111
:10103000ADCD80E090E0892B09F4A8CD2F2D4E2D69
:10104000632DCE010E940000A1CD863009F09ECD17
:1010500080916701982F9978913021F08F788038AE
:1010600009F094CD8091390186FF25C00E94A40229
:1010700080179107E1F48091680190E0382F2227D2
:1010800022273370C0916901C20FD32FD11D219641
:1010900010916A0195958795959587958370992705
:1010A0008230910589F0039709F415CF6FCD0D3F7C
:1010B00017400CF76BCD0E94A4028C179D07D9F244
:1010C000CF3FD140C1F262CD14FF60CD61E0CE01CF
:1010D0000E944701882309F459CDCE010E942E02B7
:1010E000912F977061E070E001C0660F9A95EAF762
:1010F00013FF02C0682BF7CE60956823F4CEE83E5C
:1011000008F044CDE05CFF0B8091670100916A011B
:10111000209169014091680161E070E09E2F9FCEAF
:1011200010925C0180CD222351F080915F018111EA
:101130000AC081E080935F0183E080935C0181E0DD
:1011400080935E0172CD81E0F8CFECE5F1E0128290
:1011500013828FEF8183EBE0F1E083E0808384E012
:10116000818385E0828386E0868387E0878388E0C9
:1011700080878DE0848783E185878CE0868789E09E
:10118000828B8AE0838B8BE0848B0895F999FECF64
:1011900092BD81BDF89A992780B50895262FF999B7
:1011A000FECF1FBA92BD81BD20BD0FB6F894FA9A4A
:1011B000F99A0FBE0196089597FB072E16F4009436
:1011C00007D077FD09D00E94F00807FC05D03EF457
:1011D000909581959F4F0895709561957F4F0895E3
:1011E000AA1BBB1B51E107C0AA1FBB1FA617B7074D
:1011F00010F0A61BB70B881F991F5A95A9F7809569
:101200009095BC01CD010895EE0FFF1F0590F4915C
:10121000E02D0994FB01DC0104C08D91019080193F
:1012200021F441505040C8F7881B990B0895F89459
:02123000FFCFEE
:04123200E500E500EE
:00000001FF
