:100000000C9462000C9494040C946D040C948A007B
:100010000C948A000C948A000C948A000C948A0038
:100020000C948A000C94BB040C948A000C948A00F3
:100030000C948A000C948A000C948A000C948A0018
:100040000C9423040C948A000C948A000C948A006B
:100050000C948A000C948A000C948A000C948A00F8
:100060000C948A000C948A000000000023002600F3
:10007000290000000008000201000003040700003E
:1000800000000000000000000000250028002B00F8
:1000900000000000240027002A00040404040404D3
:1000A0000404020202020202030303030303010227
:1000B00004081020408001020408102001020408F6
:1000C0001020B60811241FBECFEFD8E0DEBFCDBF91
:1000D00011E0A0E0B1E0ECE6F2E102C005900D9283
:1000E000A430B107D9F721E0A4E0B1E001C01D922E
:1000F000A238B207E1F710E0C2E6D0E004C02197D1
:10010000FE010E942109C136D107C9F70E94F904F6
:100110000C9434090C94000090E0FC01E255FF4F70
:10012000249186569F4FFC018491882399F090E09A
:10013000880F991FFC01E057FF4FA591B491FC0176
:10014000EA57FF4F859194918FB7F894EC91E22B89
:10015000EC938FBF089580E090E0892B11F00C9410
:1001600000000895833081F028F4813099F08230C6
:10017000A9F008958730A9F08830C9F08430B1F42F
:10018000809180008F7D03C0809180008F77809365
:100190008000089584B58F7784BD089584B58F7DE0
:1001A000FBCF8091B0008F778093B000089580914D
:1001B000B0008F7DF9CF1F93CF93DF93282F30E0CE
:1001C000F901EE58FF4F8491F901E255FF4FD491A8
:1001D000F901E656FF4FC491CC23A9F0162F8111E7
:1001E0000E94B200EC2FF0E0EE0FFF1FEA57FF4F26
:1001F000A591B4918FB7F894EC91111108C0D095E6
:10020000DE23DC938FBFDF91CF911F910895DE2B0A
:10021000F8CF2FB7F89460910B0170910C01809189
:100220000D0190910E012FBF08950895CF93C82F0F
:1002300080E090E0892B51F0809127018C1731F0FC
:1002400081E0C11101C080E00E940000C09327013D
:1002500060E070E0CB01C1110E94090160932801A8
:100260007093290180932A0190932B0180E090E004
:10027000892B59F0809127018C1739F081E0C11149
:1002800001C080E0CF910C940000CF9108951F939E
:10029000CF93DF93EC01162F80E090E0892B91F053
:1002A000C830D10579F4662319F10E94000080E07E
:1002B00090E0892BB9F0612FCE01DF91CF911F9192
:1002C0000C94000080E090E0892BA9F781E0C11533
:1002D00094E0D90708F080E0111105C0DF91CF91BB
:1002E0001F91089581E027972297C0F780E0F6CF0D
:1002F00080E090E0892BF9F681E0F0CF80E090E09B
:10030000892B29F080913E0183FD0C940000089513
:10031000CF93C091800190E080E00E94E308C8176D
:1003200029F06C2F90E080E00E94EB08C0918101E1
:1003300081E090E00E94E308C81729F06C2F81E06B
:1003400090E00E94EB0880E891E0CF9108950F9330
:100350001F93CF93DF934130E1F520916F0122236A
:1003600061F010926F019093810180938001DF9181
:10037000CF911F910F910C948801209180013091B1
:1003800081018217930728F1F90134968E179F0790
:1003900000F5042F162F821BC82FD0E00E94090100
:1003A0002BE02C9FF0012D9FF00D1124E15CFE4FFE
:1003B0006483758386839783028761E0112339F014
:1003C0008085DF91CF911F910F910C94DB00818587
:1003D000F8CFDF91CF911F910F9108951F93CF9385
:1003E000DF93EC01162F83319105C8F4813191051B
:1003F00028F48130910511F0099731F48FEF9FEFC8
:1004000090933C0180933B0180E090E0892BA9F020
:10041000612FCE01DF91CF911F910C9400004D9779
:1004200099F7177F10933E01809125018F73912FCB
:10043000907C892B80932501E1CFCE010E94E308B7
:100440001817C1F0612FCE010E94EB0880E090E008
:10045000892B21F0612FCE010E94000080E090E006
:10046000892B41F08091250184FD04C0612FCE01CC
:100470000E940000CE01DF91CF911F910C94E30800
:1004800020E030E0232B11F00C9400000C94E308E2
:10049000BF92CF92DF92EF92FF920F931F93CF9371
:1004A000DF938B01B42E690182FF23C083FF17C045
:1004B00061E0C8010E9447018823D9F16B2DC80172
:1004C0000E94EE018B1135C0F601DF91CF911F9193
:1004D0000F91FF90EF90DF90CF90BF90099460E074
:1004E000C8010E944701882321F1C8010E944002EF
:1004F000E9CF842F8770C1E0D0E07E0101C0EE0C0F
:100500008A95EAF7D42FD870CB010E944002C82FF9
:10051000B4FE1CC061E0C8010E944701882349F075
:10052000DD2389F0CE296C2FC8010E94EE018C17C3
:1005300059F2DF91CF911F910F91FF90EF90DF90D3
:10054000CF90BF900895E094CE21EDCF60E0C80138
:100550000E944701882369F3CE21DD2319F0C111E0
:10056000B3CFE7CFCC2309F4AFCFE3CFCF93DF9363
:1005700020913B0130913C012F3F320721F0C9010E
:10058000DF91CF91089580913E0187FF2BC086FFB8
:100590000FC089E090E00E944002C82F81E090E007
:1005A0000E9440029C2F90933C0180933B0115C018
:1005B00089E090E00E944002C82F81E090E00E9414
:1005C000400290E4C99F90011124207C31708F7308
:1005D000282B30933C0120933B0180913B0190916B
:1005E0003C01CECF85FF0CC081E190E00E9440022B
:1005F000C82F82E190E00E944002C05CDD0BD2CFA8
:1006000081E090E00E94400290E0CDCFCF92DF9257
:10061000EF92FF920F931F93CF93DF937C016B01B7
:10062000C42F122FD42FD07E8091250187FF2CC09C
:10063000D03EC1F5809126018823A1F190E00E946F
:100640004002D82F8091260190E001960E9440023E
:10065000982F8D2FE816F90629F56C2F70E0762F6C
:10066000662766277370612B6F5F7F4F2EE731E03F
:10067000402F8C2FDF91CF911F910F91FF90EF9022
:10068000DF90CF900C94480280FD36C0D03609F43C
:100690006DC088F4D03209F44BC0D03409F466C080
:1006A000DD2399F1DF91CF911F910F91FF90EF9092
:1006B000DF90CF900895D03A09F490C0B0F4D038CC
:1006C00089F780E090E02C2F2F7141E050E0892BDA
:1006D00049F3B601C701DF91CF911F910F91FF90B0
:1006E000EF90DF90CF900C940000D03C09F484C0D0
:1006F000D03E09F4B2CFD6CF0E94B6028E159F0528
:1007000029F2E114F10411F2CDCF8C2F8E7051F645
:1007100080E090E0892B31F28C2F8170DF91CF91B6
:100720001F910F91FF90EF90DF90CF900C940000FD
:10073000CF71CF3109F0B6CF80E090E0892B09F47A
:10074000B1CF412F4F7771F0413071F0111F112758
:10075000111F212F30E00FE710E0B601C7010E9402
:100760000000A0CF41E0F2CF40E0F0CF80E090E089
:10077000892BC1F02C2F30E08C2F8F71813029F024
:1007800030F0803121F08131F9F440E001C041E0E6
:1007900025FB222720F90DE110E030E0B601C7016A
:1007A0000E94000080E090E0892B09F47BCF4C2F61
:1007B000B601C701DF91CF911F910F91FF90EF908C
:1007C000DF90CF900C940000C901880F991F8E71A3
:1007D000C4FB442740F9482B4250DACF80E090E038
:1007E000892B09F45FCF2C2F2F7043E050E0C4FF1A
:1007F00070CF42E050E06DCFCF71CE3161F0CF319C
:1008000009F050CF80E090E0212F45E050E0892BA7
:1008100009F05FCF47CF80E090E0212F44E050E027
:10082000892B09F056CF3ECF0E941601E5E2F1E098
:1008300081E087831086EEE2F1E088E0DF011D921F
:100840008A95E9F708951F920F920FB60F9211241F
:100850002F933F938F939F93AF93BF9380910B01FF
:1008600090910C01A0910D01B0910E0130910A01FF
:1008700023E0230F2D3758F50196A11DB11D2093BC
:100880000A0180930B0190930C01A0930D01B0938A
:100890000E018091060190910701A0910801B0918D
:1008A00009010196A11DB11D8093060190930701D6
:1008B000A0930801B0930901BF91AF919F918F91CF
:1008C0003F912F910F900FBE0F901F90189526E823
:1008D000230F0296A11DB11DD2CF1F920F920FB60A
:1008E0000F9211242F933F934F935F936F937F93B6
:1008F0008F939F93AF93BF93EF93FF93E091020188
:10090000F09103010995FF91EF91BF91AF919F91F4
:100910008F917F916F915F914F913F912F910F90A8
:100920000FBE0F901F9018951F920F920FB60F9247
:1009300011242F933F934F935F936F937F938F93E4
:100940009F93AF93BF93EF93FF93E0910001F091DA
:1009500001010995FF91EF91BF91AF919F918F9107
:100960007F916F915F914F913F912F910F900FBEAB
:100970000F901F9018951F920F920FB60F9211248F
:100980008F93809105018F5F809305018091040111
:100990008091050181110AC0809104011092B2007A
:1009A0008F910F900FBE0F901F90189580910401AA
:1009B000809105018823A1F38091040180910401B5
:1009C0008F5F80930401109205011092B200809114
:1009D0000401882339F080910401893018F4809152
:1009E0000401DECF809104018930D0F2109204011D
:1009F000D7CF789484B5826084BD84B5816084BD8E
:100A000085B5826085BD85B5816085BD80916E00AC
:100A1000816080936E0010928100809181008260DD
:100A2000809381008091810081608093810080911A
:100A300080008160809380008091B1008460809309
:100A4000B1008091B00081608093B00080917A0005
:100A5000846080937A0080917A00826080937A002B
:100A600080917A00816080937A0080917A0080681A
:100A700080937A001092C10090E080E00E94E30829
:100A80008093800181E090E00E94E30880938101DF
:100A90008091800190918101019641F481E090E084
:100AA00090938101809380010E948801CFE3D1E07F
:100AB00088850E948C0089850E948C002B9631E0ED
:100AC000CB36D307A9F780E0682E80E0782E90E03F
:100AD000A92E90E0B92E20E0C22E20E0D22E30E0E8
:100AE000832E30E0932E809127018823B1F00E945D
:100AF0000901009128011091290120912A013091CA
:100B00002B01601B710B820B930B65317105810505
:100B1000910518F080E00E9414048091110188234F
:100B2000A9F1F89488E0EDE1F1E0A8E7B1E00190E7
:100B30000D928A95E1F710921101789480917801D5
:100B4000E82FF0E0E658FE4F863018F411928F5FE0
:100B5000FBCF80E090E0892B21F088E791E00E94B4
:100B6000000080917A018111E2C090917B01911186
:100B7000DEC08114910411F00E94000080912701D1
:100B8000882309F4D0C081E00E9416010E94090167
:100B900000917401109175012091760130917701D7
:100BA0001B012C01201A310A420A530A92018101C9
:100BB000023311052105310560F1609374017093D2
:100BC0007501809376019093770186E480937C0091
:100BD00080917A00806480937A0080917A0086FD0B
:100BE000FCCF809178009091790020917201843F30
:100BF000914008F0A9C221110AC080917301882395
:100C000009F49FC21092730182E0809370011092E8
:100C1000720180917001833019F491E0909370011A
:100C200090917001923011F410927001823019F499
:100C300081E080936F010E94090100916B01109186
:100C40006C0120916D0130916E011B012C01201A65
:100C5000310A420A530A92018101043F11402105E1
:100C6000310508F432C060936B0170936C0180937E
:100C70006D0190936E0180916F0161E0882311F105
:100C8000E2E7F0E08491EEEAF0E0C491EAE9F0E016
:100C9000D49170E060E0DD2399F081110E94B200F0
:100CA000ED2FF0E0EE0FFF1FE859FF4FA591B49133
:100CB000EC91CE2391E080E009F490E0692F782F49
:100CC000F1E06F2780E00E94DB00CFE3D1E08A856E
:100CD0008823E1F00E9409010C811D812E813F8152
:100CE000601B710B820B930B088119812A813B8158
:100CF000601771078207930748F01A8660E08885BD
:100D00000E94DB0060E089850E94DB002B9621E0D9
:100D1000CB36D207E1F680E090E0892B09F4E3CEF0
:100D20000E940000D0CE81E00E9414042FCF909149
:100D30002701992309F487C08057803108F080C0CB
:100D400081E00E941601C091780180912E01C813A4
:100D50000AC04C2F50E060E371E08AE791E00E9406
:100D60002709892B61F010922D0188E0E8E7F1E076
:100D7000AEE2B1E001900D928A95E1F707CF809144
:100D80002D018F5F80932D01C33009F041C0209168
:100D90007A01822F877010917B01853049F410937E
:100DA0002C01C114D10409F4F1CE0E940000EECE52
:100DB000CDE1D0E0843089F0C82FD0E0843060F4F9
:100DC00080912C01882341F08150990B880F991F45
:100DD000880F991FC80FD91F219623FF0EC061E00D
:100DE000CE010E944701882309F4D0CE612FCE01A5
:100DF0000E94EE011813CACED4CF60E0CE010E944B
:100E00004701882309F4C2CECE010E944002F2CFEE
:100E1000C43009F0BBCE80917A01682F70E0762F44
:100E200066276627737090917B01692B6F5F7F4FF8
:100E30002BEA30E040917C018C700E944802A6CEE3
:100E400080E00E941404E0917A01EF3F59F4809110
:100E50007B0181119BCEA114B10409F497CE0E94AD
:100E6000000094CEE7FD0DC000917D0120917C0132
:100E700040917B0170E060E08E2F90E00E940603BD
:100E800085CEE03C08F04CC19091250197FF7ECEC5
:100E900040917B01242F30E0E901C095D095CC0F23
:100EA000DD1FCC0FDD1FC07CD170EF73CE2B3595CD
:100EB0002795E22FE3703E2E80917801853031F541
:100EC0004C784C3019F50E94B6028C179D0721F022
:100ED000CF3FD14009F05ACEC0917B01D0E0DC2F4A
:100EE000CC27CC27D37080917C01C80FD11D2196CF
:100EF00010917D0161E0CE010E944701612F88239E
:100F000009F444CECE010E94EE0140CE7E0121E0E4
:100F1000E21AF108EE0CFF1CEE0CFF1CE32887011F
:100F20000F5F1F4F80913D018823F1F096FF42C073
:100F3000C80160E071E00E94F908682F81E090E04C
:100F40000E94EE01C80117FF02C081509F4F692F18
:100F500089E090E00E94EE016114710419F0C8016B
:100F60000E94000010923D018091250180FD3BC050
:100F700080917801843009F050C080917B0189789C
:100F8000813009F003CE40E0442E40E0542E452845
:100F900029F060917C01C8010E94000020E030E04F
:100FA000232B09F4F3CD40917C01632DC8010E94ED
:100FB0000000ECCDBE016F73772781E090E00E94C6
:100FC000EE01BE0156E0759567955A95E1F789E007
:100FD00090E00E94EE0180E090E0892B19F2CE01B2
:100FE0000E940000BFCF86FF0CC00E94B60280178F
:100FF000910709F4BDCF0D3F97E019070CF0B8CF6A
:10100000C5CD0E94B6028C179D0709F4B1CFCF3F22
:10101000E1E0DE0709F4ACCFB9CD833041F5409172
:101020007B01342F3170E32E43FBFF24F0F880E086
:1010300090E0892B31F047702F2DBE01C8010E942E
:1010400000008091250186FF06C04F2D6E2DC8013E
:101050000E94A7019BCDE0E0F0E0EF2B09F496CDD4
:101060002F2D4E2D632DCE010E9400008FCD863096
:1010700009F08CCD80917B01982F9978913021F0E7
:101080008F78803809F082CD8091250186FF24C0B9
:101090000E94B60280179107D9F480917C0190E0FC
:1010A000D82FCC27CC27D37020917D01C20FD11D22
:1010B000219610917E0195958795959587958370DA
:1010C00099278230910589F0039709F413CF5ECDFB
:1010D0000D3F174014F75ACD0E94B6028C179D079A
:1010E000E1F2CF3FD140C9F251CD14FF4FCD61E0C5
:1010F000CE010E944701882309F448CDCE010E9409
:101100004002912F977061E070E001C0660F9A95E0
:10111000EAF713FF02C0682BF5CE60956823F2CE84
:10112000E83E08F033CDE05CFF0B80917B0100913D
:101130007E0120917D0140917C0161E070E09E2F55
:101140009DCE1092700163CD222351F080917301E6
:1011500081110AC081E08093730183E08093700164
:1011600081E08093720155CD81E0F8CFE0E7F1E0B6
:10117000128213828FEF8183EFE3F1E083E08087B7
:1011800084E081878AEF90E0A0E0B0E080839183E3
:10119000A283B38325E0238B26E0248B8387948767
:1011A000A587B68727E0268F28E0278F868B978B29
:1011B000A08FB18F29E021A72AE022A781A392A3C3
:1011C000A3A3B4A30895F999FECF92BD81BDF89A67
:1011D000992780B50895262FF999FECF1FBA92BDA1
:1011E00081BD20BD0FB6F894FA9AF99A0FBE019608
:1011F000089597FB072E16F4009407D077FD09D0C9
:101200000E940D0907FC05D03EF4909581959F4FF3
:101210000895709561957F4F0895AA1BBB1B51E1FE
:1012200007C0AA1FBB1FA617B70710F0A61BB70B56
:10123000881F991F5A95A9F780959095BC01CD01FB
:101240000895EE0FFF1F0590F491E02D0994FB0126
:10125000DC0104C08D910190801921F4415050406F
:0C126000C8F7881B990B0895F894FFCF85
:04126C001501150152
:00000001FF
