:100000000C945D000C9482040C945B040C948500A9
:100010000C9485000C9485000C9485000C9485004C
:100020000C9485000C94A9040C9485000C94850014
:100030000C9485000C9485000C9485000C9485002C
:100040000C9411040C9485000C9485000C9485008C
:100050000C9485000C9485000C9485000C9485000C
:100060000C9485000C9485000000000025002800F9
:100070002B000000000023002600290004040404D3
:100080000404040402020202020203030303030342
:10009000010204081020408001020408102001021F
:1000A00004081020000000080002010000030407FB
:1000B0000000000000000000B50811241FBECFEFB3
:1000C000D8E0DEBFCDBF11E0A0E0B1E0E2E5F2E1B3
:1000D00002C005900D92A430B107D9F721E0A4E049
:1000E000B1E001C01D92AE36B207E1F710E0CDE5F8
:1000F000D0E004C02197FE010E941409CC35D1073D
:10010000C9F70E94E7040C9427090C94000080E0D2
:1001100090E0892B11F00C9400000895833081F059
:1001200028F4813099F08230A9F008958730A9F041
:100130008830C9F08430B1F4809180008F7D03C095
:10014000809180008F7780938000089584B58F77A9
:1001500084BD089584B58F7DFBCF8091B0008F77EB
:100160008093B00008958091B0008F7DF9CF1F93E8
:10017000CF93DF93282F30E0F901EC55FF4F8491A6
:10018000F901E057FF4FD491F901E458FF4FC491B2
:10019000CC23A9F0162F81110E948E00EC2FF0E0E5
:1001A000EE0FFF1FE859FF4FA591B4918FB7F89458
:1001B000EC91111108C0D095DE23DC938FBFDF9145
:1001C000CF911F910895DE2BF8CF08950F931F93C1
:1001D000CF93DF93EC011C811130A9F00D8110E069
:1001E000013091F000E061E088810E94B700602F4B
:1001F00089810E94B700612F8A81DF91CF911F9181
:100200000F910C94B70000E060E0EECFCF93C82FC1
:1002100080E090E0892B51F0809123018C1731F020
:1002200081E0C11101C080E00E940000C093230161
:10023000CC2331F12FB7F89480913B0190913C0190
:10024000A0913D01B0913E012FBF482F392F2A2F99
:100250008B2F409324013093250120932601809316
:10026000270180E090E0892B81F0809123018C1799
:1002700061F081E0C11101C080E0CF910C940000D9
:1002800040E030E020E080E0E4CFCF9108951F937C
:10029000CF93DF93EC01162F80E090E0892B91F053
:1002A000C830D10579F4662319F10E94000080E07E
:1002B00090E0892BB9F0612FCE01DF91CF911F9192
:1002C0000C94000080E090E0892BA9F781E0C11533
:1002D00094E0D90708F080E0111105C0DF91CF91BB
:1002E0001F91089581E027972297C0F780E0F6CF0D
:1002F00080E090E0892BF9F681E0F0CF80E090E09B
:10030000892B29F080913A0183FD0C940000089517
:10031000CF93C0916C0190E080E00E94D608C8178E
:1003200029F06C2F90E080E00E94DE08C0916D0102
:1003300081E090E00E94D608C81729F06C2F81E078
:1003400090E00E94DE088CE691E0CF910895413064
:1003500091F520915B01222341F010925B01909373
:100360006D0180936C010C94880120916C01309197
:100370006D0182179307F8F0A901485F5F4F84175A
:100380009507C8F4982F921B892F869526E0829FA7
:10039000A0011124415C5E4F289F9001112490FF21
:1003A00005C0FA016583CA010C94E600215C3E4F4A
:1003B000F9016483F8CF08951F93CF93DF93EC0185
:1003C000162F83319105C8F48131910528F48130CD
:1003D000910511F0099731F48FEF9FEF9093380159
:1003E0008093370180E090E0892BA9F0612FCE0146
:1003F000DF91CF911F910C9400004D9799F7177FD3
:1004000010933A01809121018F73912F907C892B59
:1004100080932101E1CFCE010E94D6081817C1F0C8
:10042000612FCE010E94DE0880E090E0892B21F050
:10043000612FCE010E94000080E090E0892B41F006
:100440008091210184FD04C0612FCE010E94000033
:10045000CE01DF91CF911F910C94D60820E030E0BF
:10046000232B11F00C9400000C94D608BF92CF926D
:10047000DF92EF92FF920F931F93CF93DF938B0145
:10048000B42E690182FF23C083FF17C061E0C80159
:100490000E9447018823D9F16B2DC8010E94DC011D
:1004A0008B1135C0F601DF91CF911F910F91FF9015
:1004B000EF90DF90CF90BF90099460E0C8010E9458
:1004C0004701882321F1C8010E942E02E9CF842F21
:1004D0008770C1E0D0E07E0101C0EE0C8A95EAF79A
:1004E000D42FD870CB010E942E02C82FB4FE1CC09E
:1004F00061E0C8010E944701882349F0DD2389F0AB
:10050000CE296C2FC8010E94DC018C1759F2DF91B3
:10051000CF911F910F91FF90EF90DF90CF90BF9000
:100520000895E094CE21EDCF60E0C8010E9447011C
:10053000882369F3CE21DD2319F0C111B3CFE7CFB2
:10054000CC2309F4AFCFE3CFCF93DF9320913701D2
:10055000309138012F3F320721F0C901DF91CF914F
:10056000089580913A0187FF2BC086FF0FC089E074
:1005700090E00E942E02C82F81E090E00E942E029F
:100580009C2F909338018093370115C089E090E04B
:100590000E942E02C82F81E090E00E942E0290E47B
:1005A000C99F90011124207C31708F73282B3093C8
:1005B0003801209337018091370190913801CECFD7
:1005C00085FF0CC081E190E00E942E02C82F82E1DD
:1005D00090E00E942E02C05CDD0BD2CF81E090E063
:1005E0000E942E0290E0CDCFCF92DF92EF92FF9249
:1005F0000F931F93CF93DF937C016B01C42F122FB6
:10060000D42FD07E8091210187FF2CC0D03EC1F530
:10061000809122018823A1F190E00E942E02D82F20
:100620008091220190E001960E942E02982F8D2F3A
:10063000E816F90629F56C2F70E0762F66276627F5
:100640007370612B6F5F7F4F2EE731E0402F8C2F4F
:10065000DF91CF911F910F91FF90EF90DF90CF909E
:100660000C94360280FD36C0D03609F46DC088F493
:10067000D03209F44BC0D03409F466C0DD2399F1BF
:10068000DF91CF911F910F91FF90EF90DF90CF906E
:100690000895D03A09F490C0B0F4D03889F780E0DA
:1006A00090E02C2F2F7141E050E0892B49F3B601E7
:1006B000C701DF91CF911F910F91FF90EF90DF90D5
:1006C000CF900C940000D03C09F484C0D03E09F4D3
:1006D000B2CFD6CF0E94A4028E159F0529F2E11455
:1006E000F10411F2CDCF8C2F8E7051F680E090E0A6
:1006F000892B31F28C2F8170DF91CF911F910F9157
:10070000FF90EF90DF90CF900C940000CF71CF312D
:1007100009F0B6CF80E090E0892B09F4B1CF412FEA
:100720004F7771F0413071F0111F1127111F212FE8
:1007300030E00FE710E0B601C7010E940000A0CF33
:1007400041E0F2CF40E0F0CF80E090E0892BC1F0B3
:100750002C2F30E08C2F8F71813029F030F08031D8
:1007600021F08131F9F440E001C041E025FB22276E
:1007700020F90DE110E030E0B601C7010E94000051
:1007800080E090E0892B09F47BCF4C2FB601C701A4
:10079000DF91CF911F910F91FF90EF90DF90CF905D
:1007A0000C940000C901880F991F8E71C4FB442767
:1007B00040F9482B4250DACF80E090E0892B09F4D1
:1007C0005FCF2C2F2F7043E050E0C4FF70CF42E08A
:1007D00050E06DCFCF71CE3161F0CF3109F050CF05
:1007E00080E090E0212F45E050E0892B09F05FCFB9
:1007F00047CF80E090E0212F44E050E0892B09F0C2
:1008000056CF3ECF0E940601E1E2F1E081E087830E
:100810001086EAE2F1E088E0DF011D928A95E9F7AF
:1008200008951F920F920FB60F9211242F933F93AA
:100830008F939F93AF93BF9380913B0190913C0125
:10084000A0913D01B0913E0130910A0123E0230FB8
:100850002D3758F50196A11DB11D20930A018093F3
:100860003B0190933C01A0933D01B0933E018091E8
:10087000060190910701A0910801B091090101962C
:10088000A11DB11D8093060190930701A09308015B
:10089000B0930901BF91AF919F918F913F912F919B
:1008A0000F900FBE0F901F90189526E8230F029609
:1008B000A11DB11DD2CF1F920F920FB60F9211241E
:1008C0002F933F934F935F936F937F938F939F9358
:1008D000AF93BF93EF93FF93E0910201F091030177
:1008E0000995FF91EF91BF91AF919F918F917F916A
:1008F0006F915F914F913F912F910F900FBE0F908D
:100900001F9018951F920F920FB60F9211242F93DC
:100910003F934F935F936F937F938F939F93AF9387
:10092000BF93EF93FF93E0910001F09101010995CE
:10093000FF91EF91BF91AF919F918F917F916F91B7
:100940005F914F913F912F910F900FBE0F901F908D
:1009500018951F920F920FB60F9211248F938091CA
:1009600005018F5F8093050180910401809105014D
:1009700081110AC0809104011092B2008F910F90F2
:100980000FBE0F901F901895809104018091050172
:100990008823A1F380910401809104018F5F8093EB
:1009A0000401109205011092B20080910401882385
:1009B00039F080910401893018F480910401DECF70
:1009C000809104018930D0F210920401D7CF78943D
:1009D00084B5826084BD84B5816084BD85B5826044
:1009E00085BD85B5816085BD80916E0081608093F5
:1009F0006E0010928100809181008260809381005E
:100A0000809181008160809381008091800081606D
:100A1000809380008091B10084608093B1008091C8
:100A2000B00081608093B00080917A0084608093F0
:100A30007A0080917A00826080937A0080917A00B7
:100A4000816080937A0080917A00806880937A0038
:100A50001092C10090E080E00E94D60880936C0163
:100A600081E090E00E94D60880936D0180916C0136
:100A700090916D01019641F481E090E090936D01B9
:100A800080936C010E948801CFE3D1E007E511E07B
:100A900061E088810E94B70061E089810E94B7000F
:100AA00061E08A810E94B70026960C171D0781F726
:100AB000412C55245394C0E06C2EC0E07C2ED0E035
:100AC000AD2ED0E0BD2E10E0C12E10E0D12E00E002
:100AD000802E00E0902E809123018823F1F02FB723
:100AE000F89480913B0190913C01A0913D01B0911F
:100AF0003E012FBF409124015091250160912601B4
:100B000070912701841B950BA60BB70B4597A10588
:100B1000B10518F080E00E94020480910D01882345
:100B2000A9F1F89488E0E9E1F1E0A4E6B1E00190F0
:100B30000D928A95E1F710920D01789480916401ED
:100B4000E82FF0E0EA59FE4F863018F411928F5FDB
:100B5000FBCF20E030E0232B21F084E691E00E94DF
:100B60000000809166018111E1C0909167019111AF
:100B7000DDC08114910411F00E94000080912301D6
:100B8000882309F4CFC081E00E9406012FB7F894B2
:100B900080913B0190913C01A0913D01B0913E01BB
:100BA0002FBF40916001509161016091620170918D
:100BB00063018C019D01041B150B260B370BB9013A
:100BC000A801423351056105710578F180936001F8
:100BD00090936101A0936201B093630186E48093D6
:100BE0007C0080917A00806480937A0080917A0002
:100BF00086FDFCCF909178008091790020915E0174
:100C0000892798278927843F914008F09CC22111A9
:100C10000AC080915F01882309F492C210925F019B
:100C200082E080935C0110925E0180915C018330D0
:100C300019F491E090935C0190915C01923011F471
:100C400010925C01823019F481E080935B012FB730
:100C5000F89480913B0190913C01A0913D01B091AD
:100C60003E012FBF409157015091580160915901A9
:100C700070915A018C019D01041B150B260B370B3B
:100C8000B901A801443F51406105710508F432C023
:100C90008093570190935801A0935901B0935A0142
:100CA00080915B0161E0882311F1E4EAF0E0849136
:100CB000E0E9F0E0D491ECE7F0E0C49170E060E0AE
:100CC000CC2399F081110E948E00EC2FF0E0EE0F02
:100CD000FF1FEE58FF4FA591B491EC91DE2391E0F8
:100CE00080E009F490E0692F782FF1E06F2780E031
:100CF0000E94B7008FE391E00E94E60085E491E056
:100D00000E94E6008BE491E00E94E60081E591E01C
:100D10000E94E60080E090E0892B09F4DCCE0E947E
:100D20000000C6CE81E00E94020430CF90912301E2
:100D3000992309F489C08057803108F082C081E08E
:100D40000E940601C091640180912A01C8130AC063
:100D50004C2F50E06CE271E086E691E00E941A09A7
:100D6000892B61F01092290188E0E4E6F1E0AAE223
:100D7000B1E001900D928A95E1F708CF80912901A9
:100D80008F5F80932901C33009F043C090916601C1
:100D9000892F877010916701853049F410932801DD
:100DA000C114D10409F4F2CE0E940000EFCECDE1CF
:100DB000D0E0843089F0282F30E08430E8F4C0910E
:100DC0002801CC23C9F0C150DD0BCC0FDD1FCC0FA7
:100DD000DD1FC20FD31F219693FF10C061E0CE012B
:100DE0000E944701882309F4D1CE612FCE010E94D1
:100DF000DC011813CBCED4CFE901EDCF60E0CE01FA
:100E00000E944701882309F4C1CECE010E942E0220
:100E1000F0CFC43009F0BACE80916601682F70E03F
:100E2000762F66276627737090916701692B6F5F35
:100E30007F4F27E830E0409168018C700E943602B5
:100E4000A5CE80E00E940204E0916601EF3F59F4D4
:100E50008091670181119ACEA114B10409F496CE54
:100E60000E94000093CEE7FD0DC000916901209122
:100E700068014091670170E060E08E2F90E00E9471
:100E8000F40284CEE03C08F04AC19091210197FF22
:100E90007DCE80916701282F30E0E901C095D09583
:100EA000CC0FDD1FCC0FDD1FC07CD170EF73CE2BBC
:100EB00035952795422F4370342E209164012530BB
:100EC00031F58C788C3019F50E94A4028C179D079F
:100ED00021F0CF3FD14009F059CEC0916701D0E059
:100EE000DC2FCC27CC27D37080916801C80FD11D8F
:100EF00021961091690161E0CE010E944701612FA6
:100F0000882309F443CECE010E94DC013FCE7E014E
:100F1000E1E0EE1AF108EE0CFF1CEE0CFF1CE328DA
:100F200087010F5F1F4F809139018823E9F096FFF9
:100F30003FC0C801B2010E94EC08682F81E090E038
:100F40000E94DC01C80117FF02C081509F4F692F2A
:100F500089E090E00E94DC016114710419F0C8017D
:100F60000E940000109239018091210180FD39C05A
:100F700080916401843009F04EC0809167018978C6
:100F8000813009F003CE80E090E0892B29F0609158
:100F90006801C8010E940000E0E0F0E0EF2B09F4D6
:100FA000F5CD40916801632DC8010E940000EECD8F
:100FB000BE016F73772781E090E00E94DC01BE01E3
:100FC00046E0759567954A95E1F789E090E00E94C3
:100FD000DC0120E030E0232B29F2CE010E9400004A
:100FE000C1CF86FF0CC00E94A4028017910709F4AC
:100FF000BFCF0D3F37E013070CF0BACFC7CD0E942B
:10100000A4028C179D0709F4B3CFCF3F41E0D4076A
:1010100009F4AECFBBCD833041F540916701F42F89
:10102000F170EF2E43FBFF24F0F820E030E0232B9B
:1010300031F047702F2DBE01C8010E940000809141
:10104000210186FF06C04F2D6E2DC8010E94A70109
:101050009DCD80E090E0892B09F498CD2F2D4E2D69
:10106000632DCE010E94000091CD863009F08ECD17
:1010700080916701982F9978913021F08F7880388E
:1010800009F084CD8091210186FF25C00E94A40231
:1010900080179107E1F48091680190E0382F2227B2
:1010A00022273370C0916901C20FD32FD11D219621
:1010B00010916A01959587959595879583709927E5
:1010C0008230910589F0039709F415CF5FCD0D3F6C
:1010D00017400CF75BCD0E94A4028C179D07D9F234
:1010E000CF3FD140C1F252CD14FF50CD61E0CE01CF
:1010F0000E944701882309F449CDCE010E942E02A7
:10110000912F977061E070E001C0660F9A95EAF741
:1011100013FF02C0682BF7CE60956823F4CEE83E3B
:1011200008F034CDE05CFF0B8091670100916A010B
:10113000209169014091680161E070E09E2F9FCE8F
:1011400010925C0170CD222351F080915F018111DA
:101150000AC081E080935F0183E080935C0181E0BD
:1011600080935E0162CD81E0F8CFECE5F1E0128280
:1011700013828FEF8183EFE3F1E083E0808384E0EB
:10118000818385E0828386E0868387E0878388E0A9
:1011900080878DE0848783E185878CE0868789E07E
:1011A000828B8AE0838B8BE0848B0895F999FECF44
:1011B00092BD81BDF89A992780B50895262FF99997
:1011C000FECF1FBA92BD81BD20BD0FB6F894FA9A2A
:1011D000F99A0FBE0196089597FB072E16F4009416
:1011E00007D077FD09D00E94000907FC05D03EF426
:1011F000909581959F4F0895709561957F4F0895C3
:10120000AA1BBB1B51E107C0AA1FBB1FA617B7072C
:1012100010F0A61BB70B881F991F5A95A9F7809548
:101220009095BC01CD010895EE0FFF1F0590F4913C
:10123000E02D0994FB01DC0104C08D91019080191F
:1012400021F441505040C8F7881B990B0895F89439
:02125000FFCFCE
:04125200E500E500CE
:00000001FF
