:100000000C9462000C9456040C942F040C948A00F7
:100010000C948A000C948A000C948A000C948A0038
:100020000C948A000C947D040C948A000C948A0031
:100030000C948A000C948A000C948A000C948A0018
:100040000C94E5030C948A000C948A000C948A00AA
:100050000C948A000C948A000C948A000C948A00F8
:100060000C948A000C948A000000000025002800EF
:100070002B0000000000240027002A0000000000E0
:1000800023002600290004040404040404040202DA
:100090000202020203030303030301020408102007
:1000A0004080010204081020010204081020000012
:1000B0000008000201000003040700000000000027
:1000C00000008B0811241FBECFEFD8E0DEBFCDBFEC
:1000D00011E0A0E0B1E0EEE0F2E102C005900D9287
:1000E000A430B107D9F721E0A4E0B1E001C01D922E
:1000F000A636B207E1F710E0C2E6D0E004C02197CF
:10010000FE010E94F208C136D107C9F70E94BB0464
:100110000C9405090C94000080E090E0892B11F00C
:100120000C9400000895833081F028F4813099F018
:100130008230A9F008958730A9F08830C9F0843062
:10014000B1F4809180008F7D03C0809180008F7713
:1001500080938000089584B58F7784BD089584B519
:100160008F7DFBCF8091B0008F778093B000089592
:100170008091B0008F7DF9CF1F93CF93DF93282F0D
:1001800030E0F901E255FF4F8491F901E656FF4F47
:10019000D491F901EA57FF4FC491CC23A9F0162F4F
:1001A00081110E949300EC2FF0E0EE0FFF1FE85941
:1001B000FF4FA591B4918FB7F894EC91111108C03D
:1001C000D095DE23DC938FBFDF91CF911F910895EF
:1001D000DE2BF8CF0895CF93C82F80E090E0892BD5
:1001E00051F0809123018C1731F081E0C11101C0E1
:1001F00080E00E940000C0932301CC2331F12FB78F
:10020000F89480913B0190913C01A0913D01B09107
:100210003E012FBF482F392F2A2F8B2F40932401C7
:1002200030932501209326018093270180E090E000
:10023000892B81F0809123018C1761F081E0C1113D
:1002400001C080E0CF910C94000040E030E020E05D
:1002500080E0E4CFCF9108951F93CF93DF93EC011B
:10026000162F80E090E0892B91F0C830D10579F409
:10027000662319F10E94000080E090E0892BB9F01C
:10028000612FCE01DF91CF911F910C94000080E08F
:1002900090E0892BA9F781E0C11594E0D90708F017
:1002A00080E0111105C0DF91CF911F91089581E089
:1002B00027972297C0F780E0F6CF80E090E0892B67
:1002C000F9F681E0F0CF80E090E0892B29F0809171
:1002D0003A0183FD0C9400000895CF93C09164010E
:1002E00090E080E00E94B408C81729F06C2F90E0DD
:1002F00080E00E94BC08C091650181E090E00E940E
:10030000B408C81729F06C2F81E090E00E94BC0867
:1003100084E691E0CF910895413009F52091530191
:10032000222341F010925301909365018093640160
:100330000C946D012091640130916501821793073F
:1003400070F0A901405F5F4F8417950740F4821B4E
:10035000E82FF0E0E15CFE4F80810C94BC00089532
:100360001F93CF93DF93EC01162F83319105C8F4CF
:100370008131910528F48130910511F0099731F40C
:100380008FEF9FEF909338018093370180E090E0EA
:10039000892BA9F0612FCE01DF91CF911F910C9491
:1003A00000004D9799F7177F10933A018091210132
:1003B0008F73912F907C892B80932101E1CFCE0107
:1003C0000E94B4081817C1F0612FCE010E94BC082A
:1003D00080E090E0892B21F0612FCE010E94000087
:1003E00080E090E0892B41F08091210184FD04C0E0
:1003F000612FCE010E940000CE01DF91CF911F91AD
:100400000C94B40820E030E0232B11F00C94000091
:100410000C94B408BF92CF92DF92EF92FF920F93A9
:100420001F93CF93DF938B01B42E690182FF23C00A
:1004300083FF17C061E0C8010E942C018823D9F115
:100440006B2DC8010E94B0018B1135C0F601DF9100
:10045000CF911F910F91FF90EF90DF90CF90BF90C1
:10046000099460E0C8010E942C01882321F1C80191
:100470000E940202E9CF842F8770C1E0D0E07E01A4
:1004800001C0EE0C8A95EAF7D42FD870CB010E94F8
:100490000202C82FB4FE1CC061E0C8010E942C01FA
:1004A000882349F0DD2389F0CE296C2FC8010E94F2
:1004B000B0018C1759F2DF91CF911F910F91FF90EE
:1004C000EF90DF90CF90BF900895E094CE21EDCFD4
:1004D00060E0C8010E942C01882369F3CE21DD234E
:1004E00019F0C111B3CFE7CFCC2309F4AFCFE3CFDD
:1004F000CF93DF9320913701309138012F3F32079E
:1005000021F0C901DF91CF91089580913A0187FFD1
:100510002BC086FF0FC089E090E00E940202C82F26
:1005200081E090E00E9402029C2F9093380180931A
:10053000370115C089E090E00E940202C82F81E0D7
:1005400090E00E94020290E4C99F90011124207C57
:1005500031708F73282B30933801209337018091AD
:10056000370190913801CECF85FF0CC081E190E03A
:100570000E940202C82F82E190E00E940202C05C49
:10058000DD0BD2CF81E090E00E94020290E0CDCF5F
:10059000CF92DF92EF92FF920F931F93CF93DF934F
:1005A0007C016B01C42F122FD42FD07E80912101AA
:1005B00087FF2CC0D03EC1F5809122018823A1F194
:1005C00090E00E940202D82F8091220190E00196D3
:1005D0000E940202982F8D2FE816F90629F56C2F3C
:1005E00070E0762F662766277370612B6F5F7F4FF1
:1005F00023E631E0402F8C2FDF91CF911F910F9197
:10060000FF90EF90DF90CF900C940A0280FD36C0EF
:10061000D03609F46DC088F4D03209F44BC0D03420
:1006200009F466C0DD2399F1DF91CF911F910F91FD
:10063000FF90EF90DF90CF900895D03A09F490C0EA
:10064000B0F4D03889F780E090E02C2F2F7141E092
:1006500050E0892B49F3B601C701DF91CF911F917B
:100660000F91FF90EF90DF90CF900C940000D03C62
:1006700009F484C0D03E09F4B2CFD6CF0E947802EC
:100680008E159F0529F2E114F10411F2CDCF8C2FC4
:100690008E7051F680E090E0892B31F28C2F8170C2
:1006A000DF91CF911F910F91FF90EF90DF90CF904E
:1006B0000C940000CF71CF3109F0B6CF80E090E00C
:1006C000892B09F4B1CF412F4F7771F0413071F090
:1006D000111F1127111F212F30E00FE710E0B60185
:1006E000C7010E940000A0CF41E0F2CF40E0F0CF70
:1006F00080E090E0892BC1F02C2F30E08C2F8F719F
:10070000813029F030F0803121F08131F9F440E07E
:1007100001C041E025FB222720F90DE110E030E087
:10072000B601C7010E94000080E090E0892B09F427
:100730007BCF4C2FB601C701DF91CF911F910F9155
:10074000FF90EF90DF90CF900C940000C901880FCC
:10075000991F8E71C4FB442740F9482B4250DACFD1
:1007600080E090E0892B09F45FCF2C2F2F7043E0BD
:1007700050E0C4FF70CF42E050E06DCFCF71CE317A
:1007800061F0CF3109F050CF80E090E0212F45E0BB
:1007900050E0892B09F05FCF47CF80E090E0212F18
:1007A00044E050E0892B09F056CF3ECF0E94EB0089
:1007B000E1E2F1E081E087831086EAE2F1E088E09F
:1007C000DF011D928A95E9F708951F920F920FB6E7
:1007D0000F9211242F933F938F939F93AF93BF93C7
:1007E00080913B0190913C01A0913D01B0913E016F
:1007F00030910A0123E0230F2D3758F50196A11DF2
:10080000B11D20930A0180933B0190933C01A0937A
:100810003D01B0933E018091060190910701A091A6
:100820000801B09109010196A11DB11D8093060137
:1008300090930701A0930801B0930901BF91AF9174
:100840009F918F913F912F910F900FBE0F901F900E
:10085000189526E8230F0296A11DB11DD2CF1F9235
:100860000F920FB60F9211242F933F934F935F93E4
:100870006F937F938F939F93AF93BF93EF93FF9368
:10088000E0910201F09103010995FF91EF91BF9171
:10089000AF919F918F917F916F915F914F913F9118
:1008A0002F910F900FBE0F901F9018951F920F92CF
:1008B0000FB60F9211242F933F934F935F936F9333
:1008C0007F938F939F93AF93BF93EF93FF93E091A9
:1008D0000001F09101010995FF91EF91BF91AF9156
:1008E0009F918F917F916F915F914F913F912F9148
:1008F0000F900FBE0F901F9018951F920F920FB67A
:100900000F9211248F93809105018F5F80930501D1
:10091000809104018091050181110AC08091040138
:100920001092B2008F910F900FBE0F901F901895EC
:1009300080910401809105018823A1F38091040135
:10094000809104018F5F8093040110920501109241
:10095000B20080910401882339F08091040189302C
:1009600018F480910401DECF809104018930D0F227
:1009700010920401D7CF789484B5826084BD84B589
:10098000816084BD85B5826085BD85B5816085BD8A
:1009900080916E00816080936E0010928100809142
:1009A00081008260809381008091810081608093CA
:1009B0008100809180008160809380008091B100EF
:1009C00084608093B1008091B00081608093B0001A
:1009D00080917A00846080937A0080917A008260AE
:1009E00080937A0080917A00816080937A00809170
:1009F0007A00806880937A001092C10090E080E0D5
:100A00000E94B4088093640181E090E00E94B408E1
:100A1000809365018091640190916501019641F494
:100A200081E090E090936501809364010E946D01E4
:100A3000AFE3B1E02FE431E08D9190E0FC01E656A8
:100A4000FF4F44918A579F4FFC018491882399F06E
:100A500090E0880F991FFC01EE58FF4FC591D4918B
:100A6000FC01E859FF4F859194918FB7F894E88184
:100A7000E42BE8838FBF2A173B07F1F6412C55245E
:100A80005394C0E06C2EC0E07C2ED0E0AD2ED0E0C0
:100A9000BD2E10E0C12E10E0D12E00E0802E00E02F
:100AA000902E809123018823F1F02FB7F894809144
:100AB0003B0190913C01A0913D01B0913E012FBFBF
:100AC00040912401509125016091260170912701E8
:100AD000841B950BA60BB70B4597A105B10518F024
:100AE00080E00E94D60380910D018823A9F1F8943B
:100AF00088E0E9E1F1E0ACE5B1E001900D928A9582
:100B0000E1F710920D01789480915C01E82FF0E0FC
:100B1000E25AFE4F863018F411928F5FFBCF00E04F
:100B200010E0012B21F08CE591E00E940000809103
:100B30005E018111D1C090915F019111CDC08114EE
:100B4000910411F00E94000080912301882309F490
:100B5000BFC081E00E94EB002FB7F89480913B0169
:100B600090913C01A0913D01B0913E012FBF409179
:100B700058015091590160915A0170915B018C01AB
:100B80009D01041B150B260B370BB901A80142333D
:100B900051056105710578F18093580190935901D1
:100BA000A0935A01B0935B0186E480937C0080910E
:100BB0007A00806480937A0080917A0086FDFCCF71
:100BC000909178008091790020915601892798278B
:100BD0008927843F914008F08CC221110AC080917E
:100BE0005701882309F482C21092570182E0809352
:100BF00054011092560180915401833019F491E010
:100C00009093540190915401923011F41092540138
:100C1000823019F481E0809353012FB7F8948091CA
:100C20003B0190913C01A0913D01B0913E012FBF4D
:100C300040914F01509150016091510170915201CA
:100C40008C019D01041B150B260B370BB901A80164
:100C5000443F51406105710508F432C080934F0153
:100C600090935001A0935101B09352018091530190
:100C700061E0882311F1EEEAF0E08491EAE9F0E026
:100C8000D491E6E8F0E0C49170E060E0CC2399F004
:100C900081110E949300EC2FF0E0EE0FFF1FE4584B
:100CA000FF4FA591B491EC91DE2391E080E009F42F
:100CB00090E0692F782FF1E06F2780E00E94BC0060
:100CC00080E090E0892B09F4ECCE0E940000D6CEA3
:100CD00081E00E94D60340CF90912301992309F42B
:100CE00089C08057803108F082C081E00E94EB000B
:100CF000C0915C0180912A01C8130AC04C2F50E0BA
:100D00006CE271E08EE591E00E94F808892B61F0B9
:100D10001092290188E0ECE5F1E0AAE2B1E001904F
:100D20000D928A95E1F718CF809129018F5F80930A
:100D30002901C33009F043C090915E01892F87706B
:100D400010915F01853049F410932801C114D1043A
:100D500009F402CF0E940000FFCECDE1D0E0843044
:100D600089F0282F30E08430E8F4C0912801CC23AA
:100D7000C9F0C150DD0BCC0FDD1FCC0FDD1FC20F42
:100D8000D31F219693FF10C061E0CE010E942C0179
:100D9000882309F4E1CE612FCE010E94B00118131F
:100DA000DBCED4CFE901EDCF60E0CE010E942C0173
:100DB000882309F4D1CECE010E940202F0CFC430C4
:100DC00009F0CACE80915E01682F70E0762F662709
:100DD0006627737090915F01692B6F5F7F4F2CE8DE
:100DE00030E0409160018C700E940A02B5CE80E034
:100DF0000E94D603E0915E01EF3F59F480915F01BC
:100E00008111AACEA114B10409F4A6CE0E9400005B
:100E1000A3CEE7FD0DC000916101209160014091DA
:100E20005F0170E060E08E2F90E00E94C80294CED7
:100E3000E03C08F04AC19091210197FF8DCE80914E
:100E40005F01282F30E0E901C095D095CC0FDD1F60
:100E5000CC0FDD1FC07CD170EF73CE2B359527955D
:100E6000122F1370312E20915C01253031F58C78D2
:100E70008C3019F50E9478028C179D0721F0CF3F26
:100E8000D14009F069CEC0915F01D0E0DC2FCC27C2
:100E9000CC27D37080916001C80FD11D219610918D
:100EA000610161E0CE010E942C01612F882309F4C9
:100EB00053CECE010E94B0014FCE7E0131E0E31A45
:100EC000F108EE0CFF1CEE0CFF1CE32887010F5FFE
:100ED0001F4F809139018823E9F096FF3FC0C80178
:100EE000B2010E94CA08682F81E090E00E94B00120
:100EF000C80117FF02C081509F4F692F89E090E021
:100F00000E94B0016114710419F0C8010E94000030
:100F1000109239018091210180FD39C080915C01DE
:100F2000843009F04EC080915F018978813009F0EA
:100F300013CE20E030E0232B29F060916001C8013E
:100F40000E94000080E090E0892B09F405CE4091DA
:100F50006001632DC8010E940000FECDBE016F73C9
:100F6000772781E090E00E94B001BE0146E07595D0
:100F700067954A95E1F789E090E00E94B00180E032
:100F800090E0892B29F2CE010E940000C1CF86FF9C
:100F90000CC00E9478028017910709F4BFCF0D3F63
:100FA00097E019070CF0BACFD7CD0E9478028C17C2
:100FB0009D0709F4B3CFCF3FE1E0DE0709F4AECFE0
:100FC000CBCD833041F540915F01942F9170E92E94
:100FD00043FBFF24F0F8E0E0F0E0EF2B31F0477046
:100FE0002F2DBE01C8010E9400008091210186FFC3
:100FF00006C04F2D6E2DC8010E948C01ADCD00E0C2
:1010000010E0012B09F4A8CD2F2D4E2D632DCE011C
:101010000E940000A1CD863009F09ECD80915F0135
:10102000982F9978913021F08F78803809F094CDFD
:101030008091210186FF25C00E94780280179107C8
:10104000E1F48091600190E0382F2227222733704D
:10105000C0916101C20FD32FD11D21961091620161
:1010600095958795959587958370992782309105F9
:1010700089F0039709F415CF6FCD0D3F17400CF79A
:101080006BCD0E9478028C179D07D9F2CF3FD140DB
:10109000C1F262CD14FF60CD61E0CE010E942C014F
:1010A000882309F459CDCE010E940202912F977036
:1010B00061E070E001C0660F9A95EAF713FF02C085
:1010C000682BF7CE60956823F4CEE83E08F044CD57
:1010D000E05CFF0B80915F01009162012091610152
:1010E0004091600161E070E09E2F9FCE109254010C
:1010F00080CD222351F08091570181110AC081E0F7
:101100008093570183E08093540181E080935601DE
:1011100072CD81E0F8CFE4E5F1E0128213828FEF27
:101120008183EFE3F1E08AE0808389E0818388E0D6
:10113000828387E0838386E0848385E0858384E0FF
:10114000868383E0878383E1808782E1818781E1F1
:10115000828780E183878FE084878EE085878BE0BC
:1011600086878CE087870895F999FECF92BD81BD6F
:10117000F89A992780B50895262FF999FECF1FBABE
:1011800092BD81BD20BD0FB6F894FA9AF99A0FBEB0
:101190000196089597FB072E16F4009407D077FD6B
:1011A00009D00E94DE0807FC05D03EF49095819599
:1011B0009F4F0895709561957F4F0895AA1BBB1BA3
:1011C00051E107C0AA1FBB1FA617B70710F0A61B47
:1011D000B70B881F991F5A95A9F780959095BC0168
:1011E000CD010895EE0FFF1F0590F491E02D0994B5
:1011F000FB01DC0104C08D910190801921F4415064
:0E1200005040C8F7881B990B0895F894FFCF53
:04120E00EA00EA0008
:00000001FF
