:100000000C9462000C9400030C94D9020C948A00A6
:100010000C948A000C948A000C948A000C948A0038
:100020000C948A000C94D8040C94A6040C94270316
:100030000C948A000C948A000C948A000C948A0018
:100040000C948F020C948A000C945D020C9437027D
:100050000C948A000C948A000C948A000C948A00F8
:100060000C948A000C948A000000000024002700F1
:100070002A0000000000250028002B0000000000DE
:1000800023002600290004040404040404040202DA
:100090000202020203030303030301020408102007
:1000A0004080010204081020010204081020000012
:1000B0000008000201000003040700000000000027
:1000C0000000160511241FBECFEFD8E0DEBFCDBF64
:1000D00011E0A0E0B1E0E2EAF1E102C005900D928A
:1000E000A633B107D9F722E0A6E3B1E001C01D9223
:1000F000AB38B207E1F710E0C2E6D0E004C02197C8
:10010000FE010E94AE08C136D107C9F70E94490519
:100110000C94CF080C940000FC01538D448D252FC6
:1001200030E0842F90E0821B930B541710F0CF9691
:10013000089501970895FC01918D828D981761F0C3
:10014000A28DAE0FBF2FB11D5D968C91928D9F5FDA
:100150009F73928F90E008958FEF9FEF0895FC01B9
:10016000918D828D981731F0828DE80FF11D858D6C
:1001700090E008958FEF9FEF0895FC01918D228DFF
:10018000892F90E0805C9F4F821B91098F73992784
:100190000895FC01A48DA80FB92FB11DA35ABF4F1C
:1001A0002C91848D90E001968F739927848FA68976
:1001B000B7892C93A089B1898C91837080648C93CA
:1001C000938D848D981306C00288F389E02D808179
:1001D0008F7D80830895EF92FF920F931F93CF93AB
:1001E000DF93EC0181E0888F9B8D8C8D98131AC072
:1001F000E889F989808185FF15C09FB7F894EE8959
:10020000FF896083E889F9898081837080648083B5
:100210009FBF81E090E0DF91CF911F910F91FF9000
:10022000EF900895F62E0B8D10E00F5F1F4F0F73A8
:100230001127E02E8C8D8E110CC00FB607FCFACF63
:10024000E889F989808185FFF5CFCE010E94C90038
:10025000F1CFEB8DEC0FFD2FF11DE35AFF4FF08234
:100260009FB7F8940B8FEA89FB8980818062CFCF9A
:10027000CF93DF93EC01888D8823B9F0AA89BB89DD
:10028000E889F9898C9185FD03C0808186FD0DC0C8
:100290000FB607FCF7CF8C9185FFF2CF808185FFE9
:1002A000EDCFCE010E94C900E9CFDF91CF91089533
:1002B0008AEE91E00E94BD0021E0892B09F420E044
:1002C000822F089580E090E0892B29F00E94580148
:1002D00081110C9400000895AF92BF92CF92DF92EB
:1002E000EF92FF920F931F93CF93DF936C017B01EB
:1002F0008B01040F151FEB015E01AE18BF08C0177C
:10030000D10759F06991D601ED91FC910190F081EE
:10031000E02DC6010995892B79F7C501DF91CF91B1
:100320001F910F91FF90EF90DF90CF90BF90AF9013
:100330000895833081F028F4813099F08230A9F05B
:1003400008958730A9F08830C9F08430B1F48091E5
:1003500080008F7D03C0809180008F778093800024
:10036000089584B58F7784BD089584B58F7DFBCFC4
:100370008091B0008F778093B00008958091B00095
:100380008F7DF9CF1F93CF93DF93282F30E0F901B2
:10039000E255FF4F8491F901E656FF4FD491F901E0
:1003A000EA57FF4FC491CC23A9F0162F81110E9468
:1003B0009901EC2FF0E0EE0FFF1FEE58FF4FA591D3
:1003C000B4918FB7F894EC91111108C0D095DE2349
:1003D000DC938FBFDF91CF911F910895DE2BF8CF73
:1003E0000895CF93C091E80190E080E00E949808C2
:1003F000C81729F06C2F90E080E00E94A008C091FF
:10040000E90181E090E00E949808C81729F06C2F5C
:1004100081E090E00E94A00888EE91E0CF910895DD
:10042000613021F520915401222341F010925401B2
:100430009093E9018093E8010C94F1012091E80187
:100440003091E9018217930788F0B901605F7F4F0F
:100450008617970758F4821BE82FF0E0EE0FFF1F76
:10046000EC5FFE4F642F80810C94C20108951F92AF
:100470000F920FB60F9211242F933F934F935F93D8
:100480006F937F938F939F93AF93BF93EF93FF935C
:100490008AEE91E00E94C900FF91EF91BF91AF9168
:1004A0009F918F917F916F915F914F913F912F918C
:1004B0000F900FBE0F901F9018951F920F920FB6BE
:1004C0000F9211242F938F939F93EF93FF93E091BB
:1004D000FA01F091FB018081E0910002F0910102AC
:1004E00082FD1BC09081809103028F5F8F732091EA
:1004F0000402821741F0E0910302F0E0E651FE4F62
:10050000958F80930302FF91EF919F918F912F918F
:100510000F900FBE0F901F9018958081F4CF1F92FF
:100520000F920FB60F9211242F933F938F939F93A7
:10053000AF93BF9380914C0190914D01A0914E01DA
:10054000B0914F013091450123E0230F2D3758F52D
:100550000196A11DB11D2093450180934C019093FC
:100560004D01A0934E01B0934F01809141019091B4
:100570004201A0914301B09144010196A11DB11D1A
:100580008093410190934201A0934301B0934401B1
:10059000BF91AF919F918F913F912F910F900FBE7F
:1005A0000F901F90189526E8230F0296A11DB11DEC
:1005B000D2CF1F920F920FB60F9211242F933F9319
:1005C0004F935F936F937F938F939F93AF93BF935B
:1005D000EF93FF93E0910201F09103010995FF91E0
:1005E000EF91BF91AF919F918F917F916F915F91AB
:1005F0004F913F912F910F900FBE0F901F90189524
:100600001F920F920FB60F9211242F933F934F9387
:100610005F936F937F938F939F93AF93BF93EF936A
:10062000FF93E0910001F09101010995FF91EF9195
:10063000BF91AF919F918F917F916F915F914F91FA
:100640003F912F910F900FBE0F901F9018951F9202
:100650000F920FB60F9211242F933F934F935F93F6
:100660006F938F939F93AF93BF93CF93DF93EF934A
:10067000FF9380913F019091400180549C4F909353
:10068000400180933F0180913F0190914001909300
:1006900089008093880080913E018F5F80933E01A6
:1006A000809146018430E9F580913E01893000F562
:1006B00080913D0190E09595879580933D01189B31
:1006C00005C080913D01806880933D01FF91EF91CD
:1006D000DF91CF91BF91AF919F918F916F915F917A
:1006E0004F913F912F910F900FBE0F901F90189533
:1006F000B59A80916F00806280936F00809147016E
:100700009091480118992AC0FC01E957FF4F808158
:10071000918101969183808310923E0181E08093C4
:10072000460180914601833009F043C0E0914A01BF
:10073000F0914B0180812091490133B190E0022E6C
:1007400002C0959587950A94E2F7832780FD17C02C
:1007500010923E0182E0809346012BC040913D0102
:10076000FC01E058FF4F208131E0320F3083820FCF
:10077000911DDC014C9337FFCFCF1082CDCF8091FC
:100780003E01893008F03EC030913D0181E090E0AB
:1007900001C0880F2A95EAF7908130FF31C080951B
:1007A0008923808380913D0190E095958795809382
:1007B0003D0180914601823099F480913E01811182
:1007C00094C0E0914A01F0914B01808190914901E0
:1007D00021E030E001C0220F9A95EAF7822B808356
:1007E00080914601813009F071CF80913E018111E5
:1007F000A2C0B59A80916F00806280936F0066CF2F
:10080000892BCFCF80913E01893059F4308181E02E
:1008100090E001C0880F2A95EAF7809583238083B2
:10082000C8CF80913C018F5F80933C0190913B0148
:10083000891750F510923E018091390190913A014B
:10084000A0913C01A80FB92FB11D8C9180933D015F
:10085000808141E050E001C0440F2A95EAF7842BE3
:10086000808380918400909185008A5A9C4F909358
:10087000400180933F0180913F019091400190930E
:1008800089008093880095CF81E080933801E091C2
:100890003901F0913A01409147015091480180811E
:1008A00080768036C9F4818130E020E0EA01C058CA
:1008B000DF4F2817B0F4DF01A20FB31F6C91A8819E
:1008C00091E09A0F9883A40FB52FB11D6C9397FDFB
:1008D00018822F5F3F4FEDCF8081829586708E5FAB
:1008E000E3CF10923E0181E036CF80913E018F3000
:1008F00008F476CFE0914A01F0914B0120813091CC
:10090000490181E090E001C0880F3A95EAF78095AF
:100910008223808310923E0181E080934601E09122
:100920004701F0914801E357FF4F80819181019683
:100930009183808355CF80913E01883308F4C6CEE1
:100940001092460180916F008D7F57CF1F920F92BA
:100950000FB60F9211248F939F93EF93FF93EFE6BF
:10096000F0E080818F7D8083809186009091870068
:1009700080569A4F9093400180933F0180913F01B0
:10098000909140019093890080938800B19A808172
:100990008260808384E08093460110923E01FF9143
:1009A000EF919F918F910F900FBE0F901F90189510
:1009B0001F920F920FB60F9211248F9380913701DF
:1009C0008F5F8093370180913601809137018111CB
:1009D0000AC0809136011092B2008F910F900FBE25
:1009E0000F901F90189580913601809137018823D0
:1009F000A1F380913601809136018F5F809336019B
:100A0000109237011092B20080913601882339F09C
:100A100080913601893018F480913601DECF8091C3
:100A200036018930D0F210923601D7CFEAEEF1E0EC
:100A30001382128288EE93E0A0E0B0E08483958375
:100A4000A683B78388E291E09183808385EC90E070
:100A50009587848784EC90E09787868780EC90E088
:100A6000918B808B81EC90E0938B828B82EC90E079
:100A7000958B848B86EC90E0978B868B118E128EF3
:100A8000138E148EE7E8F2E0128213828FEF8183D7
:100A90000895CF93DF9300D000D01F92CDB7DEB77B
:100AA000789484B5826084BD84B5816084BD85B549
:100AB000826085BD85B5816085BD80916E00816055
:100AC00080936E00109281008091810082608093FB
:100AD00081008091810081608093810080918000FD
:100AE0008160809380008091B10084608093B10028
:100AF0008091B00081608093B00080917A00846022
:100B000080937A0080917A00826080937A0080914D
:100B10007A00816080937A0080917A008068809367
:100B20007A001092C10090E080E00E9498088093C3
:100B3000E80181E090E00E9498088093E9018091AB
:100B4000E8019091E901019641F481E090E09093F1
:100B5000E9018093E8010E94F101E9E5F1E08FE805
:100B6000DF011D928A95E9F7EAE9F0E0249106E8B1
:100B700010E0F8018491882399F090E0880F991F84
:100B8000FC01E859FF4FA591B491FC01EE58FF4FCD
:100B9000859194918FB7F8949C91292B2C938FBFBA
:100BA000EAE9F0E05491F8018491E82FF0E0EE0FCB
:100BB000FF1FEE58FF4F2591349180E091E041E016
:100BC000591741F08F5F942F082E01C0990F0A9496
:100BD000EAF7F6CF30934B0120934A018093490105
:100BE00089E591E090934801809347012098E09136
:100BF0004A01F0914B0120813091490181E090E060
:100C000001C0880F3A95EAF780958223808310927D
:100C1000800081E08093810010924601B59A809116
:100C20006F00806280936F0080918100887F816077
:100C300080938100E0E02E2EE0E03E2EF0E04F2E8B
:100C4000F0E05F2EA0E0EA2EA0E0FA2E70E0C72EC2
:100C500070E0D72E7724739460E8B62EAA24AA9465
:100C60008091DA019091D901891709F4C3C0E82F66
:100C7000F0E0E75AFE4F608067FE6FC09091DB01A5
:100C8000891751F02091E0013091E1012F5F3F4F32
:100C90003093E1012093E0018093DB01A092DC011D
:100CA000862D80768036C9F41092DD018091DA01BC
:100CB0008F5F8093DA01E091DB01282F2E1B87FDE7
:100CC0001092DA018091DC019091DD01291709F47D
:100CD00054C068266092DC01C3CF862D8295867051
:100CE0008E5F8093DD012091DB018091DD01820F19
:100CF0009927991F81389105CCF28B2C821AF89490
:100D00004091D9018091DB01841770F5F42FF81B15
:100D10008F2F8093D90178946091DB01461738F5C5
:100D2000912C50E069E571E0C401875A9E4F0E9402
:100D3000B4086091DB0170E0675A7E4FA40189E539
:100D400091E00E94B4088091DA019091DB01891B47
:100D50008093DA011092DB01A9CF8091DD0181112E
:100D6000A5CF6092DD01BFCF882D840FD2CF461B67
:100D700050E070E0675A7E4FE2CF6812F7C0F0E0B3
:100D8000E75AFE4F2091DE013091DF012F5F3F4F88
:100D90003093DF012093DE019091DA019093DB0123
:100DA000309709F496CF7181272F30E06281462F6A
:100DB00050E0CA019695982F882797958795807857
:100DC0009770872B932BA081A23B09F0DCC022E017
:100DD00030E065FD02C021E030E050E0852E50E0BB
:100DE000952E892839F0880F991F6071820F931F03
:100DF0000E9400002FB7F89480914C0190914D0112
:100E0000A0914E01B0914F012FBF8090550190905D
:100E10005601A0905701B09058019C01AD012819CE
:100E200039094A095B09223331054105510578F139
:100E30008093550190935601A0935701B0935801A8
:100E400086E480937C0080917A00806480937A00AD
:100E500080917A0086FDFCCF909178008091790096
:100E600020918902892798278927843F914008F09B
:100E70004EC121110AC080918A02882309F444C11D
:100E800010928A0282E080938702109289028091F8
:100E90008702833011F4709287029091870292301A
:100EA00011F410928702823011F4709254012FB71E
:100EB000F89480914C0190914D01A0914E01B09118
:100EC0004F012FBF4091500150915101609152014B
:100ED000709153014C015D01841A950AA60AB70A64
:100EE00028EE821623E09206A104B10408F431C072
:100EF0008093500190935101A0935201B0935301FC
:100F00008091540161E0882309F1EEEAF0E08491D8
:100F1000EAE9F0E08490F801949070E060E09920B4
:100F200099F081110E949901E92DF0E0EE0FFF1F69
:100F3000E458FF4FA591B4918C91882291E080E014
:100F400009F490E0692F782FF1E06F2780E00E948C
:100F5000C20180E090E0892B09F47ECE0E94580106
:100F6000882309F473CE0E94000070CE2091E00126
:100F70003091E1012F5F3F4F3093E1012093E00179
:100F8000F0E0E0E009CF0196A13B89F170F4A338CD
:100F9000F9F0A03B31F1A23809F02CCF80E090E0CD
:100FA000892B09F427CF80E019C0AC3BB1F1A03DFB
:100FB000F1F1A43B09F01ECF7C3309F01BCF80E098
:100FC00090E0892B09F416CF8CE30E94000012CF29
:100FD00080E090E0892B09F40DCF81E00E940000B1
:100FE00009CF462F407260710E94100203CF66FF46
:100FF0000AC04114510409F4FDCE462F40726071BD
:101000000E940000F7CE2114310409F4F3CE462FDC
:10101000407160720E940000EDCEE114F10409F409
:10102000E9CE462F407260710E940000E3CE7076D8
:10103000703221F07036A9F17111DCCEC114D104E7
:1010400009F4D8CEC9019695982F8827979587954A
:1010500080789F70840F951FA5E035952795AA95F8
:10106000E1F7217001963381448150E03D3731F042
:1010700070E8379FF00111244E0F5F1F6F70A1F1D0
:101080006230A1F16430A1F16630A1F16830A1F1C4
:101090006A30A1F16C30A1F16E30A1F10E94000024
:1010A000A9CEB0E0AB2EB0E0BB2EAB2809F4A2CEA7
:1010B0006380862D807D803109F09CCEB4808824A9
:1010C00083949924939441E0882D862109F040E08F
:1010D0002B2D2821880C692D80E80E940000939414
:1010E00025E09212F0CF86CE61E4D8CF62E4D6CF6D
:1010F00063E4D4CF64E4D2CF65E4D0CF66E4CECF4E
:1011000067E4CCCF68E4CACF10928702BECE222318
:1011100049F080918A02811108C070928A0283E0AE
:101120008093870270928902B2CE70928702FACFC2
:10113000F999FECF92BD81BDF89A992780B508959F
:10114000262FF999FECF1FBA92BD81BD20BD0FB6E3
:10115000F894FA9AF99A0FBE01960895EE0FFF1FC0
:101160000590F491E02D09946817790768F4FB0164
:10117000DC01E40FF51FA40FB51F02C002900E9210
:1011800041505040D8F708950C94C608FB01DC018B
:1011900002C001900D9241505040D8F70895F89444
:0211A000FFCF7F
:1011A200F001F0010300040005000600070008003A
:1011B20009000A000B000C000D000E000F001000C9
:1011C2001100120000000000EB006C018C003801DD
:0611D200BD009B00AF0010
:00000001FF
