:100000000C9462000C9449030C9422030C948A0013
:100010000C948A000C948A000C948A000C948A0038
:100020000C948A000C9421050C94EF040C9470033A
:100030000C948A000C948A000C948A000C948A0018
:100040000C94D8020C948A000C94A6020C948002A2
:100050000C948A000C948A000C948A000C948A00F8
:100060000C948A000C948A000000000024002700F1
:100070002A0000000000250028002B0000000000DE
:1000800023002600290004040404040404040202DA
:100090000202020203030303030301020408102007
:1000A0004080010204081020010204081020000012
:1000B0000008000201000003040700000000000027
:1000C00000005F0511241FBECFEFD8E0DEBFCDBF1B
:1000D00011E0A0E0B1E0E4EAF2E102C005900D9287
:1000E000A631B107D9F722E0A6E1B1E001C01D9227
:1000F000A737B207E1F710E0C2E6D0E004C02197CD
:10010000FE010E942F09C136D107C9F70E94AC0534
:100110000C9450090C940000FC01538D448D252F44
:1001200030E0842F90E0821B930B541710F0CF9691
:10013000089501970895FC01918D828D981761F0C3
:10014000A28DAE0FBF2FB11D5D968C91928D9F5FDA
:100150009F73928F90E008958FEF9FEF0895FC01B9
:10016000918D828D981731F0828DE80FF11D858D6C
:1001700090E008958FEF9FEF0895FC01918D228DFF
:10018000892F90E0805C9F4F821B91098F73992784
:100190000895FC01A48DA80FB92FB11DA35ABF4F1C
:1001A0002C91848D90E001968F739927848FA68976
:1001B000B7892C93A089B1898C91837080648C93CA
:1001C000938D848D981306C00288F389E02D808179
:1001D0008F7D80830895EF92FF920F931F93CF93AB
:1001E000DF93EC0181E0888F9B8D8C8D98131AC072
:1001F000E889F989808185FF15C09FB7F894EE8959
:10020000FF896083E889F9898081837080648083B5
:100210009FBF81E090E0DF91CF911F910F91FF9000
:10022000EF900895F62E0B8D10E00F5F1F4F0F73A8
:100230001127E02E8C8D8E110CC00FB607FCFACF63
:10024000E889F989808185FFF5CFCE010E94C90038
:10025000F1CFEB8DEC0FFD2FF11DE35AFF4FF08234
:100260009FB7F8940B8FEA89FB8980818062CFCF9A
:10027000CF93DF93EC01888D8823B9F0AA89BB89DD
:10028000E889F9898C9185FD03C0808186FD0DC0C8
:100290000FB607FCF7CF8C9185FFF2CF808185FFE9
:1002A000EDCFCE010E94C900E9CFDF91CF91089533
:1002B0008AEC91E00E94BD0021E0892B09F420E046
:1002C000822F089580E090E0892B29F00E94580148
:1002D00081110C9400000895AF92BF92CF92DF92EB
:1002E000EF92FF920F931F93CF93DF936C017B01EB
:1002F0008B01040F151FEB015E01AE18BF08C0177C
:10030000D10759F06991D601ED91FC910190F081EE
:10031000E02DC6010995892B79F7C501DF91CF91B1
:100320001F910F91FF90EF90DF90CF90BF90AF9013
:100330000895833081F028F4813099F08230A9F05B
:1003400008958730A9F08830C9F08430B1F48091E5
:1003500080008F7D03C0809180008F778093800024
:10036000089584B58F7784BD089584B58F7DFBCFC4
:100370008091B0008F778093B00008958091B00095
:100380008F7DF9CF1F93CF93DF93282F30E0F901B2
:10039000E255FF4F8491F901E656FF4FD491F901E0
:1003A000EA57FF4FC491CC23A9F0162F81110E9468
:1003B0009901EC2FF0E0EE0FFF1FEE58FF4FA591D3
:1003C000B4918FB7F894EC91111108C0D095DE2349
:1003D000DC938FBFDF91CF911F910895DE2BF8CF73
:1003E00008950F931F93CF93DF93EC016230B9F020
:1003F0006330C9F0613019F421E010E000E0622FB1
:1004000088810E94C201602F89810E94C201612FF0
:100410008A81DF91CF911F910F910C94C20110E05E
:1004200001E020E0ECCF11E000E0FBCFCF93C091E2
:10043000C80190E080E00E941909C81729F06C2FCC
:1004400090E080E00E942109C091C90181E090E024
:100450000E941909C81729F06C2F81E090E00E94D2
:10046000210988EC91E0CF910895EF92FF921F93BC
:10047000CF93DF936130F1F520913401222369F0AD
:10048000109234019093C9018093C801DF91CF91FC
:100490001F91FF90EF900C9416022091C8013091AB
:1004A000C9018217930730F1B9016C5F7F4F86173E
:1004B000970700F5142F821B93E0899FE001112418
:1004C000CE0189599D4F7C01442391F063E00E9445
:1004D000F10162E0CE018C599D4F0E94F101612F24
:1004E000C701DF91CF911F91FF90EF900C94F10124
:1004F00060E0F3CFDF91CF911F91FF90EF900895CF
:100500001F920F920FB60F9211242F933F934F9388
:100510005F936F937F938F939F93AF93BF93EF936B
:10052000FF938AEC91E00E94C900FF91EF91BF9187
:10053000AF919F918F917F916F915F914F913F917B
:100540002F910F900FBE0F901F9018951F920F9232
:100550000FB60F9211242F938F939F93EF93FF93D6
:10056000E091DA01F091DB018081E091E001F0910E
:10057000E10182FD1BC090818091E3018F5F8F7349
:100580002091E401821741F0E091E301F0E0E653AD
:10059000FE4F958F8093E301FF91EF919F918F9193
:1005A0002F910F900FBE0F901F9018958081F4CF60
:1005B0001F920F920FB60F9211242F933F938F9398
:1005C0009F93AF93BF9380912C0190912D01A091A7
:1005D0002E01B0912F013091250123E0230F2D37FB
:1005E00058F50196A11DB11D2093250180932C0182
:1005F00090932D01A0932E01B0932F0180912101A2
:1006000090912201A0912301B09124010196A11D96
:10061000B11D8093210190932201A0932301B093F7
:100620002401BF91AF919F918F913F912F910F9096
:100630000FBE0F901F90189526E8230F0296A11D5C
:10064000B11DD2CF1F920F920FB60F9211242F938C
:100650003F934F935F936F937F938F939F93AF934A
:10066000BF93EF93FF93E0910201F091030109958D
:10067000FF91EF91BF91AF919F918F917F916F917A
:100680005F914F913F912F910F900FBE0F901F9050
:1006900018951F920F920FB60F9211242F933F932C
:1006A0004F935F936F937F938F939F93AF93BF937A
:1006B000EF93FF93E0910001F09101010995FF9103
:1006C000EF91BF91AF919F918F917F916F915F91CA
:1006D0004F913F912F910F900FBE0F901F90189543
:1006E0001F920F920FB60F9211242F933F934F93A7
:1006F0005F936F938F939F93AF93BF93CF93DF934A
:10070000EF93FF9380911F019091200180549C4FA3
:100710009093200180931F0180911F0190912001EF
:10072000909389008093880080911E018F5F809351
:100730001E01809126018430E9F580911E018930E7
:1007400000F580911D0190E09595879580931D019E
:10075000189B05C080911D01806880931D01FF9149
:10076000EF91DF91CF91BF91AF919F918F916F9159
:100770005F914F913F912F910F900FBE0F901F905F
:100780001895B59A80916F00806280936F00809178
:1007900027019091280118992AC0FC01E957FF4FC1
:1007A0008081918101969183808310921E0181E066
:1007B0008093260180912601833009F043C0E091A7
:1007C0002A01F0912B0180812091290133B190E021
:1007D000022E02C0959587950A94E2F7832780FD43
:1007E00017C010921E0182E0809326012BC0409119
:1007F0001D01FC01E058FF4F208131E0320F3083B2
:10080000820F911DDC014C9337FFCFCF1082CDCFEB
:1008100080911E01893008F03EC030911D0181E0B9
:1008200090E001C0880F2A95EAF7908130FF31C02F
:1008300080958923808380911D0190E0959587950F
:1008400080931D0180912601823099F480911E01D0
:10085000811194C0E0912A01F0912B018081909147
:10086000290121E030E001C0220F9A95EAF7822B9E
:10087000808380912601813009F071CF80911E0123
:100880008111A2C0B59A80916F00806280936F0041
:1008900066CF892BCFCF80911E01893059F43081EA
:1008A00081E090E001C0880F2A95EAF780958323C4
:1008B0008083C8CF80911C018F5F80931C01909131
:1008C0001B01891750F510921E018091190190911A
:1008D0001A01A0911C01A80FB92FB11D8C91809312
:1008E0001D01808141E050E001C0440F2A95EAF7E4
:1008F000842B808380918400909185008A5A9C4F3C
:100900009093200180931F0180911F0190912001FD
:10091000909389008093880095CF81E0809318019F
:10092000E0911901F0911A0140912701509128019D
:10093000808180768036C9F4818130E020E0EA0150
:10094000C058DF4F2817B0F4DF01A20FB31F6C911E
:10095000A88191E09A0F9883A40FB52FB11D6C93D5
:1009600097FD18822F5F3F4FEDCF80818295867073
:100970008E5FE3CF10921E0181E036CF80911E0181
:100980008F3008F476CFE0912A01F0912B0120817D
:100990003091290181E090E001C0880F3A95EAF793
:1009A00080958223808310921E0181E0809326012E
:1009B000E0912701F0912801E357FF4F8081918159
:1009C00001969183808355CF80911E01883308F46E
:1009D000C6CE1092260180916F008D7F57CF1F9257
:1009E0000F920FB60F9211248F939F93EF93FF9363
:1009F000EFE6F0E080818F7D80838091860090918A
:100A0000870080569A4F9093200180931F01809118
:100A10001F01909120019093890080938800B19AE2
:100A200080818260808384E08093260110921E0181
:100A3000FF91EF919F918F910F900FBE0F901F909C
:100A400018951F920F920FB60F9211248F938091D9
:100A500017018F5F80931701809116018091170114
:100A600081110AC0809116011092B2008F910F90EF
:100A70000FBE0F901F90189580911601809117015D
:100A80008823A1F380911601809116018F5F8093D6
:100A90001601109217011092B2008091160188235E
:100AA00039F080911601893018F480911601DECF5B
:100AB000809116018930D0F210921601D7CFEAEC5E
:100AC000F1E01382128288EE93E0A0E0B0E084832C
:100AD0009583A683B78388E091E09183808385EC3A
:100AE00090E09587848784EC90E09787868780ECF8
:100AF00090E0918B808B81EC90E0938B828B82ECE9
:100B000090E0958B848B86EC90E0978B868B118E92
:100B1000128E138E148EE3E7F2E0128213828FEFAF
:100B20008183E7E6F2E083E0808384E0818385E0EF
:100B3000828386E0838387E0848388E085838DE0F9
:100B4000868383E187838CE0808789E081878AE0E0
:100B500082878BE083870895CF93DF9300D000D006
:100B60001F92CDB7DEB7789484B5826084BD84B51A
:100B7000816084BD85B5826085BD85B5816085BD98
:100B800080916E00816080936E0010928100809150
:100B900081008260809381008091810081608093D8
:100BA0008100809180008160809380008091B100FD
:100BB00084608093B1008091B00081608093B00028
:100BC00080917A00846080937A0080917A008260BC
:100BD00080937A0080917A00816080937A0080917E
:100BE0007A00806880937A001092C10090E080E0E3
:100BF0000E9419098093C80181E090E00E941909C0
:100C00008093C9018091C8019091C901019641F476
:100C100081E090E09093C9018093C8010E94160280
:100C2000E9E3F1E08FE8DF011D928A95E9F7EAE94F
:100C3000F0E0249106E810E0F8018491882399F00F
:100C400090E0880F991FFC01E859FF4FA591B491DE
:100C5000FC01EE58FF4F859194918FB7F8949C91C9
:100C6000292B2C938FBFEAE9F0E05491F80184918D
:100C7000E82FF0E0EE0FFF1FEE58FF4F2591349163
:100C800080E091E041E0591741F08F5F942F082EEA
:100C900001C0990F0A94EAF7F6CF30932B01209305
:100CA0002A018093290189E391E0909328018093A0
:100CB00027012098E0912A01F0912B0120813091A9
:100CC000290181E090E001C0880F3A95EAF780950C
:100CD000822380831092800081E0809381001092B3
:100CE0002601B59A80916F00806280936F00809199
:100CF0008100887F816080938100B7E6EB2EB2E0AF
:100D0000FB2E83E7C82E82E0D82E61E0D7018C91BC
:100D10000E94C20161E0F70181810E94C20161E08D
:100D2000D70112968C910E94C201B3E0EB0EF11C28
:100D3000CE14DF0451F7E0E02E2EE0E03E2EF0E08E
:100D40004F2EF0E05F2EA0E0EA2EA0E0FA2E70E039
:100D5000C72E70E0D72E7724739460E8B62EAA24AD
:100D6000AA948091BA019091B901891709F4C3C07E
:100D7000E82FF0E0E75CFE4F608067FE6FC0909167
:100D8000BB01891751F02091C0013091C1012F5F43
:100D90003F4F3093C1012093C0018093BB01A092CB
:100DA000BC01862D80768036C9F41092BD018091F9
:100DB000BA018F5F8093BA01E091BB01282F2E1BEF
:100DC00087FD1092BA018091BC019091BD01291755
:100DD00009F454C068266092BC01C3CF862D829569
:100DE00086708E5F8093BD012091BB018091BD0113
:100DF000820F9927991F81389105CCF28B2C821A8A
:100E0000F8944091B9018091BB01841770F5E42FEB
:100E1000E81B8E2F8093B90178946091BB0146172F
:100E200038F5912C50E069E371E0C401875C9E4F76
:100E30000E9435096091BB0170E0675C7E4FA401A0
:100E400089E391E00E9435098091BA019091BB013C
:100E5000891B8093BA011092BB01A9CF8091BD017B
:100E60008111A5CF6092BD01BFCF882D840FD2CF55
:100E7000461B50E070E0675C7E4FE2CF8611F7C002
:100E8000F0E0E75CFE4F2091BE013091BF012F5F83
:100E90003F4F3093BF012093BE019091BA019093D0
:100EA000BB01309709F496CF7181272F30E0628122
:100EB000462F50E0CA019695982F882797958795D9
:100EC00080789770872B932BA081A23B09F0DCC020
:100ED00022E030E065FD02C021E030E050E0852EE8
:100EE00050E0952E892839F0880F991F6071820F84
:100EF000931F0E9400002FB7F89480912C019091CD
:100F00002D01A0912E01B0912F012FBF80903501AE
:100F100090903601A0903701B09038019C01AD014E
:100F2000281939094A095B09223331054105510560
:100F300078F18093350190933601A0933701B093F7
:100F4000380186E480937C0080917A0080648093ED
:100F50007A0080917A0086FDFCCF90917800809194
:100F6000790020917502892798278927843F91402D
:100F700008F04EC121110AC080917602882309F43D
:100F800044C11092760282E080937302109275023F
:100F900080917302833011F4709273029091730206
:100FA000923011F410927302823011F47092340175
:100FB0002FB7F89480912C0190912D01A0912E01D2
:100FC000B0912F012FBF40913001509131016091BC
:100FD0003201709133014C015D01841A950AA60A11
:100FE000B70A28EE821623E09206A104B10408F4A1
:100FF00031C08093300190933101A0933201B093BE
:1010000033018091340161E0882309F1EEEAF0E0D8
:101010008491EAE9F0E08490F801949070E060E057
:10102000992099F081110E949901E92DF0E0EE0FCD
:10103000FF1FE458FF4FA591B4918C91882291E055
:1010400080E009F490E0692F782FF1E06F2780E0CD
:101050000E94C20180E090E0892B09F47ECE0E94BC
:101060005801882309F473CE0E94000070CE2091AD
:10107000C0013091C1012F5F3F4F3093C1012093D8
:10108000C001F0E0E0E009CF0196A13B89F170F4E6
:10109000A338F9F0A03B31F1A23809F02CCF80E061
:1010A00090E0892B09F427CF80E019C0AC3BB1F167
:1010B000A03DF1F1A43B09F01ECF7C3309F01BCF1A
:1010C00080E090E0892B09F416CF8CE30E940000A9
:1010D00012CF80E090E0892B09F40DCF81E00E94CF
:1010E000000009CF462F407260710E94350203CF85
:1010F00066FF0AC04114510409F4FDCE462F407228
:1011000060710E940000F7CE2114310409F4F3CE7F
:10111000462F407160720E940000EDCEE114F10490
:1011200009F4E9CE462F407260710E940000E3CEC0
:101130007076703221F07036A9F17111DCCEC114D5
:10114000D10409F4D8CEC9019695982F8827979590
:10115000879580789F70840F951FA5E0359527951A
:10116000AA95E1F7217001963381448150E03D3723
:1011700031F070E8379FF00111244E0F5F1F6F7040
:10118000A1F16230A1F16430A1F16630A1F16830C3
:10119000A1F16A30A1F16C30A1F16E30A1F10E9491
:1011A0000000A9CEB0E0AB2EB0E0BB2EAB2809F416
:1011B000A2CE6380862D807D803109F09CCEB480E4
:1011C000882483949924939441E0882D862109F002
:1011D00040E02B2D2821880C692D80E80E9400001A
:1011E000939425E09212F0CF86CE61E4D8CF62E4EA
:1011F000D6CF63E4D4CF64E4D2CF65E4D0CF66E445
:10120000CECF67E4CCCF68E4CACF10927302BECED3
:10121000222349F080917602811108C070927602F3
:1012200083E08093730270927502B2CE7092730263
:10123000FACFF999FECF92BD81BDF89A992780B572
:101240000895262FF999FECF1FBA92BD81BD20BD0A
:101250000FB6F894FA9AF99A0FBE01960895EE0F18
:10126000FF1F0590F491E02D09946817790768F441
:10127000FB01DC01E40FF51FA40FB51F02C00290B3
:101280000E9241505040D8F708950C944709FB0145
:10129000DC0102C001900D9241505040D8F70895F2
:0412A000F894FFCFF0
:1012A400F001F00100000000EB006C018C0038013B
:0612B400BD009B00AF002D
:00000001FF
