:100000000C9462000C9402030C94DB020C948A00A2
:100010000C948A000C948A000C948A000C948A0038
:100020000C948A000C94DA040C94A8040C94290310
:100030000C948A000C948A000C948A000C948A0018
:100040000C9491020C948A000C945F020C94390277
:100050000C948A000C948A000C948A000C948A00F8
:100060000C948A000C948A000000000023002600F3
:10007000290000000008000201000003040700003E
:1000800000000000000000000000240027002A00FB
:1000900000000000250028002B00040404040404D0
:1000A0000404020202020202030303030303010227
:1000B00004081020408001020408102001020408F6
:1000C0001020460511241FBECFEFD8E0DEBFCDBF04
:1000D00011E0A0E0B1E0EEE3F3E102C005900D9283
:1000E000A631B107D9F722E0A6E1B1E001C01D9227
:1000F000A03BB207E1F710E0C2E6D0E004C02197D0
:10010000FE010E947C09C136D107C9F70E94C805CB
:100110000C949D090C940000FC01538D448D252FF7
:1001200030E0842F90E0821B930B541710F0CF9691
:10013000089501970895FC01918D828D981761F0C3
:10014000A28DAE0FBF2FB11D5D968C91928D9F5FDA
:100150009F73928F90E008958FEF9FEF0895FC01B9
:10016000918D828D981731F0828DE80FF11D858D6C
:1001700090E008958FEF9FEF0895FC01918D228DFF
:10018000892F90E0805C9F4F821B91098F73992784
:100190000895FC01A48DA80FB92FB11DA35ABF4F1C
:1001A0002C91848D90E001968F739927848FA68976
:1001B000B7892C93A089B1898C91837080648C93CA
:1001C000938D848D981306C00288F389E02D808179
:1001D0008F7D80830895EF92FF920F931F93CF93AB
:1001E000DF93EC0181E0888F9B8D8C8D98131AC072
:1001F000E889F989808185FF15C09FB7F894EE8959
:10020000FF896083E889F9898081837080648083B5
:100210009FBF81E090E0DF91CF911F910F91FF9000
:10022000EF900895F62E0B8D10E00F5F1F4F0F73A8
:100230001127E02E8C8D8E110CC00FB607FCFACF63
:10024000E889F989808185FFF5CFCE010E94C90038
:10025000F1CFEB8DEC0FFD2FF11DE35AFF4FF08234
:100260009FB7F8940B8FEA89FB8980818062CFCF9A
:10027000CF93DF93EC01888D8823B9F0AA89BB89DD
:10028000E889F9898C9185FD03C0808186FD0DC0C8
:100290000FB607FCF7CF8C9185FFF2CF808185FFE9
:1002A000EDCFCE010E94C900E9CFDF91CF91089533
:1002B0008FEC91E00E94BD0021E0892B09F420E041
:1002C000822F089580E090E0892B29F00E94580148
:1002D00081110C9400000895AF92BF92CF92DF92EB
:1002E000EF92FF920F931F93CF93DF936C017B01EB
:1002F0008B01040F151FEB015E01AE18BF08C0177C
:10030000D10759F06991D601ED91FC910190F081EE
:10031000E02DC6010995892B79F7C501DF91CF91B1
:100320001F910F91FF90EF90DF90CF90BF90AF9013
:100330000895833081F028F4813099F08230A9F05B
:1003400008958730A9F08830C9F08430B1F48091E5
:1003500080008F7D03C0809180008F778093800024
:10036000089584B58F7784BD089584B58F7DFBCFC4
:100370008091B0008F778093B00008958091B00095
:100380008F7DF9CFCF93DF93282F30E0F901EE581E
:10039000FF4F8491F901E255FF4FD491F901E656E0
:1003A000FF4FC491CC23A1F081110E949901EC2F41
:1003B000F0E0EE0FFF1FE859FF4FA591B491EC91CB
:1003C000ED2381E090E009F480E0DF91CF91089582
:1003D00080E090E0FACF1F93CF93DF93282F30E097
:1003E000F901EE58FF4F8491F901E255FF4FD49186
:1003F000F901E656FF4FC491CC23A9F0162F8111C5
:100400000E949901EC2FF0E0EE0FFF1FE057FF4F25
:10041000A591B4918FB7F894EC91111108C0D095C3
:10042000DE23DC938FBFDF91CF911F910895DE2BE8
:10043000F8CF0895CF93C091CD0190E080E00E9465
:100440006609C81729F06C2F90E080E00E946E09C1
:10045000C091CE0181E090E00E946609C81729F0A2
:100460006C2F81E090E00E946E098DEC91E0CF91BD
:1004700008951F920F920FB60F9211242F933F935E
:100480004F935F936F937F938F939F93AF93BF939C
:10049000EF93FF938FEC91E00E94C900FF91EF91E1
:1004A000BF91AF919F918F917F916F915F914F918C
:1004B0003F912F910F900FBE0F901F9018951F9294
:1004C0000F920FB60F9211242F938F939F93EF9358
:1004D000FF93E091DF01F091E0018081E091E5017F
:1004E000F091E60182FD1BC090818091E8018F5F51
:1004F0008F732091E901821741F0E091E801F0E06B
:10050000E153FE4F958F8093E801FF91EF919F910A
:100510008F912F910F900FBE0F901F901895808193
:10052000F4CF1F920F920FB60F9211242F933F9387
:100530008F939F93AF93BF9380912C0190912D0146
:10054000A0912E01B0912F013091250123E0230FBE
:100550002D3758F50196A11DB11D209325018093DB
:100560002C0190932D01A0932E01B0932F01809127
:10057000210190912201A0912301B09124010196C3
:10058000A11DB11D8093210190932201A09323010D
:10059000B0932401BF91AF919F918F913F912F9183
:1005A0000F900FBE0F901F90189526E8230F02960C
:1005B000A11DB11DD2CF1F920F920FB60F92112421
:1005C0002F933F934F935F936F937F938F939F935B
:1005D000AF93BF93EF93FF93E0910201F09103017A
:1005E0000995FF91EF91BF91AF919F918F917F916D
:1005F0006F915F914F913F912F910F900FBE0F9090
:100600001F9018951F920F920FB60F9211242F93DF
:100610003F934F935F936F937F938F939F93AF938A
:10062000BF93EF93FF93E0910001F09101010995D1
:10063000FF91EF91BF91AF919F918F917F916F91BA
:100640005F914F913F912F910F900FBE0F901F9090
:1006500018951F920F920FB60F9211242F933F936C
:100660004F935F936F938F939F93AF93BF93CF936A
:10067000DF93EF93FF9380911F01909120018054AD
:100680009C4F9093200180931F0180911F019091B6
:100690002001909389008093880080911E018F5FD4
:1006A00080931E01809126018430E9F580911E011E
:1006B000893000F580911D0190E095958795809394
:1006C0001D01189B05C080911D01806880931D014C
:1006D000FF91EF91DF91CF91BF91AF919F918F915A
:1006E0006F915F914F913F912F910F900FBE0F909F
:1006F0001F901895B59A80916F00806280936F006B
:10070000809127019091280118992AC0FC01E9578E
:10071000FF4F8081918101969183808310921E0109
:1007200081E08093260180912601833009F043C047
:10073000E0912A01F0912B0180812091290133B1B0
:1007400090E0022E02C0959587950A94E2F78327E0
:1007500080FD17C010921E0182E0809326012BC0FD
:1007600040911D01FC01E058FF4F208131E0320F24
:100770003083820F911DDC014C9337FFCFCF108265
:10078000CDCF80911E01893008F03EC030911D010F
:1007900081E090E001C0880F2A95EAF7908130FF50
:1007A00031C080958923808380911D0190E09595CB
:1007B000879580931D0180912601823099F4809164
:1007C0001E01811194C0E0912A01F0912B018081DA
:1007D0009091290121E030E001C0220F9A95EAF7BB
:1007E000822B808380912601813009F071CF809126
:1007F0001E018111A2C0B59A80916F008062809322
:100800006F0066CF892BCFCF80911E01893059F4BC
:10081000308181E090E001C0880F2A95EAF7809549
:1008200083238083C8CF80911C018F5F80931C013C
:1008300090911B01891750F510921E0180911901AA
:1008400090911A01A0911C01A80FB92FB11D8C9194
:1008500080931D01808141E050E001C0440F2A9542
:10086000EAF7842B808380918400909185008A5AD6
:100870009C4F9093200180931F0180911F019091C4
:100880002001909389008093880095CF81E0809328
:100890001801E0911901F0911A014091270150913E
:1008A0002801808180768036C9F4818130E020E0A3
:1008B000EA01C058DF4F2817B0F4DF01A20FB31FC1
:1008C0006C91A88191E09A0F9883A40FB52FB11D68
:1008D0006C9397FD18822F5F3F4FEDCF80818295FB
:1008E00086708E5FE3CF10921E0181E036CF80913B
:1008F0001E018F3008F476CFE0912A01F0912B0190
:1009000020813091290181E090E001C0880F3A9563
:10091000EAF780958223808310921E0181E0809304
:100920002601E0912701F0912801E357FF4F8081D4
:10093000918101969183808355CF80911E018833E8
:1009400008F4C6CE1092260180916F008D7F57CF9C
:100950001F920F920FB60F9211248F939F93EF93D4
:10096000FF93EFE6F0E080818F7D808380918600A9
:100970009091870080569A4F9093200180931F0199
:1009800080911F01909120019093890080938800AD
:10099000B19A80818260808384E0809326011092E6
:1009A0001E01FF91EF919F918F910F900FBE0F90BD
:1009B0001F9018951F920F920FB60F9211248F93CC
:1009C000809117018F5F80931701809116018091AC
:1009D000170181110AC0809116011092B2008F9107
:1009E0000F900FBE0F901F90189580911601809167
:1009F00017018823A1F380911601809116018F5F62
:100A000080931601109217011092B2008091160186
:100A1000882339F080911601893018F480911601ED
:100A2000DECF809116018930D0F210921601D7CF17
:100A3000CF93DF93FC011282138261836F3F19F120
:100A400070E0FB01E255FF4F249166567F4FFB019A
:100A500084918823C1F090E0880F991FFC01EA5728
:100A6000FF4FC591D491FC01E057FF4FA591B49180
:100A70009FB7F8943881822F809583238883EC91E7
:100A8000E22BEC939FBFDF91CF910895EFECF1E063
:100A90001382128288EE93E0A0E0B0E08483958315
:100AA000A683B78388E091E09183808385EC90E012
:100AB0009587848784EC90E09787868780EC90E028
:100AC000918B808B81EC90E0938B828B82EC90E019
:100AD000958B848B86EC90E0978B868B118E128E93
:100AE000138E148EECEAF2E0128213828FEF818370
:100AF00063E08CE692E00E94180567E080E792E0F0
:100B00000E9418056BE084E792E00E9418056FE0F0
:100B100088E792E00E94180564E08CE792E00E946A
:100B2000180568E080E892E00E9418056CE084E80F
:100B300092E00E94180560E188E892E00E941805A2
:100B400065E08CE892E00E94180569E080E992E097
:100B50000E9418056DE084E992E00E94180561E1A9
:100B600088E992E00E94180566E08CE992E00E9414
:100B700018056AE080EA92E00E9418056EE084EAB7
:100B800092E00E94180562E188EA92E00C94180550
:100B9000CF93DF9300D000D0CDB7DEB7789484B583
:100BA000826084BD84B5816084BD85B5826085BD69
:100BB00085B5816085BD80916E00816080936E00F7
:100BC00010928100809181008260809381008091E9
:100BD000810081608093810080918000816080939A
:100BE00080008091B10084608093B1008091B0005A
:100BF00081608093B00080917A00846080937A0055
:100C000080917A00826080937A0080917A0081607E
:100C100080937A0080917A00806880937A001092A5
:100C2000C10090E080E00E9466098093CD0181E0E0
:100C300090E00E9466098093CE018091CD01909151
:100C4000CE01019641F481E090E09093CE01809333
:100C5000CD010E941A02EEE3F1E08FE8DF011D9260
:100C60008A95E9F74EEA50E0FA0164918AE990E04A
:100C7000FC012491222399F030E0220F331FF90167
:100C8000EA57FF4FA591B491F901E057FF4F259125
:100C900034912FB7F8943C91632B6C932FBFFA01DA
:100CA0004491FC018491E82FF0E0EE0FFF1FE05724
:100CB000FF4F2591349180E091E051E0491741F0D8
:100CC0008F5F952F082E01C0990F0A94EAF7F6CF8F
:100CD00030932B0120932A01809329018EE391E028
:100CE00090932801809327012098E0912A01F091A8
:100CF0002B0120813091290181E090E001C0880F13
:100D00003A95EAF78095822380831092800081E0F3
:100D10008093810010922601B59A80916F008062C5
:100D200080936F0080918100887F81608093810033
:100D3000A0E04A2EA0E05A2E00E010E0B0E0EB2E3A
:100D4000B0E0FB2E80E0C82E80E0D82E3324339410
:100D500077247394F0E8BF2E22242A942091BF01B7
:100D60008091BE01281709F4D6C0E22FF0E0E25CC2
:100D7000FE4F608067FE6EC08091C001281749F069
:100D80008091C5019091C60101969093C601809310
:100D9000C5012093C0012092C101862D8076803646
:100DA000C9F41092C2018091BF018F5F8093BF018F
:100DB000E091C001982F9E1B87FD1092BF012091EA
:100DC000C1018091C201981709F454C06226609253
:100DD000C101C4CF862D829586708E5F8093C2013B
:100DE0002091C0018091C201820F9927991F8138FB
:100DF0009105CCF28B2C821AF8944091BE0180911F
:100E0000C001841770F5F42FF81B8F2F8093BE015B
:100E100078946091C001461738F5912C50E06EE34C
:100E200071E0C401825C9E4F0E9482096091C00102
:100E300070E0625C7E4FA4018EE391E00E94820923
:100E40008091BF019091C001891B8093BF011092D6
:100E5000C001A9CF8091C2018111A5CF6092C201CA
:100E6000BFCF882D840FD2CF461B50E070E0625C6C
:100E70007E4FE2CF621237C0F0E0E25CFE4F80911D
:100E8000C3019091C40101969093C4018093C30162
:100E90008091BF018093C001309709F497CF718191
:100EA000272F30E06281462F50E0CA019695982F97
:100EB00088279795879580789770872B932BA081AB
:100EC000A23BE9F422E030E065FD02C021E030E021
:100ED0004114510401F1880F991F6071820F931F13
:100EE0000E94000018C08091C5019091C601019632
:100EF0009093C6018093C501F0E0E0E0C9CF019670
:100F0000A13B09F433C108F00DC1A23809F427C18F
:100F1000A33809F41BC12FB7F89480912C0190914C
:100F20002D01A0912E01B0912F012FBF80903A0189
:100F300090903B01A0903C01B0903D019C01AD011F
:100F4000281939094A095B09223331054105510540
:100F500078F180933A0190933B01A0933C01B093C8
:100F60003D0186E480937C0080917A0080648093C8
:100F70007A0080917A0086FDFCCF90917800809174
:100F800079002091AE02892798278927843F9140D4
:100F900008F080C121110AC08091AF02882309F4B2
:100FA00076C11092AF0282E08093AC021092AE0242
:100FB0008091AC02833011F47092AC029091AC023B
:100FC000923011F41092AC02823011F47092390117
:100FD0002FB7F89480912C0190912D01A0912E01B2
:100FE000B0912F012FBF4091350150913601609192
:100FF0003701709138014C015D01841A950AA60AE7
:10100000B70A28EE821623E09206A104B104B8F0D4
:101010008093350190933601A0933701B093380146
:101020008091390161E0882339F080E00E94C2019B
:1010300061E0892B09F060E080E00E94EB012FB7AE
:10104000F89480912C0190912D01A0912E01B091E6
:101050002F012FBF40913101509132016091330136
:10106000709134014C015D01841A950AA60AB70AF1
:10107000A50194012E3131054105510598F1809368
:10108000310190933201A0933301B0933401609009
:10109000300134E0639E40011124F401E459FD4F16
:1010A00081810E94C20121E0009709F420E0F4014F
:1010B000E459FD4F328123130AC03381231709F409
:1010C000FCC02383892B09F4F6C083E08083F401FC
:1010D000E459FD4F228381E0860D803109F4F3C08D
:1010E00080933001E091300144E0E49FF00111244D
:1010F000DF01A459BD4F8C91833009F43C92E4592F
:10110000FD4F8081823009F4108280E090E0892BCD
:1011100009F420CE0E945801882309F417CE0E94BA
:10112000000014CEAC3BD9F1A03D09F442C0A43B71
:1011300009F0F1CE7C3309F0EECE80E090E0892B0F
:1011400009F4E9CE8CE30E940000E5CE80E090E057
:10115000892B09F4E0CE81E00E940000DCCE80E023
:1011600090E0892B09F4D7CE80E0F6CF66FF0AC065
:101170000115110509F4CFCE462F407260710E940F
:101180000000C9CE70E0872E70E0972E892809F400
:10119000C2CE462F407160720E940000BCCEE114A6
:1011A000F10409F4B8CE462F407260710E9400002D
:1011B000B2CE7076703221F07036A9F17111ABCEDB
:1011C000C114D10409F4A7CEC9019695982F882798
:1011D0009795879580789F70840F951F45E035958A
:1011E00027954A95E1F7217001963381448150E0BB
:1011F0003D3731F070E8379FF00111244E0F5F1F2B
:101200006F70A9F16230A9F16430A9F16630A9F1DB
:101210006830A9F16A30A9F16C30A9F16E30A9F1FA
:101220000E94000078CE60E0A62E60E0B62EAB28CB
:1012300009F471CE8380882D807D803109F06BCEDA
:101240002480662463949924939441E0862D882118
:1012500009F040E0262D2221660C692D80E80E94CD
:101260000000939455E0B52E9B10EFCF54CE61E46F
:10127000D7CF62E4D5CF63E4D3CF64E4D1CF65E4C4
:10128000CFCF66E4CDCF67E4CBCF68E4C9CF10926F
:10129000AC028CCE222349F08091AF02811108C0AC
:1012A0007092AF0283E08093AC027092AE0280CE67
:1012B0007092AC02FACF82E009CF892B11F0308214
:1012C00006CF108204CF109230010CCFF999FECFD7
:1012D00092BD81BDF89A992780B50895262FF99976
:1012E000FECF1FBA92BD81BD20BD0FB6F894FA9A09
:1012F000F99A0FBE01960895EE0FFF1F0590F49125
:10130000E02D09946817790768F4FB01DC01E40F0C
:10131000F51FA40FB51F02C002900E92415050401D
:10132000D8F708950C949409FB01DC0102C00190E8
:0E1330000D9241505040D8F70895F894FFCF29
:10133E001902190200000000EB006C018C0038014C
:06134E00BD009B00AF0092
:00000001FF
