:100000000C9462000C943E030C9417030C948A0029
:100010000C948A000C948A000C948A000C948A0038
:100020000C948A000C9416050C94E4040C9465035B
:100030000C948A000C948A000C948A000C948A0018
:100040000C94CD020C948A000C949B020C947502C3
:100050000C948A000C948A000C948A000C948A00F8
:100060000C948A000C948A000000000023002600F3
:10007000290000000008000201000003040700003E
:1000800000000000000000000000250028002B00F8
:1000900000000000240027002A00040404040404D3
:1000A0000404020202020202030303030303010227
:1000B00004081020408001020408102001020408F6
:1000C0001020540511241FBECFEFD8E0DEBFCDBFF6
:1000D00011E0A0E0B1E0EAEDF2E102C005900D927E
:1000E000A631B107D9F722E0A6E1B1E001C01D9227
:1000F000A739B207E1F710E0C2E6D0E004C02197CB
:10010000FE010E944A09C136D107C9F70E94AD0518
:100110000C946B090C94000090E0FC01E255FF4F39
:10012000249186569F4FFC018491882399F090E09A
:10013000880F991FFC01E057FF4FA591B491FC0176
:10014000EA57FF4F859194918FB7F894EC91E22B89
:10015000EC938FBF0895FC01538D448D252F30E023
:10016000842F90E0821B930B541710F0CF960895C4
:1001700001970895FC01918D828D981761F0A28DF1
:10018000AE0FBF2FB11D5D968C91928D9F5F9F73B7
:10019000928F90E008958FEF9FEF0895FC01918D6D
:1001A000828D981731F0828DE80FF11D858D90E0DA
:1001B00008958FEF9FEF0895FC01918D228D892F77
:1001C00090E0805C9F4F821B91098F73992708955F
:1001D000FC01A48DA80FB92FB11DA35ABF4F2C91BC
:1001E000848D90E001968F739927848FA689B789B3
:1001F0002C93A089B1898C91837080648C93938DAA
:10020000848D981306C00288F389E02D80818F7D4C
:1002100080830895EF92FF920F931F93CF93DF9304
:10022000EC0181E0888F9B8D8C8D98131AC0E88932
:10023000F989808185FF15C09FB7F894EE89FF8901
:100240006083E889F98980818370806480839FBF9F
:1002500081E090E0DF91CF911F910F91FF90EF909F
:100260000895F62E0B8D10E00F5F1F4F0F731127AF
:10027000E02E8C8D8E110CC00FB607FCFACFE889EA
:10028000F989808185FFF5CFCE010E94E800F1CF8A
:10029000EB8DEC0FFD2FF11DE35AFF4FF0829FB75E
:1002A000F8940B8FEA89FB8980818062CFCFCF934E
:1002B000DF93EC01888D8823B9F0AA89BB89E8898E
:1002C000F9898C9185FD03C0808186FD0DC00FB634
:1002D00007FCF7CF8C9185FFF2CF808185FFEDCFB2
:1002E000CE010E94E800E9CFDF91CF9108958AEC1A
:1002F00091E00E94DC0021E0892B09F420E0822FAC
:10030000089580E090E0892B29F00E947701811107
:100310000C9400000895AF92BF92CF92DF92EF92BB
:10032000FF920F931F93CF93DF936C017B018B019F
:10033000040F151FEB015E01AE18BF08C017D107EF
:1003400059F06991D601ED91FC910190F081E02D79
:10035000C6010995892B79F7C501DF91CF911F91CE
:100360000F91FF90EF90DF90CF90BF90AF900895E6
:10037000833081F028F4813099F08230A9F008951B
:100380008730A9F08830C9F08430B1F480918000C2
:100390008F7D03C0809180008F77809380000895C7
:1003A00084B58F7784BD089584B58F7DFBCF809110
:1003B000B0008F778093B00008958091B0008F7D5A
:1003C000F9CF1F93CF93DF93282F30E0F901EE5838
:1003D000FF4F8491F901E255FF4FD491F901E656A0
:1003E000FF4FC491CC23A9F0162F81110E94B801B0
:1003F000EC2FF0E0EE0FFF1FEA57FF4FA591B491ED
:100400008FB7F894EC91111108C0D095DE23DC93DE
:100410008FBFDF91CF911F910895DE2BF8CF089504
:10042000CF93C091C80190E080E00E943409C817C2
:1004300029F06C2F90E080E00E943C09C091C90136
:1004400081E090E00E943409C81729F06C2F81E008
:1004500090E00E943C0988EC91E0CF9108950F93C1
:100460001F93613009F03EC020913401222351F0E6
:10047000109234019093C9018093C8011F910F918C
:100480000C9410022091C8013091C9018217930782
:1004900048F1F90134968E179F0720F5821B90E0F2
:1004A0005FB7F89400912C0110912D0120912E013D
:1004B00030912F015FBF5BE0589FF001599FF00D15
:1004C0001124E959FD4F04831583268337836287FE
:1004D00061E0442329F080851F910F910C94E10184
:1004E0008185FACF1F910F9108951F920F920FB639
:1004F0000F9211242F933F934F935F936F937F93AA
:100500008F939F93AF93BF93EF93FF938AEC91E008
:100510000E94E800FF91EF91BF91AF919F918F9161
:100520007F916F915F914F913F912F910F900FBEEF
:100530000F901F9018951F920F920FB60F921124D3
:100540002F938F939F93EF93FF93E091DA01F091B4
:10055000DB018081E091E001F091E10182FD1BC0AF
:1005600090818091E3018F5F8F732091E401821766
:1005700041F0E091E301F0E0E653FE4F958F809368
:10058000E301FF91EF919F918F912F910F900FBEFB
:100590000F901F9018958081F4CF1F920F920FB685
:1005A0000F9211242F933F938F939F93AF93BF93F9
:1005B00080912C0190912D01A0912E01B0912F01DD
:1005C0003091250123E0230F2D3758F50196A11D09
:1005D000B11D2093250180932C0190932D01A093B0
:1005E0002E01B0932F018091210190912201A091C1
:1005F0002301B09124010196A11DB11D8093210119
:1006000090932201A0932301B0932401BF91AF9155
:100610009F918F913F912F910F900FBE0F901F9040
:10062000189526E8230F0296A11DB11DD2CF1F9267
:100630000F920FB60F9211242F933F934F935F9316
:100640006F937F938F939F93AF93BF93EF93FF939A
:10065000E0910201F09103010995FF91EF91BF91A3
:10066000AF919F918F917F916F915F914F913F914A
:100670002F910F900FBE0F901F9018951F920F9201
:100680000FB60F9211242F933F934F935F936F9365
:100690007F938F939F93AF93BF93EF93FF93E091DB
:1006A0000001F09101010995FF91EF91BF91AF9188
:1006B0009F918F917F916F915F914F913F912F917A
:1006C0000F900FBE0F901F9018951F920F920FB6AC
:1006D0000F9211242F933F934F935F936F938F93B8
:1006E0009F93AF93BF93CF93DF93EF93FF9380914B
:1006F0001F019091200180549C4F90932001809382
:100700001F0180911F019091200190938900809397
:10071000880080911E018F5F80931E0180912601C9
:100720008430E9F580911E01893000F580911D012A
:1007300090E09595879580931D01189B05C0809149
:100740001D01806880931D01FF91EF91DF91CF9192
:10075000BF91AF919F918F916F915F914F913F9119
:100760002F910F900FBE0F901F901895B59A809102
:100770006F00806280936F00809127019091280123
:1007800018992AC0FC01E957FF4F80819181019699
:100790009183808310921E0181E0809326018091D5
:1007A0002601833009F043C0E0912A01F0912B012A
:1007B00080812091290133B190E0022E02C09595ED
:1007C00087950A94E2F7832780FD17C010921E01D7
:1007D00082E0809326012BC040911D01FC01E0586E
:1007E000FF4F208131E0320F3083820F911DDC01F9
:1007F0004C9337FFCFCF1082CDCF80911E0189302F
:1008000008F03EC030911D0181E090E001C0880FEA
:100810002A95EAF7908130FF31C080958923808343
:1008200080911D0190E09595879580931D018091A1
:100830002601823099F480911E01811194C0E091CB
:100840002A01F0912B0180819091290121E030E073
:1008500001C0220F9A95EAF7822B808380912601AE
:10086000813009F071CF80911E018111A2C0B59A2B
:1008700080916F00806280936F0066CF892BCFCF0D
:1008800080911E01893059F4308181E090E001C0EF
:10089000880F2A95EAF7809583238083C8CF8091BB
:1008A0001C018F5F80931C0190911B01891750F5EB
:1008B00010921E018091190190911A01A0911C01C2
:1008C000A80FB92FB11D8C9180931D01808141E04B
:1008D00050E001C0440F2A95EAF7842B8083809171
:1008E0008400909185008A5A9C4F909320018093B8
:1008F0001F0180911F0190912001909389008093A6
:10090000880095CF81E080931801E0911901F09162
:100910001A0140912701509128018081807680360C
:10092000C9F4818130E020E0EA01C058DF4F281788
:10093000B0F4DF01A20FB31F6C91A88191E09A0F70
:100940009883A40FB52FB11D6C9397FD18822F5F6C
:100950003F4FEDCF8081829586708E5FE3CF1092FE
:100960001E0181E036CF80911E018F3008F476CFD2
:10097000E0912A01F0912B0120813091290181E041
:1009800090E001C0880F3A95EAF780958223808332
:1009900010921E0181E080932601E0912701F091E1
:1009A0002801E357FF4F80819181019691838083D5
:1009B00055CF80911E01883308F4C6CE10922601CF
:1009C00080916F008D7F57CF1F920F920FB60F92BD
:1009D00011248F939F93EF93FF93EFE6F0E08081D4
:1009E0008F7D8083809186009091870080569A4FFA
:1009F0009093200180931F0180911F01909120010D
:100A00009093890080938800B19A8081826080836E
:100A100084E08093260110921E01FF91EF919F9137
:100A20008F910F900FBE0F901F9018951F920F92ED
:100A30000FB60F9211248F93809117018F5F8093CF
:100A40001701809116018091170181110AC08091D0
:100A500016011092B2008F910F900FBE0F901F9051
:100A6000189580911601809117018823A1F3809138
:100A70001601809116018F5F809316011092170165
:100A80001092B20080911601882339F080911601EE
:100A9000893018F480911601DECF809116018930DB
:100AA000D0F210921601D7CFEAECF1E01382128255
:100AB00088EE93E0A0E0B0E084839583A683B783BB
:100AC00088E091E09183808385EC90E0958784872E
:100AD00084EC90E09787868780EC90E0918B808B08
:100AE00081EC90E0938B828B82EC90E0958B848BF1
:100AF00086EC90E0978B868B118E128E138E148E5F
:100B0000E3E9F2E0128213828FEF8183E7E6F2E0FD
:100B100083E0808784E081878AEF90E0A0E0B0E006
:100B200080839183A283B38325E0238B26E0248BEB
:100B300083879487A587B68727E0268F28E0278FAD
:100B4000868B978BA08FB18F29E021A72AE022A75F
:100B500081A392A3A3A3B4A30895CF93DF9300D05E
:100B600000D000D01F92CDB7DEB7789484B58260F4
:100B700084BD84B5816084BD85B5826085BD85B541
:100B8000816085BD80916E00816080936E001092BF
:100B9000810080918100826080938100809181003A
:100BA00081608093810080918000816080938000CB
:100BB0008091B10084608093B1008091B000816029
:100BC0008093B00080917A00846080937A00809155
:100BD0007A00826080937A0080917A0081608093AD
:100BE0007A0080917A00806880937A001092C10028
:100BF00090E080E00E9434098093C80181E090E099
:100C00000E9434098093C9018091C8019091C90163
:100C1000019641F481E090E09093C9018093C8016E
:100C20000E941002E9E3F1E08FE8DF011D928A954E
:100C3000E9F780E00E948C00EEEAF0E05491EAE9E6
:100C4000F0E08491E82FF0E0EE0FFF1FEA57FF4F2E
:100C50002591349180E091E041E0591741F08F5F98
:100C6000942F082E01C0990F0A94EAF7F6CF30931B
:100C70002B0120932A018093290189E391E090932D
:100C80002801809327012098E0912A01F0912B01FF
:100C900020813091290181E090E001C0880F3A95D0
:100CA000EAF78095822380831092800081E0809310
:100CB000810010922601B59A80916F008062809326
:100CC0006F0080918100887F81608093810027E69A
:100CD00032E03B832A83AA81BB8118968C910E94C3
:100CE0008C00EA81FB8181850E948C002A813B81F6
:100CF000255F3F4F3B832A832359324061F720E031
:100D0000222E20E0322E30E0432E30E0532E00E041
:100D100010E040E0E42E40E0F42E90E0C92E90E098
:100D2000D92E7724739480E8B82EAA24AA948091AF
:100D3000BA019091B901891709F4C0C0E82FF0E019
:100D4000E75CFE4F608067FE6FC09091BB01981713
:100D500051F02091C0013091C1012F5F3F4F30937E
:100D6000C1012093C0018093BB01A092BC01862DDC
:100D700080768036C9F41092BD018091BA018F5FF0
:100D80008093BA01E091BB01282F2E1B87FD1092A2
:100D9000BA018091BC019091BD01291709F454C09A
:100DA00068266092BC01C3CF862D829586708E5FC7
:100DB0008093BD012091BB018091BD01820F9927D5
:100DC000991F81389105CCF28B2C821AF8944091AE
:100DD000B9018091BB01841770F5542F581B852FE2
:100DE0008093B90178946091BB01461738F5912C36
:100DF00050E069E371E0C401875C9E4F0E94500996
:100E00006091BB0170E0675C7E4FA40189E391E0D3
:100E10000E9450098091BA019091BB01891B809377
:100E2000BA011092BB01A9CF8091BD018111A5CF5C
:100E30006092BD01BFCF882D840FD2CF461B50E0FA
:100E400070E0675C7E4FE2CF86112EC1F0E0E75C78
:100E5000FE4F2091BE013091BF012F5F3F4F309375
:100E6000BF012093BE019091BA019093BB013097CE
:100E700009F496CF7181272F30E06281462F50E030
:100E8000CA019695982F88279795879580789770AF
:100E9000872B932BA081A23B09F013C122E030E005
:100EA00065FD02C021E030E02114310439F0880FE3
:100EB000991F6071820F931F0E9400002FB7F89452
:100EC00080912C0190912D01A0912E01B0912F01C4
:100ED0002FBF8090350190903601A0903701B090DF
:100EE00038019C01AD01281939094A095B092233EF
:100EF00031054105510578F1809335019093360114
:100F0000A0933701B093380186E480937C008091F0
:100F10007A00806480937A0080917A0086FDFCCF0D
:100F200090917800809179002091950289279827E7
:100F30008927843F914008F086C121110AC0809121
:100F40009602882309F47CC11092960282E0809375
:100F500093021092950280919302833011F4709263
:100F6000930290919302923011F410929302823086
:100F700011F4709234012FB7F89480912C01909164
:100F80002D01A0912E01B0912F012FBF4091300172
:100F90005091310160913201709133014C015D013A
:100FA000841A950AA60AB70A24EF821621E092064F
:100FB000A104B10408F432C0809330019093310150
:100FC000A0933201B09333018091340161E0882312
:100FD00011F1E2E7F0E08491EEEAF0E08490EAE9D2
:100FE000F0E0949070E060E0992099F081110E9407
:100FF000B801E92DF0E0EE0FFF1FE859FF4FA59172
:10100000B4918C91882291E080E009F490E0692FFE
:10101000782FF1E06F2780E00E94E101B7E68B2E88
:10102000B2E09B2ED4011A968C91882341F12FB700
:10103000F89480912C0190912D01A0912E01B091F6
:101040002F012FBFF4014481558166817781841B74
:10105000950BA60BB70B4081518162817381841778
:101060009507A607B70758F0128660E080850E94B2
:10107000E10160E0D40119968C910E94E101BBE08E
:101080008B0E911CAA80BB80A814B90459F680E08D
:1010900090E0892B09F447CE0E947701882309F458
:1010A0003CCE0E94000039CE2091C0013091C10198
:1010B0002F5F3F4F3093C1012093C001F0E0E0E08B
:1010C000D2CE0196A13B89F170F4A338F9F0A03B90
:1010D00031F1A23809F0F2CE80E090E0892B09F4DA
:1010E000EDCE80E019C0AC3BB1F1A03DF1F1A43BE5
:1010F00009F0E4CE7C3309F0E1CE80E090E0892B6A
:1011000009F4DCCE8CE30E940000D8CE80E090E0B1
:10111000892B09F4D3CE81E00E940000CFCE462F68
:10112000407260710E942F02C9CE66FF0AC001158D
:10113000110509F4C3CE462F407260710E94000071
:10114000BDCE4114510409F4B9CE462F40716072EE
:101150000E940000B3CEE114F10409F4AFCE462F93
:10116000407260710E940000A9CE7076703221F04A
:101170007036A9F17111A2CEC114D10409F49ECE2A
:10118000C9019695982F88279795879580789F70A5
:10119000840F951FA5E035952795AA95E1F7217055
:1011A00001963381448150E03D3731F0A0E83A9F09
:1011B000F00111244E0F5F1F6F7091F1623091F1B9
:1011C000643091F1663091F1683091F16A3091F1BB
:1011D0006C3091F16E3091F10E9400006FCE60E0B2
:1011E00070E0672B09F46ACE6380862D807D8031A4
:1011F00009F064CEB480882483949924939441E0C8
:10120000862D882109F040E02B2D2821880C692D9E
:1012100080E80E940000939475E09712F0CF4ECEC4
:1012200061E4DACF62E4D8CF63E4D6CF64E4D4CF0C
:1012300065E4D2CF66E4D0CF67E4CECF68E4CCCF0C
:101240001092930286CE222349F08091960281115A
:1012500008C07092960283E0809393027092950288
:101260007ACE70929302FACFF999FECF92BD81BDEA
:10127000F89A992780B50895262FF999FECF1FBABD
:1012800092BD81BD20BD0FB6F894FA9AF99A0FBEAF
:1012900001960895EE0FFF1F0590F491E02D09943B
:1012A0006817790768F4FB01DC01E40FF51FA40F50
:1012B000B51F02C002900E9241505040D8F70895D9
:1012C0000C946209FB01DC0102C001900D924150B7
:0A12D0005040D8F70895F894FFCFBE
:1012DA000F020F02000000000A018B01AB00570148
:0612EA00DC00BA00CE009A
:00000001FF
