:100000000C9462000C94CA030C94A3030C948A0011
:100010000C948A000C948A000C948A000C948A0038
:100020000C948A000C94A2050C9470050C94F103B6
:100030000C948A000C948A000C948A000C948A0018
:100040000C9459030C948A000C9427030C9401031C
:100050000C948A000C948A000C948A000C948A00F8
:100060000C948A000C948A000000000024002700F1
:100070002A0000000000250028002B0000000000DE
:1000800023002600290004040404040404040202DA
:100090000202020203030303030301020408102007
:1000A0004080010204081020010204081020000012
:1000B0000008000201000003040700000000000027
:1000C00000004B0611241FBECFEFD8E0DEBFCDBF2E
:1000D00011E0A0E0B1E0E0E4F5E102C005900D928E
:1000E000A631B107D9F722E0A6E1B1E001C01D9227
:1000F000A83DB207E1F710E0C2E6D0E004C02197C6
:10010000FE010E947D0AC136D107C9F70E949506FB
:100110000C949E0A0C940000FC01538D448D252FF5
:1001200030E0842F90E0821B930B541710F0CF9691
:10013000089501970895FC01918D828D981761F0C3
:10014000A28DAE0FBF2FB11D5D968C91928D9F5FDA
:100150009F73928F90E008958FEF9FEF0895FC01B9
:10016000918D828D981731F0828DE80FF11D858D6C
:1001700090E008958FEF9FEF0895FC01918D228DFF
:10018000892F90E0805C9F4F821B91098F73992784
:100190000895FC01A48DA80FB92FB11DA35ABF4F1C
:1001A0002C91848D90E001968F739927848FA68976
:1001B000B7892C93A089B1898C91837080648C93CA
:1001C000938D848D981306C00288F389E02D808179
:1001D0008F7D80830895EF92FF920F931F93CF93AB
:1001E000DF93EC0181E0888F9B8D8C8D98131AC072
:1001F000E889F989808185FF15C09FB7F894EE8959
:10020000FF896083E889F9898081837080648083B5
:100210009FBF81E090E0DF91CF911F910F91FF9000
:10022000EF900895F62E0B8D10E00F5F1F4F0F73A8
:100230001127E02E8C8D8E110CC00FB607FCFACF63
:10024000E889F989808185FFF5CFCE010E94C90038
:10025000F1CFEB8DEC0FFD2FF11DE35AFF4FF08234
:100260009FB7F8940B8FEA89FB8980818062CFCF9A
:10027000CF93DF93EC01888D8823B9F0AA89BB89DD
:10028000E889F9898C9185FD03C0808186FD0DC0C8
:100290000FB607FCF7CF8C9185FFF2CF808185FFE9
:1002A000EDCFCE010E94C900E9CFDF91CF91089533
:1002B00087EE91E00E94BD0021E0892B09F420E047
:1002C000822F089580E090E0892B29F00E94580148
:1002D00081110C9400000895AF92BF92CF92DF92EB
:1002E000EF92FF920F931F93CF93DF936C017B01EB
:1002F0008B01040F151FEB015E01AE18BF08C0177C
:10030000D10759F06991D601ED91FC910190F081EE
:10031000E02DC6010995892B79F7C501DF91CF91B1
:100320001F910F91FF90EF90DF90CF90BF90AF9013
:100330000895833081F028F4813099F08230A9F05B
:1003400008958730A9F08830C9F08430B1F48091E5
:1003500080008F7D03C0809180008F778093800024
:10036000089584B58F7784BD089584B58F7DFBCFC4
:100370008091B0008F778093B00008958091B00095
:100380008F7DF9CF1F93CF93DF93282F30E0F901B2
:10039000E255FF4F8491F901E656FF4FD491F901E0
:1003A000EA57FF4FC491CC23A9F0162F81110E9468
:1003B0009901EC2FF0E0EE0FFF1FEE58FF4FA591D3
:1003C000B4918FB7F894EC91111108C0D095DE2349
:1003D000DC938FBFDF91CF911F910895DE2BF8CF73
:1003E000CF93DF9390E0FC01E656FF4F24918A57AC
:1003F0009F4FFC0184918823D1F090E0880F991FD2
:10040000FC01E859FF4FA591B491FC01EE58FF4F54
:10041000C591D491623071F49FB7F8943C91822FCA
:10042000809583238C93E8812E2B28839FBFDF91B7
:10043000CF9108958FB7F894EC912E2B2C938FBF0A
:10044000F6CF2FB7F8946091270170912801809121
:10045000290190912A012FBF08950F931F93CF93E5
:10046000DF93EC01062F142F8091E6018830E0F431
:100470008F5F8093E60188830E942102688B798BCD
:100480008A8B9B8B088781E0898790E59A8794E621
:100490009B879AE59C879D838D871E878F87DF9139
:1004A000CF911F910F9108951882E6CF08959FEF85
:1004B000980F9830F8F49B016136794014F020E6EB
:1004C00039E02C3192E0390714F42CE132E0285065
:1004D0003109A901440F452F441F550B90E0FC0141
:1004E000EE0FFF1FE80FF91FEF5CFE4F4183220F55
:1004F0002095228308951F93CF93DF93EC01162F4D
:1005000080911801811116C08EE380933201109200
:10051000170110921601109270001092B00082E044
:100520008093B1001092B20081E087BB809370008D
:100530008093180188818823A1F061E0812F0E94B7
:10054000F001E8818E2F90E0FC01EE0FFF1FE80F15
:10055000F91FEF5CFE4F1F716081607E612B60624E
:1005600060838881DF91CF911F910895CF93C091CF
:10057000E40190E080E00E94670AC81729F06C2F20
:1005800090E080E00E946F0AC091E50181E090E078
:100590000E94670AC81729F06C2F81E090E00E9442
:1005A0006F0A84EE91E0CF910895613049F5209172
:1005B0005001222341F0109250019093E501809365
:1005C000E4010C94B6022091E4013091E501821718
:1005D0009307B0F0B9016C5F7F4F8617970780F4DF
:1005E000821B94E1989FF0011124EC57FD4F468344
:1005F0002785222329F0608570E0CF010C947B02CF
:1006000008951F920F920FB60F9211242F933F93CC
:100610004F935F936F937F938F939F93AF93BF930A
:10062000EF93FF9387EE91E00E94C900FF91EF9155
:10063000BF91AF919F918F917F916F915F914F91FA
:100640003F912F910F900FBE0F901F9018951F9202
:100650000F920FB60F9211242F938F939F93EF93C6
:10066000FF93E091F701F091F8018081E091FD01A5
:10067000F091FE0182FD1BC09081809100028F5F8E
:100680008F7320910102821741F0E0910002F0E0A7
:10069000E951FE4F958F80930002FF91EF919F915A
:1006A0008F912F910F900FBE0F901F901895808102
:1006B000F4CF1F920F920FB60F9211242F933F93F6
:1006C0008F939F93AF93BF938091270190912801BF
:1006D000A0912901B0912A013091260123E0230F36
:1006E0002D3758F50196A11DB11D20932601809349
:1006F000270190932801A0932901B0932A018091AA
:10070000220190912301A0912401B091250101962D
:10071000A11DB11D8093220190932301A093240178
:10072000B0932501BF91AF919F918F913F912F91F0
:100730000F900FBE0F901F90189526E8230F02967A
:10074000A11DB11DD2CF1F920F920FB60F9211248F
:100750002F933F934F935F936F937F938F939F93C9
:10076000AF93BF93EF93FF93E0910201F0910301E8
:100770000995FF91EF91BF91AF919F918F917F91DB
:100780006F915F914F913F912F910F900FBE0F90FE
:100790001F9018951F920F920FB60F9211242F934E
:1007A0003F934F935F936F937F938F939F93AF93F9
:1007B000BF93EF93FF93E0910001F0910101099540
:1007C000FF91EF91BF91AF919F918F917F916F9129
:1007D0005F914F913F912F910F900FBE0F901F90FF
:1007E00018951F920F920FB60F9211242F933F93DB
:1007F0004F935F936F938F939F93AF93BF93CF93D9
:10080000DF93EF93FF938091200190912101805419
:100810009C4F909321018093200180912001909121
:100820002101909389008093880080911F018F5F40
:1008300080931F0180912B018430E9F580911F0185
:10084000893000F580911E0190E095958795809301
:100850001E01189B05C080911E01806880931E01B7
:10086000FF91EF91DF91CF91BF91AF919F918F91C8
:100870006F915F914F913F912F910F900FBE0F900D
:100880001F901895B59A80916F00806280936F00D9
:1008900080912C0190912D0118992AC0FC01E957F3
:1008A000FF4F8081918101969183808310921F0177
:1008B00081E080932B0180912B01833009F043C0AC
:1008C000E0912F01F0913001808120912E0133B110
:1008D00090E0022E02C0959587950A94E2F783274F
:1008E00080FD17C010921F0182E080932B012BC066
:1008F00040911E01FC01E058FF4F208131E0320F92
:100900003083820F911DDC014C9337FFCFCF1082D3
:10091000CDCF80911F01893008F03EC030911E017B
:1009200081E090E001C0880F2A95EAF7908130FFBE
:1009300031C080958923808380911E0190E0959538
:10094000879580931E0180912B01823099F48091CC
:100950001F01811194C0E0912F01F091300180813D
:1009600090912E0121E030E001C0220F9A95EAF724
:10097000822B808380912B01813009F071CF80918F
:100980001F018111A2C0B59A80916F00806280938F
:100990006F0066CF892BCFCF80911F01893059F42A
:1009A000308181E090E001C0880F2A95EAF78095B8
:1009B00083238083C8CF80911D018F5F80931D01A9
:1009C00090911C01891750F510921F0180911A0116
:1009D00090911B01A0911D01A80FB92FB11D8C9101
:1009E00080931E01808141E050E001C0440F2A95B0
:1009F000EAF7842B808380918400909185008A5A45
:100A00009C4F90932101809320018091200190912F
:100A10002101909389008093880095CF81E0809395
:100A20001901E0911A01F0911B0140912C015091A4
:100A30002D01808180768036C9F4818130E020E00C
:100A4000EA01C058DF4F2817B0F4DF01A20FB31F2F
:100A50006C91A88191E09A0F9883A40FB52FB11DD6
:100A60006C9397FD18822F5F3F4FEDCF8081829569
:100A700086708E5FE3CF10921F0181E036CF8091A8
:100A80001F018F3008F476CFE0912F01F0913001F3
:100A9000208130912E0181E090E001C0880F3A95CD
:100AA000EAF780958223808310921F0181E0809372
:100AB0002B01E0912C01F0912D01E357FF4F808134
:100AC000918101969183808355CF80911F01883356
:100AD00008F4C6CE10922B0180916F008D7F57CF06
:100AE0001F920F920FB60F9211248F939F93EF9343
:100AF000FF93EFE6F0E080818F7D80838091860018
:100B00009091870080569A4F909321018093200105
:100B10008091200190912101909389008093880019
:100B2000B19A80818260808384E080932B0110924F
:100B30001F01FF91EF919F918F910F900FBE0F902A
:100B40001F9018951F920F920FB60F9211242F939A
:100B50003F934F935F936F937F938F939F93AF9345
:100B6000BF93EF93FF93809116018F5F80931601DF
:100B7000E0911701209116018E2F90E0FC01EE0FFD
:100B8000FF1FE80FF91FEF5CFE4F8181E091170115
:100B900082131DC08E2F90E0FC01EE0FFF1FE80FA7
:100BA000F91FEF5CFE4F82818093B200FF91EF91BD
:100BB000BF91AF919F918F917F916F915F914F9175
:100BC0003F912F910F900FBE0F901F90189520917D
:100BD00016018E2F90E0FC01EE0FFF1FE80FF91FAA
:100BE000EF5CFE4F8181821708F7E09117018E2F8D
:100BF00090E0FC01EE0FFF1FE80FF91FEF5CFE4FC6
:100C0000808185FF10C0E09117018E2F90E0FC01DC
:100C1000EE0FFF1FE80FF91FEF5CFE4F808160E0D1
:100C20008F710E94C201809117018F5F809317011D
:100C3000109216011092B20080911701882319F1C9
:100C4000809117018930F8F4E09117018E2F90E020
:100C5000FC01EE0FFF1FE80FF91FEF5CFE4F8081D4
:100C600085FFA4CFE09117018E2F90E0FC01EE0FDD
:100C7000FF1FE80FF91FEF5CFE4F808161E08F716D
:100C80000E94C20193CF80911701893008F48ECF62
:100C9000109217018BCFE7EEF1E01382128288EEFB
:100CA00093E0A0E0B0E084839583A683B78388E0D7
:100CB00091E09183808385EC90E09587848784EC34
:100CC00090E09787868780EC90E0918B808B81EC19
:100CD00090E0938B828B82EC90E0958B848B86ECFA
:100CE00090E0978B868B118E128E138E148EE4ED0E
:100CF000F2E0128213828FEF818347E063E084E8A1
:100D000092E00E942D0248E064E088E992E00E94AF
:100D10002D0249E065E08CEA92E00E942D024AE053
:100D200066E080EC92E00C942D02CF93DF9300D02C
:100D300000D000D01F92CDB7DEB7789484B5826022
:100D400084BD84B5816084BD85B5826085BD85B56F
:100D5000816085BD80916E00816080936E001092ED
:100D60008100809181008260809381008091810068
:100D700081608093810080918000816080938000F9
:100D80008091B10084608093B1008091B000816057
:100D90008093B00080917A00846080937A00809183
:100DA0007A00826080937A0080917A0081608093DB
:100DB0007A0080917A00806880937A001092C10056
:100DC00090E080E00E94670A8093E40181E090E077
:100DD0000E94670A8093E5018091E4019091E5010A
:100DE000019641F481E090E09093E5018093E40165
:100DF0000E94B602E5E5F1E08FE8DF011D928A95D9
:100E0000E9F761E080E00E94F001EAE9F0E0549146
:100E1000E6E8F0E08491E82FF0E0EE0FFF1FEE58D7
:100E2000FF4F2591349180E091E041E0591741F066
:100E30008F5F942F082E01C0990F0A94EAF7F6CF1E
:100E40003093300120932F0180932E0185E591E0AE
:100E500090932D0180932C012098E0912F01F09127
:100E60003001208130912E0181E090E001C0880F97
:100E70003A95EAF78095822380831092800081E082
:100E80008093810010922B01B59A80916F0080624F
:100E900080936F0080918100887F816080938100C2
:100EA00004ED12E024E832E03B832A83AA81BB816F
:100EB00018968C9118978F3F71F015966C91159735
:100EC00070E08C910E945702EA81FB81608570E09E
:100ED000CF010E947B02AA81BB811D968C911D9738
:100EE000882329F061E01E968C910E94F001EA812E
:100EF000FB817496FB83EA830E171F07B9F670E037
:100F0000272E70E0372EE0E04E2EE0E05E2E00E06F
:100F100010E0F0E0EF2EF0E0FF2E60E0C62E60E083
:100F2000D62E7724739450E8B52EAA24AA94209143
:100F3000D6018091D501281709F4BEC0E22FF0E058
:100F4000EB5AFE4F608067FE6EC08091D70182171A
:100F500049F08091DC019091DD0101969093DD01D3
:100F60008093DC012093D701A092D801862D807652
:100F70008036C9F41092D9018091D6018F5F809399
:100F8000D601E091D701982F9E1B87FD1092D601C4
:100F90002091D8018091D901981709F454C0622694
:100FA0006092D801C4CF862D829586708E5F809323
:100FB000D9012091D7018091D901820F9927991FDA
:100FC00081389105CCF28B2C821AF8944091D5018E
:100FD0008091D701841770F5F42FF81B8F2F809321
:100FE000D50178946091D701461738F5912C50E0DF
:100FF00065E571E0C4018B5A9E4F0E94830A60919F
:10100000D70170E06B5A7E4FA40185E591E00E9404
:10101000830A8091D6019091D701891B8093D601D4
:101020001092D701A9CF8091D9018111A5CF6092EB
:10103000D901BFCF882D840FD2CF461B50E070E07E
:101040006B5A7E4FE2CF621253C1F0E0EB5AFE4F73
:101050008091DA019091DB0101969093DB018093FE
:10106000DA018091D6018093D701309709F497CFA8
:101070007181272F30E06281462F50E0CA0196959A
:10108000982F88279795879580789770872B932B33
:10109000A081A23B09F038C122E030E065FD02C02A
:1010A00021E030E02114310439F0880F991F60717C
:1010B000820F931F0E9400000E9421028090510124
:1010C00090905201A0905301B09054019B01AC014B
:1010D000281939094A095B092233310541055105AF
:1010E00060F160935101709352018093530190938A
:1010F000540186E480937C0080917A008064809320
:101100007A0080917A0086FDFCCF809178009091E2
:1011100079002091D602843F914008F0BCC1211192
:101120000AC08091D702882309F4B2C11092D70275
:1011300082E08093D4021092D6028091D402833050
:1011400011F47092D4029091D402923011F4109262
:10115000D402823011F4709250010E9421028090DA
:101160004C0190904D01A0904E01B0904F019B0119
:10117000AC01281939094A095B09283E3340410569
:10118000510508F432C060934C0170934D01809377
:101190004E0190934F018091500161E0882311F13D
:1011A000EEEAF0E08491EAE9F0E08490E6E8F0E02D
:1011B000949070E060E0992099F081110E9499016B
:1011C000E92DF0E0EE0FFF1FE458FF4FA591B49119
:1011D0008C91882291E080E009F490E0692F782FCB
:1011E000F1E06F2780E00E94C20184E8882E82E04F
:1011F000982E0E942102D40111962D913D914D917E
:101200005C911497261737074807590708F05AC00A
:101210000E942102F4012185620F711D811D911D23
:10122000618372838383948396818581992309F4F2
:1012300043C19385891710F48F5F8583D401159678
:101240004C91159717968C9117978417D9F117968B
:101250004C9317971B968C911B97481721F01A9661
:101260008C91481311C0F4018785813069F4208185
:1012700030E0C901880F991F820F931FFC01EF5CBA
:10128000FE4F80818F7D8083D4011D968C911D97A8
:10129000882359F01C968C911C97481708F013C1AD
:1012A00060E01E968C910E94C201D40118968C9128
:1012B00018978F3F39F015966C91159770E08C91C7
:1012C0000E945702B4E18B0E911CAA80BB808A1445
:1012D0009B0409F08ECF80E090E0892B09F423CEA7
:1012E0000E945801882309F418CE0E94000015CEF0
:1012F0008091DC019091DD0101969093DD01809356
:10130000DC01F0E0E0E0ADCE0196A13B89F170F4A4
:10131000A338F9F0A03B31F1A23809F0CDCE80E03E
:1013200090E0892B09F4C8CE80E019C0AC3BB1F144
:10133000A03DF1F1A43B09F0BFCE7C3309F0BCCE57
:1013400080E090E0892B09F4B7CE8CE30E94000086
:10135000B3CE80E090E0892B09F4AECE81E00E940C
:101360000000AACE462F407260710E94D502A4CE22
:1013700066FF0AC00115110509F49ECE462F407282
:1013800060710E94000098CE4114510409F494CE7B
:10139000462F407160720E9400008ECEE114F1046D
:1013A00009F48ACE462F407260710E94000084CEFC
:1013B0007076703221F07036B9F171117DCEC114A2
:1013C000D10409F479CEC9019695982F882797956D
:1013D000879580789F70840F951FA5E03595279598
:1013E000AA95E1F72170019633814481E42FF0E062
:1013F000AF013D3731F070E8379FA00111244E0F47
:101400005F1F6F70A9F16230A9F16430A9F16630F5
:10141000A9F16830A9F16A30A9F16C30A9F16E30F8
:10142000A9F10E94000048CE80E0882E80E0982E2E
:10143000892809F441CE6380862D807D803109F0B2
:101440003BCEB480882483949924939441E0862DE4
:10145000882109F040E02B2D2821880C692D80E897
:101460000E9400009394B5E0AB2E9A10EFCF24CEEB
:1014700061E4D7CF62E4D5CF63E4D3CF64E4D1CFC6
:1014800065E4CFCF66E4CDCF67E4CBCF68E4C9CFC6
:101490001092D40250CE222349F08091D7028111BC
:1014A00008C07092D70283E08093D4027092D60273
:1014B00044CE7092D402FACF9285981708F0BECE2F
:1014C00081508583BBCE61E0F4018685ECCEF9992D
:1014D000FECF92BD81BDF89A992780B50895262F39
:1014E000F999FECF1FBA92BD81BD20BD0FB6F89409
:1014F000FA9AF99A0FBE01960895EE0FFF1F059014
:10150000F491E02D09946817790768F4FB01DC0178
:10151000E40FF51FA40FB51F02C002900E924150B8
:101520005040D8F708950C94950AFB01DC0102C0E5
:1015300001900D9241505040D8F70895F894FFCF94
:101540005602560200000000EB006C018C003801CE
:06155000BD009B00AF008E
:00000001FF
