:100000000C9462000C94D9020C94B2020C948A00F5
:100010000C948A000C948A000C948A000C948A0038
:100020000C948A000C948A030C948A000C948A0025
:100030000C948A000C948A000C948A000C948A0018
:100040000C9468020C948A000C9400030C948A00AF
:100050000C9460030C948A000C948A000C948A001F
:100060000C948A000C948A000000000025002800EF
:100070002B0000000000240027002A0000000000E0
:1000800023002600290004040404040404040202DA
:100090000202020203030303030301020408102007
:1000A0004080010204081020010204081020000012
:1000B0000008000201000003040700000000000027
:1000C0000000DE0A11241FBECFEFD8E0DEBFCDBF97
:1000D00011E0A0E0B1E0E6EFF6E102C005900D927C
:1000E000A033B107D9F722E0A0E3B1E001C01D922F
:1000F000A230B207E1F710E0C2E6D0E004C02197D9
:10010000FE010E94730BC136D107C9F70E94C803D4
:100110000C94790B0C9400002091FB01EBE0E29F22
:10012000D0011124AE53BE4F6C932E9FF0011124C9
:1001300050E040E0DC013D91CD01DA01AE0FBF1F80
:10014000AD53BE4F3C934F5F5F4F461798F32F5F01
:10015000253018F42093FB0108951092FB010895B7
:100160008F77982F20E041E0992329F024273FEF53
:10017000390F9323F9CF211180680895CF93DF932E
:1001800000D000D0CDB7DEB78091630181110EC0E1
:1001900081E68A8382E88B8383EE8C838091810160
:1001A000898364E0CE0101960E948C000F900F902D
:1001B0000F900F90DF91CF910895FC01319690E060
:1001C00080E06250770B9617170624F4219182275E
:1001D0009F5FF9CF80830895833081F028F48130C8
:1001E00099F08230A9F008958730A9F08830C9F0DD
:1001F0008430B1F4809180008F7D03C080918000B5
:100200008F7780938000089584B58F7784BD08959B
:1002100084B58F7DFBCF8091B0008F778093B00045
:1002200008958091B0008F7DF9CF1F93CF93DF9316
:10023000282F30E0F901E255FF4F8491F901E6568D
:10024000FF4FD491F901EA57FF4FC491CC23A9F095
:10025000162F81110E94EC00EC2FF0E0EE0FFF1F33
:10026000E859FF4FA591B4918FB7F894EC91111113
:1002700008C0D095DE23DC938FBFDF91CF911F9113
:100280000895DE2BF8CF3FB7F89480913301909119
:100290003401A0913501B091360126B5A89B05C067
:1002A0002F3F19F00196A11DB11D3FBFBA2FA92FF5
:1002B000982F8827BC01CD01620F711D811D911DF2
:1002C00042E0660F771F881F991F4A95D1F708955E
:1002D00008950F931F93CF93DF93EC011C8111308E
:1002E000A9F00D8110E0013091F000E061E088811B
:1002F0000E941501602F89810E941501612F8A815A
:10030000DF91CF911F910F910C94150100E060E0F7
:10031000EECFFF920F931F93CF93DF93EC01DC019D
:10032000A956BF4F9C91492F50E09E018BE0989FAA
:10033000200D311D1124F901E05AFF4FF080FF20FC
:10034000A9F0BE0168567F4FFB018081280F311D47
:10035000F901EF59FF4F008110E0811118C0298188
:1003600011602223A1F081E0FB01808360E08D8198
:100370000E9415018881843099F58981811130C0EE
:100380001882DF91CF911F910F91FF9008958F5F99
:10039000FB018F1540F110828BE0849FF001859F57
:1003A000F00D1124EC0FFD1FE05AFF4F10829F5FEC
:1003B0009530A0F49C9361E08D810E94150180919D
:1003C000C1008E7F8093C10010FF05C08091C100E5
:1003D00081608093C1000093C600D3CF1C92EBCF05
:1003E00082E08883CECF8083E6CFCF93C091000296
:1003F00090E080E00E945D0BC81729F06C2F90E020
:1004000080E00E94650BC091010281E090E00E94B3
:100410005D0BC81729F06C2F81E090E00E94650BFE
:1004200080E092E0CF9108950F931F93CF93DF93D5
:1004300063FF49C020915901222361F010925901B4
:100440009093010280930002DF91CF911F910F9151
:100450000C94F5012091000230910102821793075C
:1004600090F1A9014B5F5F4F8417950760F5D62F78
:10047000D170C82FC21B0C2F10E0C43090F0015077
:10048000110926E0209FC001219F900D1124875C57
:100490009E4FFC01D583DF91CF911F910F910C945A
:1004A000690186E0809FF001819FF00D1124E75CD7
:1004B000FE4FD483C89FC0011124875C9E4F0E94C9
:1004C0006901C111DCCFDF91CF911F910F91089588
:1004D0001F920F920FB60F9211242F933F938F9379
:1004E0009F93AF93BF938091510190915201A0913E
:1004F0005301B09154013091320123E0230F2D3785
:1005000058F50196A11DB11D209332018093510130
:1005100090935201A0935301B09354018091330101
:1005200090913401A0913501B09136010196A11D41
:10053000B11D8093330190933401A0933501B093A2
:100540003601BF91AF919F918F913F912F910F9065
:100550000FBE0F901F90189526E8230F0296A11D3D
:10056000B11DD2CF1F920F920FB60F9211242F936D
:100570003F934F935F936F937F938F939F93AF932B
:10058000BF93EF93FF93E0910201F091030109956E
:10059000FF91EF91BF91AF919F918F917F916F915B
:1005A0005F914F913F912F910F900FBE0F901F9031
:1005B00018951F920F920FB60F9211242F933F930D
:1005C0004F935F936F937F938F939F93AF93BF935B
:1005D000EF93FF93E0910001F09101010995FF91E4
:1005E000EF91BF91AF919F918F917F916F915F91AB
:1005F0004F913F912F910F900FBE0F901F90189524
:100600001F920F920FB60F9211242F933F934F9387
:100610005F936F937F938F939F93AF93BF93CF938A
:10062000DF93EF93FF93C0913701D091380120976A
:1006300051F18091C10081FF39C08091C6008B8744
:100640009FEF99838F3519F4CE010E9489012C897F
:100650002230C8F08D898F7090E002962817190615
:1006600071F4FE013C9680E0918591938F5F281391
:10067000FBCF81E0FE01E656FF4F80831C8A8C8908
:10068000883008F01C8AFF91EF91DF91CF91BF91E4
:10069000AF919F918F917F916F915F914F913F911A
:1006A0002F910F900FBE0F901F901895EC89EF5F60
:1006B000EC8B8091C600EC0FFD2FF11D848BC7CF12
:1006C0001F920F920FB60F9211242F933F934F93C7
:1006D0005F936F937F938F939F93AF93BF93EF93AA
:1006E000FF938091370190913801009711F00E949B
:1006F0008901FF91EF91BF91AF919F918F917F9170
:100700006F915F914F913F912F910F900FBE0F907E
:100710001F9018951F920F920FB60F9211248F936E
:10072000809131018F5F8093310180913001809100
:10073000310181110AC0809130011092B2008F9175
:100740000F900FBE0F901F901895809130018091EF
:1007500031018823A1F380913001809130018F5FB6
:1007600080933001109231011092B20080913001DB
:10077000882339F080913001893018F4809130015C
:10078000DECF809130018930D0F210923001D7CF86
:10079000CF93DF93CDB7DEB7A4970FB6F894DEBF43
:1007A0000FBECDBF789484B5826084BD84B581606E
:1007B00084BD85B5826085BD85B5816085BD80912C
:1007C0006E00816080936E001092810080918100A4
:1007D000826080938100809181008160809381009C
:1007E000809180008160809380008091B10084605E
:1007F0008093B1008091B00081608093B0008091BF
:100800007A00846080937A0080917A00826080937D
:100810007A0080917A00816080937A0080917A00DA
:10082000806880937A001092C10090E080E00E947E
:100830005D0B8093000281E090E00E945D0B80934D
:1008400001028091000290910102019641F481E041
:1008500090E090930102809300020E94F50184E0F1
:100860008093660182E080936701ECE9F0E02491D7
:10087000E8E8F0E08491882399F090E0880F991FD0
:10088000FC01EE58FF4FA591B491FC01E859FF4FD0
:10089000859194918FB7F894EC91E22BEC938FBFF4
:1008A00060E0809167010E941501F8941092C500E4
:1008B0008FE08093C4001092C0008CED8093C10043
:1008C00086E08093C200789482E691E090933801AC
:1008D0008093370109E311E061E0D8018C910E9417
:1008E000150161E0F80181810E94150161E0D801E4
:1008F00012968C910E9415010A5F1F4FB1E00135DD
:100900001B0751F7C0900401D0900501E09006014B
:10091000F0900701C986DA86EB86FC86C090080154
:10092000D0900901E0900A01F0900B01CD86DE869F
:10093000EF86F88AC0900C01D0900D01E0900E0176
:10094000F0900F01C98ADA8AEB8AFC8AC090100104
:10095000D0901101E0901201F0901301CD8ADE8A4F
:10096000EF8AF88EC0901401D0901501E090160126
:10097000F0901701C98EDA8EEB8EFC8EC0901801B4
:10098000D0901901E0901A01F0901B01CD8EDE8EFF
:10099000EF8EF8A2C0901C01D0901D01E0901E01C6
:1009A000F0901F01C9A2DAA2EBA2FCA200E010E0C5
:1009B0008090200190902101A0902201409023017D
:1009C000509024016090250180916201823009F4E9
:1009D0004AC0833009F46EC0811196C080916301D2
:1009E0008111B4C581E080936201809168018F5FBD
:1009F000809368018032B8F0982F9F71E92FF0E062
:100A0000EE0FFF1FEE57FE4F208131812F3F3F4FEA
:100A100019F4803208F098C580936801911103C0E1
:100A200081E080936801809168018F71F82E806465
:100A30000E94B000E82E80937F018F2D0E94B000AD
:100A4000809380018F2D80660E94B0008093810189
:100A5000E98261E0CE0101960E948C0082E691E07D
:100A60000E9489011CC00E944301C0906901D0907E
:100A70006A01E0906B01F0906C016C197D098E09A0
:100A80009F09663272408105910510F01092620153
:100A9000809176018823C1F183E0809362010E94F6
:100AA00043016093690170936A0180936B01909395
:100AB0006C012AC00E944301C0906901D0906A0174
:100AC000E0906B01F0906C016C197D098E099F0913
:100AD000603777418105910508F4D2C01092620118
:100AE00010926E0110926F011092700110927101BC
:100AF000109272011092730110927401109275019C
:100B000010926D01109276012FB7F89480915101E7
:100B100090915201A0915301B09154012FBF409187
:100B20005E0150915F0160916001709161016C0103
:100B30007D01C41AD50AE60AF70AB701A6014233B5
:100B400051056105710578F180935E0190935F0115
:100B5000A0936001B093610186E480937C00809152
:100B60007A00806480937A0080917A0086FDFCCFC1
:100B7000909178008091790020915C0189279827D5
:100B80008927843F914008F007C521110AC0809150
:100B90005D01882309F4FDC410925D0182E0809319
:100BA0005A0110925C0180915A01833019F491E04E
:100BB00090935A0190915A01923011F410925A0177
:100BC000823019F481E0809359012FB7F894809115
:100BD000510190915201A0915301B09154012FBF46
:100BE0004091550150915601609157017091580103
:100BF0006C017D01C41AD50AE60AF70AB701A601FD
:100C0000483E53406105710508F432C08093550198
:100C100090935601A0935701B093580180915901C8
:100C200061E0882311F1EEEAF0E08491EAE9F0E076
:100C3000E490E6E8F0E0F49070E060E0FF2099F0E6
:100C400081110E94EC00EF2DF0E0EE0FFF1FE45841
:100C5000FF4FA591B491EC91EE2291E080E009F470
:100C600090E0692F782F31E0632780E00E94150122
:100C700080E090E0892B09F4A7CE0E94000096CE78
:100C80008091FC01882309F43FCF1092FC018091F0
:100C90006E01482F4F7050E04F5F5F4F60E090E073
:100CA000262F30E04217530744F02E593E4FD9010A
:100CB0001C962C9192276F5FF3CF911193C08235D0
:100CC00009F490C308F5823209F4D9C130F48132B5
:100CD00009F4B8C00E94BE0082C1833209F4E6C1A3
:100CE0008234C1F780E090E0892B09F478C18091CB
:100CF0006301811178C14091700160916F01809111
:100D000081010E9400006BC1833E09F4EDC130F502
:100D1000803801F780916F018038E1F6809163019E
:100D20008111DDC1CD84DE84EF84F888C982DA8246
:100D3000EB82FC8264E0CE0101960E948C008091DF
:100D40006501813009F44BC181E080936501011593
:100D5000110509F444C10E94000041C1843E09F418
:100D600029C2863E09F0B6CF80916F01803309F029
:100D700036C1E0907001F12CFE2CEE24EE243FE30E
:100D8000F32280917101E80EF11C80917201C82E4E
:100D9000D12CDC2CCC24CC2443E0D42290917301C0
:100DA000C90ED11C8C7F8C3E51F480E090E0892BE1
:100DB00031F040917401B601C7010E94000080919A
:100DC00072018C7F883E09F00AC180E090E0892B97
:100DD00009F405C1409174014F70B601C7010E942A
:100DE0000000FDC08091630181110EC081E68A83FD
:100DF00080E88B8381EE8C8380918101898364E01C
:100E0000CE0101960E948C0010926E0110926F012B
:100E10001092700110927101109272011092730180
:100E2000109274011092750110926D01809163010E
:100E3000811187C384E08093620182E691E00E9481
:100E4000890162CE809163018111CDC080916F01D3
:100E5000843201F5809170018530E1F4E091650103
:100E600081E0E93020F4F0E0EA5DFE4F80811D82F0
:100E700092E69A8392E29B839091810199838C837D
:100E800065E0CE0101960E94DD0065E0CE0101968D
:100E90000E948C0080916F018132D1F49091700199
:100EA000911116C01E821D8293E69A838B8386E37E
:100EB0008C8380E18D8380918101898366E0CE01FE
:100EC00001960E94DD0066E0CE0101960E948C0032
:100ED00080916F01803811F580917001813A09F09D
:100EE00043C0809163018111A8C0CD8CDE8CEF8C52
:100EF000F8A0C982DA82EB82FC8264E0CE0101961E
:100F00000E948C0080916501823041F082E08093E4
:100F100065010115110511F00E94000080916F011B
:100F2000813811F580917001803A09F04AC08091B2
:100F30006301811187C0CD88DE88EF88F88CC98273
:100F4000DA82EB82FC8264E0CE0101960E948C0082
:100F500080916501882341F010926501011511050A
:100F600019F080E00E94000080916F01803149F506
:100F700080917001813329F5909181012091FD01CB
:100F80003091FE018091FF012115310509F45FC008
:100F90001E821D8233E63A8334E13B8399832C839E
:100FA0008D8366E0CE0101960E94DD0066E0CE01F1
:100FB00001960E948C001092FE011092FD01109289
:100FC000FF01E0918101EF71F0E0EE0FFF1FEE579E
:100FD000FE4F80819181019611F4118210828091DF
:100FE00063018823D1F080916D01803609F063C2DE
:100FF00080916E01813609F027C280916F018130A6
:1010000009F003C280917001803639F410926501B5
:1010100080E00115110509F006C230E0E32E30E052
:10102000F32EEF2809F4F0CE60916E016F706E5FC1
:101030008EE691E00E940000E7CEC98CDA8CEB8C42
:10104000FC8C57CFC988DA88EB88FC8878CF1C8263
:101050001B8221E62A832FE12B8399838F3F21F482
:1010600083E18B831092FF0164E0CE0101960E9420
:10107000DD0064E0CE0101960E948C00A2CF809139
:101080006F01853109F026CE1092FE011092FD010C
:101090001092FF0180E090E0892B09F4A0CF8091AD
:1010A00070018150990B0E94000099CF80916F01CF
:1010B000863109F00FCE1092FE011092FD011092C0
:1010C000FF0180E090E0892B09F489CF80917001C5
:1010D000609171018150990B0E94000080CF49827C
:1010E0005A826B8263E027CE9091630191117BCF8E
:1010F00090916F01983009F443C0D8F4992379F1A5
:10110000973009F0E7CD1B821C821D821E8283EE80
:101110008A8380E58B8380918101898366E0CE019B
:1011200001960E94DD0066E0CE0101960E948C00CF
:1011300056CF993061F1903F09F0CCCD80E090E03E
:10114000892B09F46ACF609170016F7380917101EE
:10115000762F682F809181010E94000040CF80E0AF
:1011600090E0892B09F459CF609170016F738091E1
:101170007101762F682F809181010E9400002FCF8E
:101180001B821C821D821E828A8381E5C3CF30E0D0
:10119000E32E30E0F32EEF2809F43FCF6091700189
:1011A0006F7380917101762F682F809181010E9469
:1011B000000015CF809170018F7390917101892784
:1011C00098278927009709F454C0209181012F7135
:1011D000C22EE22FF0E0EE0FFF1FEE57FE4F2081F0
:1011E00031818217930709F444C091838083A2E67A
:1011F000EA2EA1E0FA2EDD24D394F887EF83B3EE34
:101200007B2E80E4B82ECD1469F1D70192962D90F3
:101210003C90EF81F885808191812816390611F57F
:101220008D2D80660E94B0001B821C821D821E8252
:101230007A82BB828983F4E62F16310418F0832D5D
:10124000806C8C832D8266E0CE0101960E94DD00C9
:1012500066E0CE0101960E948C00D70193961C9205
:101260001E929297D394B2E0EB0EF11CE0E2DE12F4
:10127000CACF80916F01803191F480E090E0892B9A
:1012800009F4ADCE809170018F73909171016091DE
:1012900072018927982789270E940000A0CE8131FA
:1012A00091F480E090E0892B09F499CE809170014F
:1012B0008F73909171016091720189279827892716
:1012C0000E9400008CCE823191F480E090E0892B66
:1012D00009F485CE809170018F73909171016091B6
:1012E00072018927982789270E94000078CE8331D0
:1012F00091F480E090E0892B09F471CE8091700127
:101300008F739091710160917201892798278927C5
:101310000E94000064CE803291F480E090E0892B3E
:1013200009F45DCE809170018F739091710160918D
:1013300072018927982789270E94000050CE8132A8
:1013400091F480E090E0892B09F449CE80917001FE
:101350008F73909171016091720189279827892775
:101360000E9400003CCE823291F480E090E0892B14
:1013700009F435CE809170018F7390917101609165
:1013800072018927982789270E94000028CE83327E
:1013900011F0833F91F480E090E0892B09F41FCE97
:1013A000809170018F739091710160917201892712
:1013B000982789270E94000012CE883209F08ACC33
:1013C00080E090E0892B09F40ACE809170018F7340
:1013D00090917101609172018927982789270E9455
:1013E0000000FDCD6091700120916F01F4E02F9F0E
:1013F00090011124862F90E0959587958370992709
:10140000822B932B0E941402EACD81110FC0809190
:101410007001813609F001CE82E0809365010115EB
:10142000110509F4FACD0E940000F7CD883011F4BF
:1014300084E0F3CF823009F0F0CD809170018336E3
:1014400009F0EBCD88E0E9CF813859F480916F0144
:101450008111E3CD80917001813809F0DECD81E00A
:10146000DCCF982F907F903409F0D7CD8695877088
:10147000D82E52E6E52E51E0F52ECC24C39422E07E
:10148000E20EF11CDC1408F4C8CDD7011C966C9157
:101490001C971B962C91B4E02B9F90011124862F52
:1014A00090E09595879583709927822B932B0E94C6
:1014B0000000C394E4CF8A3949F489829A82AB82CE
:1014C00063E0CE0101960E948C00A7CD80916E0151
:1014D000823609F0A2CD80916F01823209F09DCD54
:1014E000809170018130F9F070F08230A9F088307D
:1014F00009F1C984DA84EB84FC84C982DA82EB8244
:10150000FC8264E0DECF1092650180E001151105D8
:1015100081F30E940000EDCF8093650182E0011508
:101520001105B9F7E6CF8093650181E0011511053A
:1015300081F7DFCF8093650101151105D1F288E0B5
:10154000E8CF10926201E0CA8F5F56CA8150809343
:10155000630183E08093620180916401882379F0C4
:1015600010926401C9A0DAA0EBA0FCA0C982DA82C3
:10157000EB82FC8264E0CE0101960E948C00809197
:10158000630181118CCA81E080936401109276011D
:1015900086CA10925A0105CB222351F080915D0139
:1015A00081110AC081E080935D0183E080935A013C
:1015B00081E080935C01F7CA81E0F8CF10925C0172
:1015C00010925D018FEF80935B0110926801109281
:1015D000630181E08093640182E08093650184E08F
:1015E000809366011092F9011092FA011092FB01AA
:1015F000E2E8F1E082E691E02FEF3FEF21933193B3
:1016000041E0E23CF407D1F7FC01E05AFF4F1082C1
:1016100030E020E0F901EF59FF4FE80FF91F108289
:101620002F5F3F4F2A303105A9F70B9621E089390A
:10163000920751F71092FC011092620110926E0114
:1016400010926F011092700110927101109272014C
:1016500010927301109274011092750110926D0135
:10166000109276011092FE011092FD011092FF017E
:1016700083E08093390184E080933A0185E0809390
:101680003B0186E080933F0187E08093400188E042
:10169000809341018DE08093450183E18093460171
:1016A0008CE08093470189E080934B018AE080932E
:1016B0004C018BE080934D010895F999FECF92BDC6
:1016C00081BDF89A992780B50895262FF999FECF04
:1016D0001FBA92BD81BD20BD0FB6F894FA9AF99A4F
:1016E0000FBE01960895EE0FFF1F0590F491E02DB7
:0616F0000994F894FFCFFD
:1016F600680168010021210060810081002181A02C
:1017060060610160002180A1606100610021240503
:101716000020200080800001010102010101080073
:00000001FF
