:100000000C9462000C9444030C941D030C948A001D
:100010000C948A000C948A000C948A000C948A0038
:100020000C948A000C94F5030C948A000C948A00BA
:100030000C948A000C948A000C948A000C948A0018
:100040000C94D3020C948A000C946B030C948A00D9
:100050000C94CB030C948A000C948A000C948A00B4
:100060000C948A000C948A000000000023002600F3
:10007000290000000008000201000003040700003E
:1000800000000000000000000000250028002B00F8
:1000900000000000240027002A00040404040404D3
:1000A0000404020202020202030303030303010227
:1000B00004081020408001020408102001020408F6
:1000C0001020090C11241FBECFEFD8E0DEBFCDBF3A
:1000D00011E0A0E0B1E0E2E3F9E102C005900D9289
:1000E000A033B107D9F722E0A0E3B1E001C01D922F
:1000F000A735B207E1F710E0C2E6D0E004C02197CF
:10010000FE010E94910CC136D107C9F70E949E04DE
:100110000C94970C0C94000090E0FC01E255FF4F0A
:10012000249186569F4FFC018491882399F090E09A
:10013000880F991FFC01E057FF4FA591B491FC0176
:10014000EA57FF4F859194918FB7F894EC91E22B89
:10015000EC938FBF089520914F02EBE0E29FD00116
:100160001124AA5EBD4F6C932E9FF001112450E024
:1001700040E0DC013D91CD01DA01AE0FBF1FA95E69
:10018000BD4F3C934F5F5F4F461798F32F5F25306D
:1001900018F420934F02089510924F0208958F771C
:1001A000982F20E041E0992329F024273FEF390FD1
:1001B0009323F9CF211180680895CF93DF9300D066
:1001C00000D0CDB7DEB78091B70181110EC081E6B6
:1001D0008A8382E88B8383EE8C838091D501898327
:1001E00064E0CE0101960E94AB000F900F900F903B
:1001F0000F90DF91CF910895FC01319690E080E05F
:100200006250770B9617170624F4219182279F5F7F
:10021000F9CF80830895833081F028F4813099F0FC
:100220008230A9F008958730A9F08830C9F0843071
:10023000B1F4809180008F7D03C0809180008F7722
:1002400080938000089584B58F7784BD089584B528
:100250008F7DFBCF8091B0008F778093B0000895A1
:100260008091B0008F7DF9CF1F93CF93DF93282F1C
:1002700030E0F901EE58FF4F8491F901E255FF4F4C
:10028000D491F901E656FF4FC491CC23A9F0162F63
:1002900081110E940B01EC2FF0E0EE0FFF1FEA57D7
:1002A000FF4FA591B4918FB7F894EC91111108C04C
:1002B000D095DE23DC938FBFDF91CF911F910895FE
:1002C000DE2BF8CF3FB7F894809138019091390137
:1002D000A0913A01B0913B0126B5A89B05C02F3FE4
:1002E00019F00196A11DB11D3FBFBA2FA92F982F5C
:1002F0008827BC01CD01620F711D811D911D42E057
:10030000660F771F881F991F4A95D1F708952FB759
:10031000F89460913401709135018091360190918B
:1003200037012FBF08950F931F93CF93DF93EC01F5
:10033000062F142F809156028830E0F48F5F80934F
:10034000560288830E948701688B798B8A8B9B8BEE
:10035000088781E0898790E59A8794E69B879AE5EC
:100360009C879D838D871E878F87DF91CF911F91FB
:100370000F9108951882E6CF0895FF920F931F936F
:10038000CF93DF93EC01DC01A956BF4F9C91492F1D
:1003900050E09E018BE0989F200D311D1124F90142
:1003A000E05AFF4FF080FF20A9F0BE0168567F4F52
:1003B000FB018081280F311DF901EF59FF4F0081AA
:1003C00010E0811118C0298111602223A1F081E081
:1003D000FB01808360E08D810E943401888184303C
:1003E00099F58981811130C01882DF91CF911F91D9
:1003F0000F91FF9008958F5FFB018F1540F11082E0
:100400008BE0849FF001859FF00D1124EC0FFD1F00
:10041000E05AFF4F10829F5F9530A0F49C9361E0FB
:100420008D810E9434018091C1008E7F8093C10034
:1004300010FF05C08091C10081608093C1000093CE
:10044000C600D3CF1C92EBCF82E08883CECF8083CF
:10045000E6CF9FEF980F9830F8F49B016136794012
:1004600014F020E639E02C3192E0390714F42CE145
:1004700032E028503109A901440F452F441F550B84
:1004800090E0FC01EE0FFF1FE80FF91FE25CFE4F4A
:100490004183220F2095228308951F93CF93DF93EA
:1004A000EC01162F80913201811116C08EE38093EA
:1004B0003F011092310110923001109270001092A1
:1004C000B00082E08093B1001092B20081E087BB5F
:1004D00080937000809332018881882399F0812F66
:1004E0000E948C00E8818E2F90E0FC01EE0FFF1F30
:1004F000E80FF91FE25CFE4F1F716081607E612B87
:10050000606260838881DF91CF911F910895CF93BE
:10051000C091540290E080E00E947B0CC81729F043
:100520006C2F90E080E00E94830CC091550281E026
:1005300090E00E947B0CC81729F06C2F81E090E0BE
:100540000E94830C84E592E0CF91089563FF2AC056
:100550002091AD01222341F01092AD0190935502FC
:10056000809354020C9487022091540230915502DA
:1005700082179307B8F0A9014C5F5F4F8417950766
:1005800088F4821B94E1989FF0011124E75AFE4FF2
:10059000617066832785222329F0608570E0CF0192
:1005A0000C944D0208951F920F920FB60F921124D2
:1005B0002F933F938F939F93AF93BF938091340179
:1005C00090913501A0913601B091370130913301FE
:1005D00023E0230F2D3758F50196A11DB11D20935F
:1005E00033018093340190933501A0933601B09389
:1005F00037018091380190913901A0913A01B09171
:100600003B010196A11DB11D8093380190933901E2
:10061000A0933A01B0933B01BF91AF919F918F910D
:100620003F912F910F900FBE0F901F90189526E8C5
:10063000230F0296A11DB11DD2CF1F920F920FB6AC
:100640000F9211242F933F934F935F936F937F9358
:100650008F939F93AF93BF93EF93FF93E09102012A
:10066000F09103010995FF91EF91BF91AF919F9197
:100670008F917F916F915F914F913F912F910F904B
:100680000FBE0F901F9018951F920F920FB60F92EA
:1006900011242F933F934F935F936F937F938F9387
:1006A0009F93AF93BF93EF93FF93E0910001F0917D
:1006B00001010995FF91EF91BF91AF919F918F91AA
:1006C0007F916F915F914F913F912F910F900FBE4E
:1006D0000F901F9018951F920F920FB60F92112432
:1006E0002F933F934F935F936F937F938F939F933A
:1006F000AF93BF93CF93DF93EF93FF93C0913C01F0
:10070000D0913D01209751F18091C10081FF39C006
:100710008091C6008B879FEF99838F3519F4CE01A6
:100720000E94BD012C892230C8F08D898F7090E025
:1007300002962817190671F4FE013C9680E0918517
:1007400091938F5F2813FBCF81E0FE01E656FF4FA8
:1007500080831C8A8C89883008F01C8AFF91EF9175
:10076000DF91CF91BF91AF919F918F917F916F91C9
:100770005F914F913F912F910F900FBE0F901F905F
:100780001895EC89EF5FEC8B8091C600EC0FFD2F84
:10079000F11D848BC7CF1F920F920FB60F921124B9
:1007A0002F933F934F935F936F937F938F939F9379
:1007B000AF93BF93EF93FF9380913C0190913D01E4
:1007C000009711F00E94BD01FF91EF91BF91AF9191
:1007D0009F918F917F916F915F914F913F912F9159
:1007E0000F900FBE0F901F9018951F920F920FB68B
:1007F0000F9211242F933F934F935F936F937F93A7
:100800008F939F93AF93BF93EF93FF9380913001AA
:100810008F5F80933001E0913101209130018E2F64
:1008200090E0FC01EE0FFF1FE80FF91FE25CFE4FA6
:100830008181E091310182131DC08E2F90E0FC0177
:10084000EE0FFF1FE80FF91FE25CFE4F82818093DD
:10085000B200FF91EF91BF91AF919F918F917F91E6
:100860006F915F914F913F912F910F900FBE0F901D
:100870001F901895209130018E2F90E0FC01EE0F13
:10088000FF1FE80FF91FE25CFE4F8181821708F716
:10089000E09131018E2F90E0FC01EE0FFF1FE80F79
:1008A000F91FE25CFE4F808185FF10C0E0913101AD
:1008B0008E2F90E0FC01EE0FFF1FE80FF91FE25CA6
:1008C000FE4F808160E08F710E9434018091310180
:1008D0008F5F80933101109230011092B2008091AD
:1008E0003101882319F1809131018930F8F4E091C8
:1008F00031018E2F90E0FC01EE0FFF1FE80FF91F72
:10090000E25CFE4F808185FFA4CFE09131018E2F04
:1009100090E0FC01EE0FFF1FE80FF91FE25CFE4FB5
:10092000808161E08F710E94340193CF8091310109
:10093000893008F48ECF109231018BCFCF93DF93A3
:10094000CDB7DEB7AD970FB6F894DEBF0FBECDBF03
:10095000789484B5826084BD84B5816084BD85B59A
:10096000826085BD85B5816085BD80916E008160A6
:1009700080936E001092810080918100826080934C
:10098000810080918100816080938100809180004E
:100990008160809380008091B10084608093B10079
:1009A0008091B00081608093B00080917A00846073
:1009B00080937A0080917A00826080937A0080919F
:1009C0007A00816080937A0080917A0080688093B9
:1009D0007A001092C10090E080E00E947B0C80932E
:1009E000540281E090E00E947B0C8093550280913C
:1009F000540290915502019641F481E090E0909369
:100A00005502809354020E94870284E08093BA01C9
:100A100082E08093BB010E948C0060E08091BB016A
:100A20000E943401F8941092C5008FE08093C400B6
:100A30001092C0008CED8093C10086E08093C200CC
:100A4000789486EB91E090933D0180933C0109EA14
:100A500011E049E5242E41E0342ED10118968C9105
:100A600018978F3F69F015966C91159770E08C91EF
:100A70000E942902F101608570E0C1010E944D02CF
:100A8000D1011D968C911D97882321F01E968C9183
:100A90000E948C00B4E12B0E311C02151305E9F6FF
:100AA000A0900401B0900501C0900601D09007010C
:100AB000AB86BC86CD86DE86A0900801B090090189
:100AC000C0900A01D0900B01AF86B88AC98ADA8A31
:100AD000A0900C01B0900D01C0900E01D0900F01BC
:100AE000AB8ABC8ACD8ADE8AA0901001B090110139
:100AF000C0901201D0901301AF8AB88EC98EDA8EE1
:100B0000A0901401B0901501C0901601D09017016B
:100B1000AB8EBC8ECD8EDE8EA0901801B0901901E8
:100B2000C0901A01D0901B01AF8EB8A2C9A2DAA260
:100B3000A0901C01B0901D01C0901E01D0901F011B
:100B4000ABA2BCA2CDA2DEA230E0E32E30E0F32EB9
:100B5000A0902001B0902101C0902201ABA6BCA6BC
:100B6000CDA64090230150902401609025018091F2
:100B7000B601823009F44AC0833009F46EC0811195
:100B800096C08091B7018111FFC581E08093B601C5
:100B90008091BC018F5F8093BC018032B8F0982FA8
:100BA0009F71E92FF0E0EE0FFF1FEA52FE4F208108
:100BB00031812F3F3F4F19F4803208F0E3C5809315
:100BC000BC01911103C081E08093BC011091BC0174
:100BD0001F71812F80640E94CF00082F8093D30162
:100BE000812F0E94CF008093D401812F80660E94C4
:100BF000CF008093D501098361E0CE0101960E9468
:100C0000AB0086EB91E00E94BD011CC00E94620116
:100C10000091BD011091BE012091BF013091C00132
:100C2000601B710B820B930B66327240810591053C
:100C300010F01092B6018091CA018823C1F183E0BF
:100C40008093B6010E9462016093BD017093BE0162
:100C50008093BF019093C0012AC00E94620100915D
:100C6000BD011091BE012091BF013091C001601BF8
:100C7000710B820B930B603777418105910508F466
:100C800020C11092B6011092C2011092C3011092BD
:100C9000C4011092C5011092C6011092C7011092B2
:100CA000C8011092C9011092C1011092CA010E949C
:100CB00087012091B2013091B3014091B40150916C
:100CC000B5015B016C01A21AB30AC40AD50AA601D8
:100CD0009501223331054105510578F16093B20148
:100CE0007093B3018093B4019093B50186E480932F
:100CF0007C0080917A00806480937A0080917A00F1
:100D000086FDFCCF90917800809179002091B00110
:100D1000892798278927843F914008F05BC52111D6
:100D20000AC08091B101882309F451C51092B10124
:100D300082E08093AE011092B0018091AE018330C9
:100D400019F491E09093AE019091AE01923011F4BC
:100D50001092AE01823019F481E08093AD010E94BF
:100D60008701A090A901B090AA01C090AB01D090DA
:100D7000AC019B01AC012A193B094C095D09243FD8
:100D800031404105510508F432C06093A9017093C8
:100D9000AA018093AB019093AC018091AD0161E019
:100DA000882311F1E2E7F0E08491EEEAF0E00491AB
:100DB000EAE9F0E0149170E060E0112399F081110C
:100DC0000E940B01E12FF0E0EE0FFF1FE859FF4FEB
:100DD000A591B491EC910E2391E080E009F490E0AC
:100DE000692F782FB1E06B2780E00E94340109E57C
:100DF00011E00E948701F8012181328143815481F1
:100E0000261737074807590708F04DC00E94870189
:100E1000D80119962C911997620F711D811D911D92
:100E2000F8016183728383839483968185819923FA
:100E300009F4E2C49385891710F48F5F8583F80164
:100E400025818781821779F127838385281719F0F7
:100E50008285281313C0D8011F968C911F9781306B
:100E600069F4EC918E2F90E0FC01EE0FFF1FE80F6C
:100E7000F91FE25CFE4F80818F7D8083F8018585BC
:100E8000882341F08485281708F0C0C460E0868577
:100E90000E943401F80180858F3F29F0658170E060
:100EA00080810E9429020C5E1F4F0215130509F074
:100EB000A0CF80E090E0892B09F459CE0E94000079
:100EC00043CE80915002882309F4F1CE1092500253
:100ED0008091C201482F4F7050E04F5F5F4F60E03C
:100EE00090E0262F30E04217530744F02A543E4F3B
:100EF000D9011C962C9192276F5FF3CF911192C06C
:100F0000823509F48DC308F5823209F4D8C130F472
:100F1000813209F4B7C00E94DD0081C1833209F437
:100F2000E5C18234C1F780E090E0892B09F477C1F4
:100F30008091B701811177C14091C4016091C301D3
:100F40008091D5010E9400006AC1833E09F4ECC182
:100F500030F5803801F78091C3018038E1F6809147
:100F6000B7018111DCC1AF84B888C988DA88A98249
:100F7000BA82CB82DC8264E0CE0101960E94AB0093
:100F80008091B901813009F44AC181E08093B901AF
:100F9000E114F10409F443C10E94000040C1843E01
:100FA00009F428C2863E09F0B6CF8091C301803390
:100FB00009F035C10091C40110E0102F002700276F
:100FC0001F738091C501080F111D8091C601C82EA5
:100FD000D12CDC2CCC24CC2433E0D3229091C7013B
:100FE000C90ED11C8C7F8C3E51F480E090E0892B9F
:100FF00031F04091C801B601C8010E940000809103
:10100000C6018C7F883E09F00AC180E090E0892B00
:1010100009F405C14091C8014F70B601C8010E9492
:101020000000FDC08091B70181110EC081E68A8366
:1010300080E88B8381EE8C838091D501898364E085
:10104000CE0101960E94AB001092C2011092C30122
:101050001092C4011092C5011092C6011092C701EE
:101060001092C8011092C9011092C1018091B7017C
:10107000811185C384E08093B60186EB91E00E94E4
:10108000BD0115CE8091B7018111CDC08091C30102
:10109000843201F58091C4018530E1F4E091B90119
:1010A00081E0E93020F4F0E0EA5DFE4F80811D82AE
:1010B00092E69A8392E29B839091D50199838C83E7
:1010C00065E0CE0101960E94FC0065E0CE0101962C
:1010D0000E94AB008091C3018132D1F49091C40190
:1010E000911116C01E821D8293E69A838B8386E33C
:1010F0008C8380E18D838091D501898366E0CE0168
:1011000001960E94FC0066E0CE0101960E94AB00B1
:101110008091C301803811F58091C401813A09F0B2
:1011200043C08091B7018111A8C0AF8CB8A0C9A0FD
:10113000DAA0A982BA82CB82DC8264E0CE01019679
:101140000E94AB008091B901823041F082E080932F
:10115000B901E114F10411F00E9400008091C30173
:10116000813811F58091C401803A09F04AC080911C
:10117000B701811187C0AF88B88CC98CDA8CA9827D
:10118000BA82CB82DC8264E0CE0101960E94AB0081
:101190008091B901882341F01092B901E114F10462
:1011A00019F080E00E9400008091C301803149F570
:1011B0008091C401813329F59091D501209151028C
:1011C00030915202809153022115310509F45FC01C
:1011D0001E821D8233E63A8334E13B8399832C835C
:1011E0008D8366E0CE0101960E94FC0066E0CE0190
:1011F00001960E94AB00109252021092510210927E
:101200005302E091D501EF71F0E0EE0FFF1FEA52BB
:10121000FE4F80819181019611F41182108280919C
:10122000B7018823D1F08091C101803609F05EC2F8
:101230008091C201813609F025C28091C3018130BD
:1012400009F001C28091C401803639F41092B901CD
:1012500080E0E114F10409F004C260E0C62E60E011
:10126000D62ECD2809F4F0CE6091C2016F706E5F6A
:1012700082EC91E00E940000E7CEAB8CBC8CCD8C60
:10128000DE8C57CFAB88BC88CD88DE8878CF1C82B7
:101290001B8221E62A832FE12B8399838F3F21F440
:1012A00083E18B831092530264E0CE0101960E9489
:1012B000FC0064E0CE0101960E94AB00A2CF8091B9
:1012C000C301853109F027CE1092520210925102CB
:1012D0001092530280E090E0892B09F4A0CF809116
:1012E000C4018150990B0E94000099CF8091C301E5
:1012F000863109F010CE10925202109251021092D3
:10130000530280E090E0892B09F489CF8091C401D9
:101310006091C5018150990B0E94000080CF4982E5
:101320005A826B8263E028CE9091B70191117BCFF6
:101330009091C301983009F443C0D8F4992379F10E
:10134000973009F0E8CD1B821C821D821E8283EE3D
:101350008A8380E58B838091D501898366E0CE0105
:1013600001960E94FC0066E0CE0101960E94AB004F
:1013700056CF993061F1903F09F0CDCD80E090E0FB
:10138000892B09F46ACF6091C4016F738091C50104
:10139000762F682F8091D5010E94000040CF80E019
:1013A00090E0892B09F459CF6091C4016F7380914B
:1013B000C501762F682F8091D5010E9400002FCFA4
:1013C0001B821C821D821E828A8381E5C3CF10E0AE
:1013D000C12E10E0D12ECD2809F43FCF6091C40179
:1013E0006F738091C501762F682F8091D5010E947F
:1013F000000015CF8091C4018F739091C50189279A
:1014000098278927009709F452C02091D5012F71A0
:10141000922E022F10E0000F111FF801EA52FE4F2A
:10142000208131818217930709F441C09183808321
:1014300006EB11E0AA24A394FA87E987F3EE7F2E46
:10144000A0E4BA2EA91469F1D8019296CD90DC904F
:10145000E985FA8580819181C816D90611F58A2D12
:1014600080660E94CF001B821C821D821E827A82AF
:10147000BB828983F4E6CF16D10418F08D2D806CE1
:101480008C83CD8266E0CE0101960E94FC0066E06E
:10149000CE0101960E94AB00D80193961C921E9239
:1014A0009297A3940E5F1F4FB0E2AB12CBCF809107
:1014B000C301803191F480E090E0892B09F4AFCE34
:1014C0008091C4018F739091C5016091C6018927F5
:1014D000982789270E940000A2CE813191F480E0F4
:1014E00090E0892B09F49BCE8091C4018F73909179
:1014F000C5016091C6018927982789270E940000AD
:101500008ECE823191F480E090E0892B09F487CE71
:101510008091C4018F739091C5016091C6018927A4
:10152000982789270E9400007ACE833191F480E0C9
:1015300090E0892B09F473CE8091C4018F73909150
:10154000C5016091C6018927982789270E9400005C
:1015500066CE803291F480E090E0892B09F45FCE72
:101560008091C4018F739091C5016091C601892754
:10157000982789270E94000052CE813291F480E0A2
:1015800090E0892B09F44BCE8091C4018F73909128
:10159000C5016091C6018927982789270E9400000C
:1015A0003ECE823291F480E090E0892B09F437CE70
:1015B0008091C4018F739091C5016091C601892704
:1015C000982789270E9400002ACE833211F0833F9A
:1015D00091F480E090E0892B09F421CE8091C40140
:1015E0008F739091C5016091C6018927982789273B
:1015F0000E94000014CE883209F08DCC80E090E08B
:10160000892B09F40CCE8091C4018F739091C50190
:101610006091C6018927982789270E940000FFCD85
:101620006091C4012091C301E4E02E9F9001112438
:10163000862F90E09595879583709927822B932B21
:101640000E94A602ECCD81110FC08091C4018136A9
:1016500009F003CE82E08093B901E114F10409F4AA
:10166000FCCD0E940000F9CD883011F484E0F3CF66
:10167000823009F0F2CD8091C401833609F0EDCDBE
:1016800088E0E9CF813859F48091C3018111E5CD1B
:101690008091C401813809F0E0CD81E0DCCF982F42
:1016A000907F903409F0D9CD86958770D82E06EBBF
:1016B00011E0CC24C3940E5F1F4FDC1408F4CDCD91
:1016C000D8011C966C911C971B962C91B4E02B9F13
:1016D00090011124862F90E0959587958370992726
:1016E000822B932B0E940000C394E5CF8A3961F4CA
:1016F000ABA4BCA4CDA4A982BA82CB8263E0CE0104
:1017000001960E94AB00A9CD8091C201823609F0FA
:10171000A4CD8091C301823209F09FCD8091C40194
:101720008130F9F070F08230A9F0883009F1AB8493
:10173000BC84CD84DE84A982BA82CB82DC8264E060
:10174000DECF1092B90180E0E114F10481F30E9430
:101750000000EDCF8093B90182E0E114F104B9F704
:10176000E6CF8093B90181E0E114F10481F7DFCF86
:101770008093B901E114F104D1F288E0E8CF10922E
:10178000B60195CA8F5F0BCA81508093B70183E081
:101790008093B6018091B801882379F01092B80146
:1017A000ABA0BCA0CDA0DEA0A982BA82CB82DC8295
:1017B00064E0CE0101960E94AB008091B7018111D7
:1017C00041CA81E08093B8011092CA013BCA1092CD
:1017D000AE01B1CA222351F08091B10181110AC03A
:1017E00081E08093B10183E08093AE0181E080933A
:1017F000B001A3CA81E0F8CF1A969C911A97981766
:1018000008F01DCB815015968C9319CB61E086852D
:101810003FCB1092B0011092B1018FEF8093AF01D6
:101820001092BC011092B70181E08093B80182E070
:101830008093B90184E08093BA0110924D02109216
:101840004E0210924F02E6EDF1E086EB91E02FEFB1
:101850003FEF2193319342E0E631F407D1F7FC01E9
:10186000E05AFF4F108230E020E0F901EF59FF4FBE
:10187000E80FF91F10822F5F3F4F2A303105A9F77B
:101880000B9621E08D3E920751F710925002109274
:10189000B6011092C2011092C3011092C4011092BD
:1018A000C5011092C6011092C7011092C801109292
:1018B000C9011092C1011092CA01109252021092F5
:1018C00051021092530247E063E089E591E00E94E3
:1018D000930148E064E08DE691E00E94930149E0C5
:1018E00065E081E891E00E9493014AE066E085E9C5
:1018F00091E00C949301F999FECF92BD81BDF89AC5
:10190000992780B50895262FF999FECF1FBA92BD69
:1019100081BD20BD0FB6F894FA9AF99A0FBE0196D0
:101920000895EE0FFF1F0590F491E02D0994F894AF
:02193000FFCFE7
:10193200BC01BC010021210060810081002181A045
:1019420060610160002180A16061006100212405C5
:101952000020200080800001010102010101080035
:00000001FF
