:100000000C9462000C94CC020C94A5020C948A000F
:100010000C948A000C948A000C948A000C948A0038
:100020000C948A000C947D030C948A000C948A0032
:100030000C948A000C948A000C948A000C948A0018
:100040000C945B020C948A000C94F3020C948A00CA
:100050000C9453030C948A000C948A000C948A002C
:100060000C948A000C948A000000000023002600F3
:10007000290000000008000201000003040700003E
:1000800000000000000000000000250028002B00F8
:1000900000000000240027002A00040404040404D3
:1000A0000404020202020202030303030303010227
:1000B00004081020408001020408102001020408F6
:1000C0001020EF0A11241FBECFEFD8E0DEBFCDBF56
:1000D00011E0A0E0B1E0E8E4F7E102C005900D9284
:1000E000A033B107D9F722E0A0E3B1E001C01D922F
:1000F000A631B207E1F710E0C2E6D0E004C02197D4
:10010000FE010E949C0BC136D107C9F70E94BB03B8
:100110000C94A20B0C94000090E0FC01E255FF4F00
:10012000249186569F4FFC018491882399F090E09A
:10013000880F991FFC01E057FF4FA591B491FC0176
:10014000EA57FF4F859194918FB7F894EC91E22B89
:10015000EC938FBF089520910F02EBE0E29FD00156
:100160001124AA52BE4F6C932E9FF001112450E02F
:1001700040E0DC013D91CD01DA01AE0FBF1FA95275
:10018000BE4F3C934F5F5F4F461798F32F5F25306C
:1001900018F420930F02089510920F0208958F779C
:1001A000982F20E041E0992329F024273FEF390FD1
:1001B0009323F9CF211180680895CF93DF9300D066
:1001C00000D0CDB7DEB78091770181110EC081E6F6
:1001D0008A8382E88B8383EE8C8380919501898367
:1001E00064E0CE0101960E94AB000F900F900F903B
:1001F0000F90DF91CF910895FC01319690E080E05F
:100200006250770B9617170624F4219182279F5F7F
:10021000F9CF80830895833081F028F4813099F0FC
:100220008230A9F008958730A9F08830C9F0843071
:10023000B1F4809180008F7D03C0809180008F7722
:1002400080938000089584B58F7784BD089584B528
:100250008F7DFBCF8091B0008F778093B0000895A1
:100260008091B0008F7DF9CF1F93CF93DF93282F1C
:1002700030E0F901EE58FF4F8491F901E255FF4F4C
:10028000D491F901E656FF4FC491CC23A9F0162F63
:1002900081110E940B01EC2FF0E0EE0FFF1FEA57D7
:1002A000FF4FA591B4918FB7F894EC91111108C04C
:1002B000D095DE23DC938FBFDF91CF911F910895FE
:1002C000DE2BF8CF3FB7F894809133019091340141
:1002D000A0913501B091360126B5A89B05C02F3FEE
:1002E00019F00196A11DB11D3FBFBA2FA92F982F5C
:1002F0008827BC01CD01620F711D811D911D42E057
:10030000660F771F881F991F4A95D1F708950895A2
:10031000FF920F931F93CF93DF93EC01DC01A9565B
:10032000BF4F9C91492F50E09E018BE0989F200D7C
:10033000311D1124F901E05AFF4FF080FF20A9F090
:10034000BE0168567F4FFB018081280F311DF901E6
:10035000EF59FF4F008110E0811118C02981116011
:100360002223A1F081E0FB01808360E08D810E9467
:1003700034018881843099F58981811130C01882D7
:10038000DF91CF911F910F91FF9008958F5FFB0137
:100390008F1540F110828BE0849FF001859FF00D56
:1003A0001124EC0FFD1FE05AFF4F10829F5F953024
:1003B000A0F49C9361E08D810E9434018091C10082
:1003C0008E7F8093C10010FF05C08091C1008160C5
:1003D0008093C1000093C600D3CF1C92EBCF82E084
:1003E0008883CECF8083E6CFCF93C091140290E074
:1003F00080E00E94860BC81729F06C2F90E080E007
:100400000E948E0BC091150281E090E00E94860B45
:10041000C81729F06C2F81E090E00E948E0B84E1D8
:1004200092E0CF9108950F931F9363FF41C02091F5
:100430006D01222351F010926D019093150280936B
:1004400014021F910F910C94F40120911402309129
:1004500015028217930760F1A9014C5F5F4F841763
:10046000950730F5821B90E04FB7F8940091390161
:1004700010913A0120913B0130913C014FBF4BE07C
:10048000489FF001499FF00D1124E35CFE4F048367
:1004900015832683378381E0828760FF06C061E091
:1004A00080851F910F910C94340161E08185F9CF13
:1004B0001F910F9108951F920F920FB60F92112462
:1004C0002F933F938F939F93AF93BF938091390165
:1004D00090913A01A0913B01B0913C0130913201E1
:1004E00023E0230F2D3758F50196A11DB11D209350
:1004F00032018093390190933A01A0933B01B0936C
:100500003C018091330190913401A0913501B0916B
:1005100036010196A11DB11D8093330190933401E2
:10052000A0933501B0933601BF91AF919F918F9108
:100530003F912F910F900FBE0F901F90189526E8B6
:10054000230F0296A11DB11DD2CF1F920F920FB69D
:100550000F9211242F933F934F935F936F937F9349
:100560008F939F93AF93BF93EF93FF93E09102011B
:10057000F09103010995FF91EF91BF91AF919F9188
:100580008F917F916F915F914F913F912F910F903C
:100590000FBE0F901F9018951F920F920FB60F92DB
:1005A00011242F933F934F935F936F937F938F9378
:1005B0009F93AF93BF93EF93FF93E0910001F0916E
:1005C00001010995FF91EF91BF91AF919F918F919B
:1005D0007F916F915F914F913F912F910F900FBE3F
:1005E0000F901F9018951F920F920FB60F92112423
:1005F0002F933F934F935F936F937F938F939F932B
:10060000AF93BF93CF93DF93EF93FF93C0913701E5
:10061000D0913801209751F18091C10081FF39C0FC
:100620008091C6008B879FEF99838F3519F4CE0197
:100630000E9488012C892230C8F08D898F7090E04B
:1006400002962817190671F4FE013C9680E0918508
:1006500091938F5F2813FBCF81E0FE01E656FF4F99
:1006600080831C8A8C89883008F01C8AFF91EF9166
:10067000DF91CF91BF91AF919F918F917F916F91BA
:100680005F914F913F912F910F900FBE0F901F9050
:100690001895EC89EF5FEC8B8091C600EC0FFD2F75
:1006A000F11D848BC7CF1F920F920FB60F921124AA
:1006B0002F933F934F935F936F937F938F939F936A
:1006C000AF93BF93EF93FF938091370190913801DF
:1006D000009711F00E948801FF91EF91BF91AF91B7
:1006E0009F918F917F916F915F914F913F912F914A
:1006F0000F900FBE0F901F9018951F920F920FB67C
:100700000F9211248F93809131018F5F809331017B
:10071000809130018091310181110AC080913001B6
:100720001092B2008F910F900FBE0F901F901895EE
:1007300080913001809131018823A1F380913001B3
:10074000809130018F5F80933001109231011092BF
:10075000B20080913001882339F0809130018930D6
:1007600018F480913001DECF809130018930D0F2D1
:1007700010923001D7CFCF93DF93CDB7DEB7A697D6
:100780000FB6F894DEBF0FBECDBF789484B58260FB
:1007900084BD84B5816084BD85B5826085BD85B525
:1007A000816085BD80916E00816080936E001092A3
:1007B000810080918100826080938100809181001E
:1007C00081608093810080918000816080938000AF
:1007D0008091B10084608093B1008091B00081600D
:1007E0008093B00080917A00846080937A00809139
:1007F0007A00826080937A0080917A008160809391
:100800007A0080917A00806880937A001092C1000B
:1008100090E080E00E94860B8093140281E090E0DB
:100820000E94860B8093150280911402909115020C
:10083000019641F481E090E09093150280931402B8
:100840000E94F40184E080937A0182E080937B012E
:100850000E948C0060E080917B010E943401F8943A
:100860001092C5008FE08093C4001092C0008CED00
:100870008093C10086E08093C200789486E791E07F
:10088000909338018093370109E611E07DE3272E2C
:1008900071E0372ED10118968C910E948C00F101E5
:1008A00081850E948C00FBE02F0E311C0215130580
:1008B00089F7C0900401D0900501E0900601F09006
:1008C0000701CB86DC86ED86FE86C0900801D090BD
:1008D0000901E0900A01F0900B01CF86D88AE98ADD
:1008E000FA8AC0900C01D0900D01E0900E01F090BA
:1008F0000F01CB8ADC8AED8AFE8AC0901001D0906D
:100900001101E0901201F0901301CF8AD88EE98E88
:10091000FA8EC0901401D0901501E0901601F0906D
:100920001701CB8EDC8EED8EFE8EC0901801D0901C
:100930001901E0901A01F0901B01CF8ED8A2E9A214
:10094000FAA2C0901C01D0901D01E0901E01F09011
:100950001F01CBA2DCA2EDA2FEA200E010E080907D
:10096000200190902101A0902201409023015090FD
:1009700024016090250180917601823009F44AC0FB
:10098000833009F46EC0811196C080917701811186
:10099000EEC581E08093760180917C018F5F80932A
:1009A0007C018032B8F0982F9F71E92FF0E0EE0FB4
:1009B000FF1FEA56FE4F208131812F3F3F4F19F430
:1009C000803208F0D2C580937C01911103C081E090
:1009D00080937C0180917C018F71F82E80640E944D
:1009E000CF00E82E809393018F2D0E94CF0080933B
:1009F00094018F2D80660E94CF0080939501E9823B
:100A000061E0CE0101960E94AB0086E791E00E9472
:100A100088011CC00E946201C0907D01D0907E01BF
:100A2000E0907F01F09080016C197D098E099F098B
:100A3000663272408105910510F010927601809126
:100A40008A018823C1F183E0809376010E946201CC
:100A500060937D0170937E0180937F01909380016C
:100A60002AC00E946201C0907D01D0907E01E0907A
:100A70007F01F09080016C197D098E099F09603714
:100A800077418105910508F409C110927601109211
:100A900082011092830110928401109285011092BC
:100AA000860110928701109288011092890110929C
:100AB000810110928A012FB7F894809139019091A9
:100AC0003A01A0913B01B0913C012FBF40917201CE
:100AD0005091730160917401709175016C017D01F9
:100AE000C41AD50AE60AF70AB701A601423351052E
:100AF0006105710578F18093720190937301A09361
:100B00007401B093750186E480937C0080917A0033
:100B1000806480937A0080917A0086FDFCCF90916A
:100B20007800809179002091700189279827892782
:100B3000843F914008F041C521110AC080917101A4
:100B4000882309F437C51092710182E080936E0109
:100B50001092700180916E01833019F491E09093AE
:100B60006E0190916E01923011F410926E018230FC
:100B700019F481E080936D012FB7F89480913901C9
:100B800090913A01A0913B01B0913C012FBF40915F
:100B9000690150916A0160916B0170916C016C0167
:100BA0007D01C41AD50AE60AF70AB701A601443F37
:100BB00051406105710508F432C08093690190933A
:100BC0006A01A0936B01B0936C0180916D0161E0AB
:100BD000882311F1E2E7F0E08491EEEAF0E0E4909E
:100BE000EAE9F0E0F49070E060E0FF2099F0811114
:100BF0000E940B01EF2DF0E0EE0FFF1FE859FF4FB1
:100C0000A591B491EC91EE2291E080E009F490E09E
:100C1000692F782F31E0632780E00E9434018DE353
:100C2000E82E81E0F82ED7011A968C91882341F1A5
:100C30002FB7F8948091390190913A01A0913B012E
:100C4000B0913C012FBFF7014481558166817781C6
:100C5000841B950BA60BB70B408151816281738178
:100C600084179507A607B70758F0128660E08085BD
:100C70000E94340160E0D70119968C910E943401E2
:100C8000BBE0EB0EF11CE214F30469F680E090E0A7
:100C9000892B09F470CE0E9400005FCE8091100273
:100CA000882309F408CF1092100280918201482F06
:100CB0004F7050E04F5F5F4F60E090E0262F30E0D4
:100CC0004217530744F02A583E4FD9011C962C91E5
:100CD00092276F5FF3CF911193C0823509F493C3CC
:100CE00008F5823209F4D9C130F4813209F4B8C070
:100CF0000E94DD0082C1833209F4E6C18234C1F76B
:100D000080E090E0892B09F478C18091770181110E
:100D100078C14091840160918301809195010E9486
:100D200000006BC1833E09F4EDC130F5803801F756
:100D3000809183018038E1F6809177018111DDC1D6
:100D4000CF84D888E988FA88C982DA82EB82FC826B
:100D500064E0CE0101960E94AB0080917901813060
:100D600009F44BC181E0809379010115110509F463
:100D700044C10E94000041C1843E09F429C2863E5C
:100D800009F0B6CF80918301803309F036C1E0903D
:100D90008401F12CFE2CEE24EE243FE3F32280911B
:100DA0008501E80EF11C80918601C82ED12CDC2C27
:100DB000CC24CC2443E0D42290918701C90ED11CCD
:100DC0008C7F8C3E51F480E090E0892B31F0409193
:100DD0008801B601C7010E940000809186018C7FC6
:100DE000883E09F00AC180E090E0892B09F405C132
:100DF000409188014F70B601C7010E940000FDC0FC
:100E00008091770181110EC081E68A8380E88B830F
:100E100081EE8C8380919501898364E0CE010196F7
:100E20000E94AB0010928201109283011092840103
:100E3000109285011092860110928701109288010C
:100E400010928901109281018091770181118AC3EA
:100E500084E08093760186E791E00E9488012BCEA2
:100E6000809177018111CDC080918301843201F599
:100E7000809184018530E1F4E091790181E0E930ED
:100E800020F4F0E0EA5DFE4F80811D8292E69A83B5
:100E900092E29B839091950199838C8365E0CE01CA
:100EA00001960E94FC0065E0CE0101960E94AB0015
:100EB000809183018132D1F490918401911116C007
:100EC0001E821D8293E69A838B8386E38C8380E166
:100ED0008D8380919501898366E0CE0101960E9401
:100EE000FC0066E0CE0101960E94AB008091830178
:100EF000803811F580918401813A09F043C08091D6
:100F000077018111A8C0CF8CD8A0E9A0FAA0C9822E
:100F1000DA82EB82FC8264E0CE0101960E94AB0093
:100F200080917901823041F082E08093790101154E
:100F3000110511F00E94000080918301813811F5A4
:100F400080918401803A09F04AC080917701811133
:100F500087C0CF88D88CE98CFA8CC982DA82EB8280
:100F6000FC8264E0CE0101960E94AB008091790181
:100F7000882341F0109279010115110519F080E0E4
:100F80000E94000080918301803149F580918401A5
:100F9000813329F59091950120911102309112022F
:100FA000809113022115310509F45FC01E821D8254
:100FB00033E63A8334E13B8399832C838D8366E067
:100FC000CE0101960E94FC0066E0CE0101960E94CF
:100FD000AB00109212021092110210921302E091D3
:100FE0009501EF71F0E0EE0FFF1FEA56FE4F808192
:100FF0009181019611F411821082809177018823EA
:10100000D1F080918101803609F066C28091820121
:10101000813609F02AC280918301813009F006C22D
:1010200080918401803639F41092790180E00115B5
:10103000110509F009C230E0E32E30E0F32EEF286D
:1010400009F4F0CE609182016F706E5F82E891E0EA
:101050000E940000E7CECB8CDC8CED8CFE8C57CF51
:10106000CB88DC88ED88FE8878CF1C821B8221E645
:101070002A832FE12B8399838F3F21F483E18B8394
:101080001092130264E0CE0101960E94FC0064E01D
:10109000CE0101960E94AB00A2CF809183018531E1
:1010A00009F026CE10921202109211021092130231
:1010B00080E090E0892B09F4A0CF809184018150D9
:1010C000990B0E94000099CF80918301863109F02D
:1010D0000FCE10921202109211021092130280E0B1
:1010E00090E0892B09F489CF80918401609185017A
:1010F0008150990B0E94000080CF49825A826B82F6
:1011000063E027CE9091770191117BCF909183017D
:10111000983009F443C0D8F4992379F1973009F055
:10112000E7CD1B821C821D821E8283EE8A8380E5AE
:101130008B8380919501898366E0CE0101960E94A0
:10114000FC0066E0CE0101960E94AB0056CF9930BC
:1011500061F1903F09F0CCCD80E090E0892B09F45B
:101160006ACF609184016F7380918501762F682F1B
:10117000809195010E94000040CF80E090E0892B93
:1011800009F459CF609184016F7380918501762FA6
:10119000682F809195010E9400002FCF1B821C8236
:1011A0001D821E828A8381E5C3CF30E0E32E30E0CA
:1011B000F32EEF2809F43FCF609184016F73809183
:1011C0008501762F682F809195010E94000015CF30
:1011D000809184018F7390918501892798278927B1
:1011E000009709F457C0209195012F712887E22FAD
:1011F000F0E0EE0FFF1FEA56FE4F2081318182178B
:10120000930709F447C091838083A6E7EA2EA1E003
:10121000FA2E21E02F83FA87E987B3EE7B2E80E454
:10122000B82ECF80D884CD1469F1D7019296CD9095
:10123000DC90E985FA8580819181C816D90611F57F
:101240008F8180660E94CF001B821C821D821E82BD
:101250007A82BB828983F4E6CF16D10418F08D2DF3
:10126000806C8C83CD8266E0CE0101960E94FC00EA
:1012700066E0CE0101960E94AB00D70193961C92C6
:101280001E929297BF81BF5FBF83E2E0EE0EF11C1A
:10129000B03239F680918301803191F480E090E0A2
:1012A000892B09F4AACE809184018F7390918501D6
:1012B000609186018927982789270E9400009DCE8A
:1012C000813191F480E090E0892B09F496CE8091F1
:1012D00084018F73909185016091860189279827F9
:1012E00089270E94000089CE823191F480E090E04D
:1012F000892B09F482CE809184018F7390918501AE
:10130000609186018927982789270E94000075CE61
:10131000833191F480E090E0892B09F46ECE8091C6
:1013200084018F73909185016091860189279827A8
:1013300089270E94000061CE803291F480E090E025
:10134000892B09F45ACE809184018F739091850185
:10135000609186018927982789270E9400004DCE39
:10136000813291F480E090E0892B09F446CE80919F
:1013700084018F7390918501609186018927982758
:1013800089270E94000039CE823291F480E090E0FB
:10139000892B09F432CE809184018F73909185015D
:1013A000609186018927982789270E94000025CE11
:1013B000833211F0833F91F480E090E0892B09F4AF
:1013C0001CCE809184018F7390918501609186017C
:1013D0008927982789270E9400000FCE883209F0BC
:1013E00087CC80E090E0892B09F407CE80918401BE
:1013F0008F739091850160918601892798278927AD
:101400000E940000FACD6091840120918301F4E0F4
:101410002F9F90011124862F90E0959587958370DA
:101420009927822B932B0E941302E7CD81110FC0C5
:1014300080918401813609F0FECD82E080937901AC
:101440000115110509F4F7CD0E940000F4CD883094
:1014500011F484E0F3CF823009F0EDCD8091840166
:10146000833609F0E8CD88E0E9CF813859F48091DE
:1014700083018111E0CD80918401813809F0DBCDB9
:1014800081E0DCCF982F907F903409F0D4CD869501
:101490008770D82E56E7E52E51E0F52ECC24C39464
:1014A00022E0E20EF11CDC1408F4C5CDD7011C9635
:1014B0006C911C971B962C91B4E02B9F90011124EA
:1014C000862F90E09595879583709927822B932B93
:1014D0000E940000C394E4CF8A3949F489829A8239
:1014E000AB8263E0CE0101960E94AB00A4CD809157
:1014F0008201823609F09FCD80918301823209F00A
:101500009ACD809184018130F9F070F08230A9F099
:10151000883009F1CB84DC84ED84FE84C982DA82D0
:10152000EB82FC8264E0DECF1092790180E001154D
:10153000110581F30E940000EDCF8093790182E0D4
:1015400001151105B9F7E6CF8093790181E0011506
:10155000110581F7DFCF8093790101151105D1F2D3
:1015600088E0E8CF10927601A6CA8F5F1CCA81502E
:101570008093770183E080937601809178018823BE
:1015800079F010927801CBA0DCA0EDA0FEA0C9827A
:10159000DA82EB82FC8264E0CE0101960E94AB000D
:1015A00080917701811152CA81E080937801109275
:1015B0008A014CCA10926E01CBCA222351F080914D
:1015C000710181110AC081E08093710183E08093F1
:1015D0006E0181E080937001BDCA81E0F8CF109266
:1015E0007001109271018FEF80936F0110927C0156
:1015F0001092770181E08093780182E080937901F5
:1016000084E080937A0110920D0210920E021092E3
:101610000F02E6E9F1E086E791E02FEF3FEF21933B
:10162000319341E0E63DF407D1F7FC01E05AFF4F6A
:10163000108230E020E0F901EF59FF4FE80FF91F69
:1016400010822F5F3F4F2A303105A9F70B9621E01A
:101650008D3A920751F71092100210927601109273
:1016600082011092830110928401109285011092E0
:1016700086011092870110928801109289011092C0
:10168000810110928A01109212021092110210929E
:10169000130283E08093450184E0809346018AEF42
:1016A00090E0A0E0B0E080933D0190933E01A093D4
:1016B0003F01B093400125E02093500126E02093A4
:1016C00051018093480190934901A0934A01B0933E
:1016D0004B0127E020935B0128E020935C0180937D
:1016E000530190935401A0935501B093560129E002
:1016F000209366012AE02093670180935E01909316
:101700005F01A0936001B09361010895F999FECF44
:1017100092BD81BDF89A992780B50895262FF99931
:10172000FECF1FBA92BD81BD20BD0FB6F894FA9AC4
:10173000F99A0FBE01960895EE0FFF1F0590F491E0
:08174000E02D0994F894FFCF9D
:10174800870187010021210060810081002181A09B
:1017580060610160002180A16061006100212405B1
:101768000020200080800001010102010101080021
:00000001FF
