:100000000C9462000C94A9020C9482020C948A0055
:100010000C948A000C948A000C948A000C948A0038
:100020000C948A000C945A030C948A000C948A0055
:100030000C948A000C948A000C948A000C948A0018
:100040000C9438020C948A000C94D0020C948A0010
:100050000C9430030C948A000C948A000C948A004F
:100060000C948A000C948A000000000023002600F3
:10007000290000000008000201000003040700003E
:1000800000000000000000000000250028002B00F8
:1000900000000000240027002A00040404040404D3
:1000A0000404020202020202030303030303010227
:1000B00004081020408001020408102001020408F6
:1000C00010208B0A11241FBECFEFD8E0DEBFCDBFBA
:1000D00011E0A0E0B1E0E8E6F6E102C005900D9283
:1000E000A033B107D9F721E0A0E3B1E001C01D9230
:1000F000AA3FB207E1F710E0C2E6D0E004C02197C2
:10010000FE010E942C0BC136D107C9F70E9498034B
:100110000C94320B0C94000090E0FC01E255FF4F70
:10012000249186569F4FFC018491882399F090E09A
:10013000880F991FFC01E057FF4FA591B491FC0176
:10014000EA57FF4F859194918FB7F894EC91E22B89
:10015000EC938FBF08952091F301EBE0E29FD00173
:100160001124A654BE4F6C932E9FF001112450E031
:1001700040E0DC013D91CD01DA01AE0FBF1FA55477
:10018000BE4F3C934F5F5F4F461798F32F5F25306C
:1001900018F42093F30108951092F30108958F77D6
:1001A000982F20E041E0992329F024273FEF390FD1
:1001B0009323F9CF211180680895CF93DF9300D066
:1001C00000D0CDB7DEB780915B0181110EC081E612
:1001D0008A8382E88B8383EE8C8380917901898383
:1001E00064E0CE0101960E94AB000F900F900F903B
:1001F0000F90DF91CF910895FC01319690E080E05F
:100200006250770B9617170624F4219182279F5F7F
:10021000F9CF80830895833081F028F4813099F0FC
:100220008230A9F008958730A9F08830C9F0843071
:10023000B1F4809180008F7D03C0809180008F7722
:1002400080938000089584B58F7784BD089584B528
:100250008F7DFBCF8091B0008F778093B0000895A1
:100260008091B0008F7DF9CF1F93CF93DF93282F1C
:1002700030E0F901EE58FF4F8491F901E255FF4F4C
:10028000D491F901E656FF4FC491CC23A9F0162F63
:1002900081110E940B01EC2FF0E0EE0FFF1FEA57D7
:1002A000FF4FA591B4918FB7F894EC91111108C04C
:1002B000D095DE23DC938FBFDF91CF911F910895FE
:1002C000DE2BF8CF3FB7F894809133019091340141
:1002D000A0913501B091360126B5A89B05C02F3FEE
:1002E00019F00196A11DB11D3FBFBA2FA92F982F5C
:1002F0008827BC01CD01620F711D811D911D42E057
:10030000660F771F881F991F4A95D1F708950895A2
:10031000FF920F931F93CF93DF93EC01DC01A9565B
:10032000BF4F9C91492F50E09E018BE0989F200D7C
:10033000311D1124F901E05AFF4FF080FF20A9F090
:10034000BE0168567F4FFB018081280F311DF901E6
:10035000EF59FF4F008110E0811118C02981116011
:100360002223A1F081E0FB01808360E08D810E9467
:1003700034018881843099F58981811130C01882D7
:10038000DF91CF911F910F91FF9008958F5FFB0137
:100390008F1540F110828BE0849FF001859FF00D56
:1003A0001124EC0FFD1FE05AFF4F10829F5F953024
:1003B000A0F49C9361E08D810E9434018091C10082
:1003C0008E7F8093C10010FF05C08091C1008160C5
:1003D0008093C1000093C600D3CF1C92EBCF82E084
:1003E0008883CECF8083E6CFCF93C091F80190E091
:1003F00080E00E94160BC81729F06C2F90E080E077
:100400000E941E0BC091F90181E090E00E94160B42
:10041000C81729F06C2F81E090E00E941E0B88EF36
:1004200091E0CF91089563FF22C0209151012223D2
:1004300041F0109251019093F9018093F8010C94CE
:10044000F4012091F8013091F9018217930778F0B7
:10045000A901405F5F4F8417950748F46170821BC4
:10046000E82FF0E0E35CFE4F80810C9434010895A6
:100470001F920F920FB60F9211242F933F938F93D9
:100480009F93AF93BF938091390190913A01A091CE
:100490003B01B0913C013091320123E0230F2D3715
:1004A00058F50196A11DB11D2093320180933901A9
:1004B00090933A01A0933B01B0933C0180913301AA
:1004C00090913401A0913501B09136010196A11DA2
:1004D000B11D8093330190933401A0933501B09303
:1004E0003601BF91AF919F918F913F912F910F90C6
:1004F0000FBE0F901F90189526E8230F0296A11D9E
:10050000B11DD2CF1F920F920FB60F9211242F93CD
:100510003F934F935F936F937F938F939F93AF938B
:10052000BF93EF93FF93E0910201F09103010995CE
:10053000FF91EF91BF91AF919F918F917F916F91BB
:100540005F914F913F912F910F900FBE0F901F9091
:1005500018951F920F920FB60F9211242F933F936D
:100560004F935F936F937F938F939F93AF93BF93BB
:10057000EF93FF93E0910001F09101010995FF9144
:10058000EF91BF91AF919F918F917F916F915F910B
:100590004F913F912F910F900FBE0F901F90189584
:1005A0001F920F920FB60F9211242F933F934F93E8
:1005B0005F936F937F938F939F93AF93BF93CF93EB
:1005C000DF93EF93FF93C0913701D09138012097CB
:1005D00051F18091C10081FF39C08091C6008B87A5
:1005E0009FEF99838F3519F4CE010E9488012C89E1
:1005F0002230C8F08D898F7090E002962817190676
:1006000071F4FE013C9680E0918591938F5F2813F1
:10061000FBCF81E0FE01E656FF4F80831C8A8C8968
:10062000883008F01C8AFF91EF91DF91CF91BF9144
:10063000AF919F918F917F916F915F914F913F917A
:100640002F910F900FBE0F901F901895EC89EF5FC0
:10065000EC8B8091C600EC0FFD2FF11D848BC7CF72
:100660001F920F920FB60F9211242F933F934F9327
:100670005F936F937F938F939F93AF93BF93EF930A
:10068000FF938091370190913801009711F00E94FB
:100690008801FF91EF91BF91AF919F918F917F91D1
:1006A0006F915F914F913F912F910F900FBE0F90DF
:1006B0001F9018951F920F920FB60F9211248F93CF
:1006C000809131018F5F8093310180913001809161
:1006D000310181110AC0809130011092B2008F91D6
:1006E0000F900FBE0F901F90189580913001809150
:1006F00031018823A1F380913001809130018F5F17
:1007000080933001109231011092B200809130013B
:10071000882339F080913001893018F480913001BC
:10072000DECF809130018930D0F210923001D7CFE6
:10073000CF93DF93CDB7DEB7A4970FB6F894DEBFA3
:100740000FBECDBF789484B5826084BD84B58160CE
:1007500084BD85B5826085BD85B5816085BD80918C
:100760006E00816080936E00109281008091810004
:1007700082608093810080918100816080938100FC
:10078000809180008160809380008091B1008460BE
:100790008093B1008091B00081608093B00080911F
:1007A0007A00846080937A0080917A0082608093DE
:1007B0007A0080917A00816080937A0080917A003B
:1007C000806880937A001092C10090E080E00E94DF
:1007D000160B8093F80181E090E00E94160B809345
:1007E000F9018091F8019091F901019641F481E0BD
:1007F00090E09093F9018093F8010E94F40184E065
:1008000080935E0182E080935F010E948C0060E033
:1008100080915F010E943401F8941092C5008FE02E
:100820008093C4001092C0008CED8093C10086E0DC
:100830008093C20078948AE591E090933801809388
:1008400037010DE311E07DE4E72E71E0F72ED801CA
:100850008D918D010E948C00E016F106C1F7C090C9
:100860000401D0900501E0900601F0900701C986CF
:10087000DA86EB86FC86C0900801D0900901E090F2
:100880000A01F0900B01CD86DE86EF86F88AC090D3
:100890000C01D0900D01E0900E01F0900F01C98A7B
:1008A000DA8AEB8AFC8AC0901001D0901101E090A6
:1008B0001201F0901301CD8ADE8AEF8AF88EC09083
:1008C0001401D0901501E0901601F0901701C98E27
:1008D000DA8EEB8EFC8EC0901801D0901901E0905A
:1008E0001A01F0901B01CD8EDE8EEF8EF8A2C09023
:1008F0001C01D0901D01E0901E01F0901F01C9A2C3
:10090000DAA2EBA2FCA200E010E08090200190901F
:100910002101A09022014090230150902401609079
:10092000250180915A01823009F44AC0833009F4CC
:100930006EC0811196C080915B018111B4C581E0C8
:1009400080935A01809160018F5F809360018032B3
:10095000B8F0982F9F71E92FF0E0EE0FFF1FE658D7
:10096000FE4F208131812F3F3F4F19F4803208F034
:1009700098C580936001911103C081E0809360016C
:10098000809160018F71F82E80640E94CF00E82E64
:10099000809377018F2D0E94CF00809378018F2D57
:1009A00080660E94CF0080937901E98261E0CE01E8
:1009B00001960E94AB008AE591E00E9488011CC06C
:1009C0000E946201C0906101D0906201E0906301D9
:1009D000F09064016C197D098E099F09663272409E
:1009E0008105910510F010925A0180916E018823C3
:1009F000C1F183E080935A010E946201609361011A
:100A00007093620180936301909364012AC00E94F5
:100A10006201C0906101D0906201E0906301F090AA
:100A200064016C197D098E099F0960377741810542
:100A3000910508F4D2C010925A01109266011092EA
:100A40006701109268011092690110926A01109278
:100A50006B0110926C0110926D0110926501109261
:100A60006E012FB7F8948091390190913A01A091CD
:100A70003B01B0913C012FBF40915601509157016D
:100A800060915801709159016C017D01C41AD50A19
:100A9000E60AF70AB701A60142335105610571055F
:100AA00078F18093560190935701A0935801B09329
:100AB000590186E480937C0080917A008064809361
:100AC0007A0080917A0086FDFCCF90917800809129
:100AD000790020915401892798278927843F9140E4
:100AE00008F007C521110AC080915501882309F437
:100AF000FDC41092550182E080935201109254017E
:100B000080915201833019F491E0909352019091B9
:100B10005201923011F410925201823019F481E0A6
:100B2000809351012FB7F8948091390190913A0147
:100B3000A0913B01B0913C012FBF40914D015091DC
:100B40004E0160914F01709150016C017D01C41AFA
:100B5000D50AE60AF70AB701A601443F51406105EC
:100B6000710508F432C080934D0190934E01A0931B
:100B70004F01B09350018091510161E0882311F140
:100B8000E2E7F0E08491EEEAF0E0E490EAE9F0E0F8
:100B9000F49070E060E0FF2099F081110E940B0159
:100BA000EF2DF0E0EE0FFF1FE859FF4FA591B49134
:100BB000EC91EE2291E080E009F490E0692F782F2B
:100BC00031E0632780E00E94340180E090E0892BCF
:100BD00009F4A7CE0E94000096CE8091F4018823EC
:100BE00009F43FCF1092F40180916601482F4F70B5
:100BF00050E04F5F5F4F60E090E0262F30E04217FB
:100C0000530744F0265A3E4FD9011C962C91922747
:100C10006F5FF3CF911193C0823509F490C308F54B
:100C2000823209F4D9C130F4813209F4B8C00E948B
:100C3000DD0082C1833209F4E6C18234C1F780E06D
:100C400090E0892B09F478C180915B01811178C112
:100C50004091680160916701809179010E940000D4
:100C60006BC1833E09F4EDC130F5803801F7809106
:100C700067018038E1F680915B018111DDC1CD848F
:100C8000DE84EF84F888C982DA82EB82FC8264E039
:100C9000CE0101960E94AB0080915D01813009F484
:100CA0004BC181E080935D010115110509F444C138
:100CB0000E94000041C1843E09F429C2863E09F029
:100CC000B6CF80916701803309F036C1E0906801AA
:100CD000F12CFE2CEE24EE243FE3F32280916901F7
:100CE000E80EF11C80916A01C82ED12CDC2CCC249A
:100CF000CC2443E0D42290916B01C90ED11C8C7F8F
:100D00008C3E51F480E090E0892B31F040916C01F1
:100D1000B601C7010E94000080916A018C7F883E65
:100D200009F00AC180E090E0892B09F405C14091E7
:100D30006C014F70B601C7010E940000FDC0809198
:100D40005B0181110EC081E68A8380E88B8381EE8E
:100D50008C8380917901898364E0CE0101960E94A1
:100D6000AB00109266011092670110926801109218
:100D7000690110926A0110926B0110926C0110923D
:100D80006D011092650180915B01811187C384E040
:100D900080935A018AE591E00E94880162CE809199
:100DA0005B018111CDC080916701843201F5809192
:100DB00068018530E1F4E0915D0181E0E93020F4E3
:100DC000F0E0EA5DFE4F80811D8292E69A8392E216
:100DD0009B839091790199838C8365E0CE01019684
:100DE0000E94FC0065E0CE0101960E94AB0080915C
:100DF00067018132D1F490916801911116C01E8271
:100E00001D8293E69A838B8386E38C8380E18D83B6
:100E100080917901898366E0CE0101960E94FC00F1
:100E200066E0CE0101960E94AB0080916701803898
:100E300011F580916801813A09F043C080915B010E
:100E40008111A8C0CD8CDE8CEF8CF8A0C982DA822B
:100E5000EB82FC8264E0CE0101960E94AB0080919F
:100E60005D01823041F082E080935D010115110542
:100E700011F00E94000080916701813811F5809186
:100E80006801803A09F04AC080915B01811187C0F6
:100E9000CD88DE88EF88F88CC982DA82EB82FC820A
:100EA00064E0CE0101960E94AB0080915D01882331
:100EB00041F010925D010115110519F080E00E94CA
:100EC000000080916701803149F58091680181338C
:100ED00029F5909179012091F5013091F6018091E9
:100EE000F7012115310509F45FC01E821D8233E62A
:100EF0003A8334E13B8399832C838D8366E0CE0172
:100F000001960E94FC0066E0CE0101960E94AB00B3
:100F10001092F6011092F5011092F701E09179011B
:100F2000EF71F0E0EE0FFF1FE658FE4F80819181D8
:100F3000019611F41182108280915B018823D1F017
:100F400080916501803609F063C280916601813627
:100F500009F027C280916701813009F003C28091B6
:100F60006801803639F410925D0180E001151105A9
:100F700009F006C230E0E32E30E0F32EEF2809F44A
:100F8000F0CE609166016F706E5F86E691E00E9420
:100F90000000E7CEC98CDA8CEB8CFC8C57CFC9886B
:100FA000DA88EB88FC8878CF1C821B8221E62A83B2
:100FB0002FE12B8399838F3F21F483E18B83109260
:100FC000F70164E0CE0101960E94FC0064E0CE01CE
:100FD00001960E94AB00A2CF80916701853109F094
:100FE00026CE1092F6011092F5011092F70180E0E2
:100FF00090E0892B09F4A0CF809168018150990B72
:101000000E94000099CF80916701863109F00FCED0
:101010001092F6011092F5011092F70180E090E035
:10102000892B09F489CF8091680160916901815011
:10103000990B0E94000080CF49825A826B8263E044
:1010400027CE90915B0191117BCF909167019830F1
:1010500009F443C0D8F4992379F1973009F0E7CD2A
:101060001B821C821D821E8283EE8A8380E58B8315
:1010700080917901898366E0CE0101960E94FC008F
:1010800066E0CE0101960E94AB0056CF993061F127
:10109000903F09F0CCCD80E090E0892B09F46ACF35
:1010A000609168016F7380916901762F682F80913C
:1010B00079010E94000040CF80E090E0892B09F484
:1010C00059CF609168016F7380916901762F682F05
:1010D000809179010E9400002FCF1B821C821D820B
:1010E0001E828A8381E5C3CF30E0E32E30E0F32E09
:1010F000EF2809F43FCF609168016F738091690117
:10110000762F682F809179010E94000015CF809181
:1011100068018F7390916901892798278927209109
:101120007901009709F452C02F71C22EE22FF0E02E
:10113000EE0FFF1FE658FE4F208131818217930783
:1011400009F444C091838083AAE5EA2EA1E0FA2E37
:10115000DD24D394F887EF83B3EE7B2E80E4B82EA2
:10116000CD1469F1D70192962D903C90EF81F885CE
:10117000808191812816390611F58D2D80660E9497
:10118000CF001B821C821D821E827A82BB828983D1
:10119000F4E62F16310418F0832D806C8C832D8299
:1011A00066E0CE0101960E94FC0066E0CE01019649
:1011B0000E94AB00D70193961C921E929297D394F3
:1011C000B2E0EB0EF11CE0E2DE12CACF80916701C3
:1011D000803191F480E090E0892B09F4ADCE8091CC
:1011E00068018F739091690160916A01892798273E
:1011F00089270E940000A0CE813191F480E090E028
:10120000892B09F499CE809168018F7390916901BF
:1012100060916A018927982789270E9400008CCE57
:10122000823191F480E090E0892B09F485CE8091A1
:1012300068018F739091690160916A0189279827ED
:1012400089270E94000078CE833191F480E090E0FD
:10125000892B09F471CE809168018F739091690197
:1012600060916A018927982789270E94000064CE2F
:10127000803291F480E090E0892B09F45DCE80917A
:1012800068018F739091690160916A01892798279D
:1012900089270E94000050CE813291F480E090E0D6
:1012A000892B09F449CE809168018F73909169016F
:1012B00060916A018927982789270E9400003CCE07
:1012C000823291F480E090E0892B09F435CE809150
:1012D00068018F739091690160916A01892798274D
:1012E00089270E94000028CE833211F0833F91F4B9
:1012F00080E090E0892B09F41FCE809168018F7304
:101300009091690160916A018927982789270E9435
:10131000000012CE883209F08ACC80E090E0892B60
:1013200009F40ACE809168018F73909169016091F0
:101330006A018927982789270E940000FDCD6091C6
:10134000680120916701F4E02F9F90011124862FFE
:1013500090E09595879583709927822B932B0E9417
:101360001302EACD81110FC080916801813609F026
:1013700001CE82E080935D010115110509F4FACDDB
:101380000E940000F7CD883011F484E0F3CF823062
:1013900009F0F0CD80916801833609F0EBCD88E04B
:1013A000E9CF813859F4809167018111E3CD8091B3
:1013B0006801813809F0DECD81E0DCCF982F907F85
:1013C000903409F0D7CD86958770D82E5AE5E52E52
:1013D00051E0F52ECC24C39422E0E20EF11CDC1483
:1013E00008F4C8CDD7011C966C911C971B962C91C4
:1013F000B4E02B9F90011124862F90E0959587955E
:1014000083709927822B932B0E940000C394E4CF12
:101410008A3949F489829A82AB8263E0CE010196CF
:101420000E94AB00A7CD80916601823609F0A2CD63
:1014300080916701823209F09DCD809168018130F1
:10144000F9F070F08230A9F0883009F1C984DA84AB
:10145000EB84FC84C982DA82EB82FC8264E0DECF1A
:1014600010925D0180E00115110581F30E940000DA
:10147000EDCF80935D0182E001151105B9F7E6CF4C
:1014800080935D0181E00115110581F7DFCF809325
:101490005D0101151105D1F288E0E8CF10925A01E3
:1014A000E0CA8F5F56CA815080935B0183E08093CE
:1014B0005A0180915C01882379F010925C01C9A0E7
:1014C000DAA0EBA0FCA0C982DA82EB82FC8264E0A5
:1014D000CE0101960E94AB0080915B0181118CCA04
:1014E00081E080935C0110926E0186CA10925201D5
:1014F00005CB222351F08091550181110AC081E072
:101500008093550183E08093520181E080935401E0
:10151000F7CA81E0F8CF10925401109255018FEF75
:10152000809353011092600110925B0181E08093DF
:101530005C0182E080935D0184E080935E01109203
:10154000F1011092F2011092F301EAE7F1E08AE56D
:1015500091E02FEF3FEF2193319341E0EA3BF40715
:10156000D1F7FC01E05AFF4F108230E020E0F90192
:10157000EF59FF4FE80FF91F10822F5F3F4F2A30BE
:101580003105A9F70B9621E08139920751F71092A6
:10159000F40110925A0110926601109267011092A4
:1015A00068011092690110926A0110926B01109209
:1015B0006C0110926D011092650110926E011092F3
:1015C000F6011092F5011092F7018AE080933D0137
:1015D00089E080933E0188E080933F0187E080931B
:1015E000400186E08093410185E08093420184E0E0
:1015F0008093430183E08093440183E1809345011C
:1016000082E18093460181E18093470180E18093EC
:1016100048018FE0809349018EE080934A018BE07E
:1016200080934B018CE080934C010895F999FECF93
:1016300092BD81BDF89A992780B50895262FF99912
:10164000FECF1FBA92BD81BD20BD0FB6F894FA9AA5
:10165000F99A0FBE01960895EE0FFF1F0590F491C1
:08166000E02D0994F894FFCF7E
:10166800870187010021210060810081002181A07C
:1016780060610160002180A1606100610021240592
:101688000020200080800001010102010101080002
:00000001FF
